:020000040800F2
:10000000008001207D680008C9680008D941000807
:10001000E1410008E9410008F1410008000000004A
:10002000000000000000000000000000D1500008A7
:10003000C9680008000000006951000879510008F3
:10004000C9680008C9680008C9680008C9680008CC
:10005000C9680008C9680008C9680008C9680008BC
:10006000C9680008C9680008C9680008C9680008AC
:10007000C9680008C9680008C9680008C96800089C
:10008000C9680008C9680008C968000800000000C5
:10009000000000000000000000000000C968000827
:1000A000C9680008C9680008C9680008C96800086C
:1000B000C9680008C9680008C9680008C96800085C
:1000C000C9680008C9680008C9680008C96800084C
:1000D000C9680008C9680008C96800080000000075
:1000E000C9680008C9680008C96800080000000065
:1000F000000000000000000000000000C9680008C7
:1001000000000000C9680008C9680008C968000844
:1001100000000000000000000000000000000000DF
:10012000C9680008C9680008C9680008C9680008EB
:10013000C968000800000000000000000000000086
:10014000000000000000000000000000C968000876
:10015000C9680008C9680008C9680008C9680008BB
:10016000C9680008C968000800000000000000001D
:10017000000000000000000000000000000000007F
:1001800000000000C9680008000000000000000036
:10019000C96800080348044B834202D0034B03B1F3
:1001A00018477047400A0020400A00200000000065
:1001B0000548064B1B1AD90F01EBA301491002D0C9
:1001C000034B03B118477047400A0020400A002043
:1001D0000000000010B5064C237843B9FFF7DAFFA2
:1001E000044B13B10448AFF300800123237010BD0A
:1001F000400A0020000000002C14020808B5054B3E
:100200001BB105490548AFF30080BDE80840FFF782
:10021000CFBF00BF00000000440A00202C140208D9
:10022000A3F5803A704700BF174B002B08BF134B54
:100230009D46FFF7F5FF00218B460F461348144AF1
:10024000121A13F0FDF80E4B002B00D098470D4BFF
:10025000002B00D098470020002104000D000D481D
:10026000002802D00C4804F0E1FB13F061F92000F3
:10027000290004F011FE04F065FD00BF0000080035
:1002800000000000F54D000800800120400A002019
:10029000F83100202D4A000800000000F0B50023CE
:1002A00084681D4601269C4200D1F0BD426852F888
:1002B0002320916857680131B942916024BF1673B9
:1002C00095600133EFE7034607C983E807007047ED
:1002D000704710B4426881685410034601EB620015
:1002E000D20748BF0A591B685DF8044B48BFD35872
:1002F0001847027B22B103680022DB6802731847AB
:1003000070470000034AC0E90021002282600273A6
:10031000704700BF8C8A01087047C36810B5044657
:100320000BB19B689847204610BD000038B50546C4
:10033000064B45F8283B044603F03FF82846FFF7F4
:10034000ECFF204603F05CF9204638BD348F0108ED
:1003500038B50546054B45F8103B0446284603F0E2
:100360002CF82846FFF7E2FF204638BDA48A010892
:1003700010B50446FFF7ECFF2046502104F02CFD99
:10038000204610BD10B50446FFF7D0FF204640219F
:1003900004F022FD204610BD70B52DED028B08EE55
:1003A000103A1A4B826000F1100588B0C0E90031A4
:1003B0000446284602F084FF1022154B154E009388
:1003C0000DEB02000021CDE90114039613F038F87B
:1003D000694604A8FFF777FFDFED0F7A079668EE0E
:1003E000277A17EE900A17F005FA02460B462846C0
:1003F00004A902F0C6FF04A8FFF78FFF6846FFF7C5
:100400008CFF204608B0BDEC028B70BDA48A0108A9
:100410009D020008AC8A0108002474497047034615
:1004200007C983E807007047704710B442688168C5
:100430005410034601EB6200D20748BF0A591B68FB
:100440005DF8044B48BFD358184710B54FF4887176
:10045000044604F0C1FC204610BD70B5044604B942
:1004600070BDE068FFF7F9FF636BA56804F1100643
:1004700004F128000BB19B689847304608F076FEDF
:100480002046382104F0A8FC2C46E8E710B5064BBE
:1004900003600446D0F84003FFF7DFFF2046FFF774
:1004A0003BFF204610BD00BF4C8B010810B5044631
:1004B000FFF7ECFF20464FF4547104F08DFC20460A
:1004C00010BD000000F1080373B5044603600D463B
:1004D00011B90F4808F0F2FD084615F0B1FB0F28DE
:1004E00005EB0006019007D9002201A9204608F07B
:1004F00015FE019B2060A36032462946206808F063
:1005000047FE019B226863600021D15402B070BD98
:10051000B88A010838B5044672B6FF25206902F092
:10052000A4FD78B3D4F81831D4F81C110133B3FB0F
:10053000F5F2C2EB02229B1A8B4223D0206902F013
:10054000CBFCD4F81831D4F81C110133B3FBF5F20D
:10055000C2EB02229B1A8B42E0D0D4F8183123441C
:10056000C0B21876D4F818310133B3FBF5F2C2EB00
:1005700002229B1AC4F81831D4F820310133C4F890
:100580002031CBE762B638BDD0F8081110B5013183
:10059000D0F804410346FF22B1FBF2F0C0EB00208B
:1005A000091AA14214D0D3F808110131B1FBF2F2BB
:1005B000C2EB0222891AC3F80811D3F808211A44A1
:1005C0001079D3F80C21013AC0B2C3F80C2110BD48
:1005D0000020FCE72DE9F043D0F81C31D0F81811C9
:1005E0000133FF22B3FBF2F2C2EB02229B1A8B42D1
:1005F000ADF5097D04460BD01430FFF7C5FF232865
:10060000064609D184F8340204F23523C4F83433A1
:100610000DF5097DBDE8F083D4F8343304F54D724F
:100620009342F5D00A286DD113F8032C3B2A69D1E7
:1006300013F8022C3B2A65D113F8013C0D2B61D134
:1006400004F50D78334908AB01AA40460BF030FFA2
:10065000022855D101A948A8FFF734FF04F54F79C6
:10066000D4F840734D468FBBA94508D005F1100161
:1006700048A808F097FD35EA200528BF4D4648A850
:1006800008F074FDA9453BD0234B48AA03F1100C98
:1006900018685968174603C7083363453A46F7D1C7
:1006A0001B883B80EE2200210DF5997012F0C8FEE8
:1006B00002A848A9FFF706FF6B6B05F1280093B964
:1006C0001649174840F23B2203F0B4FE07F1100030
:1006D00048A908F067FDD7E902230028AABF3D46D4
:1006E0001F461746BFE71B6848AA08A998470D4947
:1006F000206948AB01AA02F057FC02A808F036FDB9
:10070000C4F83483D4F834331E70D4F8343301334E
:100710007CE700BFEA8A0108218B0108F48A0108FE
:10072000138B0108188B010800F10803F7B503606B
:10073000D1E900630F2B04460D4606EB0307019336
:1007400006D9002201A908F0E9FC019B2060A36002
:1007500020683A46314608F011FD2346019A53F8C5
:10076000180B6260002181541022184612F068FEB6
:100770006A6A1AB1526805F1180190476B6A6362A0
:10078000204603B0F0BD2DE9F041054638200E4665
:1007900004F0FCFA05F1100104461030FFF7C4FF25
:1007A0002B78E86823700023C4E90233666018B12F
:1007B0002146FFF7E8FFE060AE6827464FF00008EB
:1007C00016B92046BDE8F081382004F0DFFA06F1C2
:1007D000100105461030FFF7A7FF33782B70C5E9ED
:1007E0000288BD606F60F06818B12946FFF7CBFF43
:1007F000E860B6682F46E3E72DE9FF4104460D4661
:1008000000211646DFF8CC80FFF77CFD2E4B2360DD
:100810002561FF2200250021FE27C4F8148004F181
:10082000180012F00DFEC4F81851FF22C4F81C7114
:100830002946C4F82051C4F8248104F5947012F0BC
:10084000FFFD04F50D73C4F828522946C4F82C7234
:100850004FF48072C4F83052184612F0F1FD04F5DE
:100860004F71C4E9D051C4F83403B06884F83C53E4
:10087000C4E9D215A0B1FFF786FF03461A469B686C
:10088000002BFBD1C4F8442303461A46DB68002B37
:10089000FBD17369C4F84823C4F84C33C4F840034F
:1008A0000A4B009300220A4B206903936946CDE965
:1008B000012402F073FC039B13B19B6868469847C0
:1008C000204604B0BDE8F0814C8B010815050008F6
:1008D0005C8B01083C8B010843691A6803691A4262
:1008E00016BFC26982691B041360704710B5034BC1
:1008F00003600446FFF710FD204610BD708B010811
:1009000010B50446FFF7F2FF20462C2104F064FAEC
:10091000204610BD82B070B5064604AC84E80C00D9
:100920003446FFF7EFFC04AD084B44F8103B0FCD05
:100930000FC495E8070084E807003046B3693269C0
:100940001A60BDE8704002B0704700BF708B0108AC
:1009500010B5034B03600446FFF7DEFC204610BDD4
:10096000AC8B010810B50446FFF7F2FF20461821B2
:1009700004F032FA204610BD437B10B504466BB13B
:10098000006903685B68984716F056FA02460B4602
:1009900060690349BDE8104002F006BB10BD00BF0E
:1009A000808B010870B504461D461646FFF7AAFC69
:1009B000034B23600023C4E904656373204670BDC4
:1009C000AC8B010837B5002305461446084601AA3A
:1009D0000A4901930BF06CFD01280CD1019B0849D9
:1009E000002BD4BF002301236B73204603B0BDE866
:1009F000304013F083B80349F7E700BFEE940108D5
:100A00008C8B0108928B01088068704707EE901A62
:100A100090ED0A7AB4EEE77AF1EE10FA09D890ED8B
:100A20000B7AB4EEE77AF1EE10FAACBF01200020A9
:100A300070470020704710B519460446104616F05E
:100A40004BFD014604F10C00BDE8104002F011BA64
:100A500001490C3002F00DBAAC1C9A3D00000000B8
:100A600007EE101AD0ED0A7AF4EEC77AF1EE10FA1A
:100A7000D8BFF0EE477A90ED0B7AB4EEE77AF1EE5C
:100A800010FA10B5044654BF17EE900A17EE100A7C
:100A900016F0D2F90AA3D3E9002316F025FA0AA327
:100AA000D3E9002316F06AF816F016FD014604F1AA
:100AB0000C00BDE8104002F0DCB900BFAFF30080CD
:100AC00040BD19355F254F3FDD2406819543B33F77
:100AD000F8B5044600F10C0517461E46094A0260A7
:100AE000002343608360284602F091F92846A762FC
:100AF000E662142102F09AF92846034902F0B9F996
:100B00002046F8BDC48B0108AC1C9A3D10B5044BBF
:100B1000044640F80C3B02F0C5F9204610BD00BF6A
:100B2000C48B010807EE901A90ED167AB4EEE77ABE
:100B3000F1EE10FA09D890ED177AB4EEE77AF1EEFB
:100B400010FAACBF0120002070470020704707EE6C
:100B5000901AF5EEC07AF1EE10FA036A0CD5C26A6B
:100B60001B041360436CC26B1A60F0EEE77A17EE59
:100B7000901A043002F07DB9826A1360C36B826CF4
:100B80001B041360F1E7036AC26A1B041360C36BA2
:100B9000826C1B0413600021043002F06AB900006B
:100BA0002DE9F04105461E46144B45F8043B04462A
:100BB000284617464FF01C0802F029F904F12003DB
:100BC00042461846002112F03BFC394602F06FFF06
:100BD00004F13C0342461846002112F031FC314634
:100BE00002F065FF069BA365079BE3652846C821C5
:100BF00002F029F92046BDE8F08100BFE08B010832
:100C000010B5044B044640F8043B02F04BF9204673
:100C100010BD00BFE08B0108704710B504460068A6
:100C200010B10368DB689847204610BD014B586A35
:100C300000B2704700080040014B00225A62704722
:100C40000008004010B50421044604F0C5F8204611
:100C500010BD0000184A136B43F002031363174BD7
:100C6000196841F420411960596841F0C001596088
:100C7000996841F470419960D96841F42041D96084
:100C8000196A41F008511962596A5962136C43F0AC
:100C9000040313640A4B01221A6003229A604FF284
:100CA000F1129A6111210022DA6119624FF6FF7187
:100CB0009A62D9625A6270470038024000040240CA
:100CC0000008004038B5074D2B684BB9042004F0EC
:100CD0005DF8054B03602860FFF7BCFF034B18600D
:100CE000286838BD600A0020F48B01085C0A0020E7
:100CF000024A0349034803F097BE00BF9801002051
:100D00001B0C00085C0A00200020704710B5044648
:100D1000406803681B689847237E20814BB116F01A
:100D200079F802460B46D4E9040115F027FFC4E91F
:100D3000040160680368BDE810405B681847B0F9BB
:100D400008007047B0F9083007EE103A038C07EE40
:100D5000903AB8EEC77AF8EEE77AC7EE276AD0ED98
:100D6000077AC6EEA77A17EE900A704708B5D0E961
:100D7000040116F0B1FB08BD00230022C0E90423E2
:100D800001230376704700230022C0E904230023D7
:100D90000376704713B50446FFF7B8FFB4F908307F
:100DA000A06F07EE903A0368F8EEE77A01A9CDED5F
:100DB000017A1B68984707EE900AFDEEE77A17EE76
:100DC000903A18B216F026F8C4E91C0102B010BD22
:100DD00008B5D0E91C0116F037FB00B208BDA0F140
:100DE0006800FFF7F5BFD0B50446008C16F012F886
:100DF00002460B46D4E91C0116F0A0F90646E0694C
:100E00000F4616F019F802460B463046394616F0E2
:100E100095F916F061FBD0BDA0F16800FFF7E3BFC4
:100E2000034607C983E807007047704710B442685B
:100E300081685410034601EB6200D20748BF0A598B
:100E40001B685DF8044B48BFD3581847D0B504461B
:100E50000B482384C4E900020026002200272281D7
:100E60002276E161C4E9046702F024FE014604F140
:100E7000280002F03DFA034BA3622046D0BD00BF1C
:100E8000208C01080C8C010810B50446FFF7DEFF2A
:100E9000034B23602C33A366029BA367204610BD3F
:100EA000448C010810B5034B03600446FFF73EFA7B
:100EB000204610BD0C8C010810B50446FFF7F2FF68
:100EC0002046402103F088FF204610BD30B52DEDAF
:100ED000028B012389B01822CDE90023102290ED66
:100EE000078A134D0290044600210DEB0200039582
:100EF00012F0A6FA694604A8FFF792FFDFED0D7A1B
:100F0000079568EE277A17EE900A16F073FC0246F2
:100F10000B4604F1280004A902F033FA04A8FFF7F5
:100F2000FCF96846FFF7F9F909B0BDEC028B30BD5A
:100F3000788C010800247449034607C983E8070038
:100F40007047704710B4426881685410034601EB43
:100F50006200D20748BF0A591B685DF8044B48BFBE
:100F6000D358184738B500F170050446284602F0FA
:100F7000D1FADFED097A07EE100AB4EEE77AF1EE66
:100F800010FA02DD284602F0D5FA284602F0BDFA32
:100F9000C4F8D80038BD00BF00001644703002F01D
:100FA00079BAD0F8D000704737B5044615460846E0
:100FB00001AA0B490BF07CFA58B9D4F8D00015F00F
:100FC0003BFF02460B462068064901F0EDFF03B0E7
:100FD00030BD0549284603B0BDE8304012F08EBD53
:100FE000DE8D0108848C0108928B010813B50DF188
:100FF000080C0CE90C00019B0260C0E90131024BB6
:10100000C36002B010BD00BF908C0108F0B505466A
:1010100087B045F8041B0446174600211C222846C9
:101020001E4612F00DFA3946284604F1200502F05A
:101030003EFD3146284601F01FFE04F1700002F02B
:101040008AFA04F1900002F03BF91C4BC4F890308E
:101050000C9BC4F8D4300D9BC4F8E83003F094FA2C
:101060000027174B009301976E4696E80C00214627
:1010700002A8FFF7BBFF02A9284601F068FE02A8FC
:10108000FFF74BF903F096FA03F07EFA0D4BCDE92A
:101090000037214696E80C0002A8FFF7A7FF02A937
:1010A000284601F07BFE02A8FFF737F903F082FA29
:1010B000284601F00DFE204607B0F0BD488F01081C
:1010C000650F00083911000830B58BB006AC84E814
:1010D0000C000546684680E80C0094E80C0002A865
:1010E000FFF784FF10220021204612F0A9F9059B8A
:1010F0001BB15B6802A9204698479DED0E7ADFED93
:101100000C7A059B099367EE277A17EE900A16F082
:1011100071FB02460B462846214602F032F9204672
:10112000FFF7FBF802A8FFF7F8F80BB030BD00BFDF
:10113000002474490000000030B5044685B07030CA
:1011400002F0E3F90123C4F8E030D4F8D830C4F851
:10115000DC00C01A15F05EFE13A3D3E9002315F0DE
:10116000C3FE0F4B002215F0BFFE16F0B5F904F1D7
:101170009005C4F8D000284602F01FF9094B0293ED
:1011800000230393D4F8D430009304AB13E90C008C
:1011900021462846FFF798FF05B030BDAFF3008029
:1011A0000000E03FB111000837FDD98F1491A13F35
:1011B00030B5044600F1900585B0284602F0FDF8F0
:1011C000E36862681A600A2003F00AFE6368226915
:1011D0001B041360074B029300230393D4F8E830F9
:1011E000009304AB13E90C0021462846FFF76CFF7F
:1011F00005B030BDB1110008FFF7DABF03624FF44C
:10120000206383844FF07C5383624FF03F43C3627B
:10121000084B0363084B436310B5084B8363029B81
:10122000C363039B0364049B4364059B8364C0E91D
:10123000001210BD000020410000F0410000964364
:10124000C0E902237047C0E9042300680368DB6833
:101250001847D0E906017047406803685B68184783
:10126000F8B50446006803689B68984715F0E4FDEC
:10127000D4E9044506460F460022002320462946AD
:1012800016F0C2F830B132463B462046294616F0E9
:10129000B1F890B9002200232046294616F096F8AE
:1012A00068B132463B462046294616F099F8002898
:1012B00014BF01204FF0FF30F8BD0120FCE74FF0D4
:1012C000FF30F9E7006803681B6918472DE9F04112
:1012D000066A804614461D4666B11046194616F049
:1012E000FBF8336801461B683046984715F0A4FDAB
:1012F00004460D46D8F82C0015F09EFD22462B46DC
:1013000006460F4616F080F858B198F8243001339D
:10131000DBB234463D4688F8243020462946BDE8F5
:10132000F081D8F8280015F087FD22462B460646A6
:101330000F4616F04BF80028E7D10023EBE72DE924
:10134000F043044600682DED028B036883B05B68B0
:10135000984708EE100A206803685B699847D4ED47
:101360000E7AF0EEC88AF4EEE87AF1EE10FA05464D
:101370000CD500220023C4E90223C4E906234FF060
:10138000FF3003B0BDEC028BBDE8F083D4E90289E5
:10139000206B29F0004715F04FFD42463B4646467C
:1013A00016F032F860B1D4ED0D7AF4EEE87AF1EE91
:1013B00010FA05DD00220023C4E906230120E0E73E
:1013C000002D39D03046394616F086F807EE900ADF
:1013D000666877EEC87A336817EE900A1F6815F0D2
:1013E0002BFDCDE9000169463046B84716F074F888
:1013F00015F022FD02460B462046FFF767FF16F068
:101400006BF894F8242094F825309A4217D9B5EE59
:10141000408AF1EE10FA12D1606803685B68984761
:1014200000230022C4E90223C4E90623002384F830
:1014300024306FF00100A4E740464946C4E715F0A8
:10144000FBFC06460F46C4E90667D4E90201002208
:10145000002315F0BBFF0028B0D0002DAED007F15F
:101460000043A661E361A9E770B514461D46064630
:10147000406C15F0E1FC22462B4615F0B1FF48B157
:10148000B06C15F0D9FC22462B4615F0B3FF00389E
:1014900018BF012070BD70B514461D460646C06BCE
:1014A00015F0CAFC22462B4615F09AFF48B1306C65
:1014B00015F0C2FC22462B4615F09CFF003818BFE1
:1014C000012070BD10B5016003494162034981628A
:1014D000C262036310BD00BF0000F0410000F0C114
:1014E000C0E90223704708B5006A15F0A5FC08BDE5
:1014F00073B505682B6804461E68D0E90623D0E959
:10150000020115F039FB15F0E7FF15F095FCCDE968
:10151000000169462846B04715F0DEFF15F08CFC47
:1015200011A3D3E9002315F0DFFC11A3D3E90023B5
:1015300015F024FB15F0D0FFD4ED0B7A07EE100A5E
:10154000F4EEC77AF1EE10FA08DCD4ED0C7AF4EE82
:10155000C77AF1EE10FA58BFF0EE477A0120C4EDD9
:10156000087A02B070BD00BF40BD19355F254F3FFE
:10157000DD2406819543B33FC0E906237047034647
:1015800007C983E807007047704710B44268816854
:101590005410034601EB6200D20748BF0A591B688A
:1015A0005DF8044B48BFD358184700002DE9F041BF
:1015B0002DED028B037F013B0446042B5DD8DFE851
:1015C00013F0050060006900A200D600437F002BE5
:1015D00053D0006A002850D0636A002B4DD0FFF72B
:1015E000AEFE0546606AFFF783FF691C01D16B49B7
:1015F00058E0023501D16A4954E02069FFF7D1FC77
:10160000DFED687AA56808EE100AB4EEE78AF1EE1D
:1016100010FAD8BFDFED647A2B68206AD3F8008017
:10162000D4BFC8EE278AF7EE008AFFF712FE0646FF
:101630000F4618EE900A15F0FFFB32463B4615F0B8
:1016400053FC15F049FF01462846C047E568606A2B
:101650002B689E68FFF747FF02460B462846B047B7
:10166000F2EE087AB4EEE78AF1EE10FA05D5A0683A
:1016700003685B68984705232377BDEC028BBDE8C0
:10168000F081006A0028F8D0BDEC028BBDE8F04183
:10169000FFF7E2BD006A0028EFD0FFF750FE421CC2
:1016A00008D14249606801F07FFCA06803685B686C
:1016B000984713E0023001D13D49F3E7206AFFF774
:1016C000CFFD01300FD13B49606801F06DFCA0688F
:1016D00003685B689847206AFFF7F4FD206AFFF70C
:1016E000BBFD0223C8E7A568206A2B681E68FFF7C8
:1016F000B0FD15F0F1FEBDEC028B014633462846E5
:10170000BDE8F0411847006A0028B6D0636A002B94
:10171000B3D0FFF714FE431C3FF469AF02303FF42F
:101720006AAFA568206A2B681E68FFF792FD15F066
:10173000D3FE01462846B0472069FFF732FC07EE8A
:10174000100AF1EE047AB4EEE77AF1EE10FA94D5CD
:10175000A06803685B689847206AFFF77DFDBDECD1
:10176000028BE0680368BDE8F0411B691847006A16
:10177000FFF772FDE06803681B6998472069FFF76F
:1017800010FC07EE100AF2EE087AB4EEE77AF1EEFA
:1017900010FA7FF772AF01236EE700BF9C8C01083F
:1017A000CA8C01080000484300004842DF8C010851
:1017B0000D8D0108228D010810B504460D48A36067
:1017C000039BE360049B2361029B636101236377B6
:1017D000059B2362069B6362C4E90002A16102F0DB
:1017E00069F9014604F1280001F082FD024BA36271
:1017F000204610BDF48D01080C8C010837B5044655
:101800001546084601AA26490AF052FE012845D18C
:10181000637F01998BB19DED017ADFED227A67EE4E
:10182000277A17EE900A15F007FB02460B46206A4E
:10183000FFF71AFE80B91C4905E0A06803689B68A1
:10184000984730B91949284603B0BDE8304012F036
:1018500055B9637F002BDED1237F032B02D1206A91
:10186000FFF730FD01232377637FDDED017A3BB97C
:10187000A068036817EE901A1B6898470C49E2E7C6
:101880009FED087A67EE877A17EE900A15F0D4FA82
:1018900002460B46206AFFF7D3FCEFE70549D2E783
:1018A000DE8D0108000016435E8D01083E8D0108A3
:1018B0008C8B0108928B010837B504461546084603
:1018C00001AA13490AF0F4FD01281FD1E06801992B
:1018D00003685B68984730B90E49284603B0BDE8F5
:1018E000304012F00BB9E068019903681B68984713
:1018F000237F032B02D1206AFFF7E4FCA0680223B8
:10190000237703685B6898470349E6E70349E4E700
:10191000DE8D0108808D01088C8B0108928B0108F7
:1019200030B52DED028B83B004461546084601AB59
:1019300032496A460AF0BCFD02285CD1637F43B994
:101940002F49284603B0BDEC028BBDE8304012F0B1
:10195000D5B8DFED2C8ADDED017A67EEA87A17EEB7
:10196000900A15F069FA02460B46206AFFF77CFDE3
:1019700008B92549E5E79FED258ADDED007A67EE98
:10198000887A17EE900A15F057FA02460B46206A3D
:10199000FFF781FD08B91E49D3E79DED017AB5EE49
:1019A000C07AF1EE10FA0AD5DDED007AF5EEC07AD4
:1019B000F1EE10FAC4BFF1EE677ACDED007A67EE72
:1019C000287A032317EE900A237715F035FA02469A
:1019D0000B46206AFFF734FCDDED007A67EE887A6B
:1019E00017EE900A15F028FA02460B46206AFFF718
:1019F0002AFC0849A5E70849A3E700BFDB8D0108D9
:101A0000A98D0108000016435E8D01086083974888
:101A1000BD8D01088C8B0108928B010837B50546F6
:101A20001446084601AA0D490AF042FD012813D1C7
:101A3000E868019903685B68984730B9084920460F
:101A400003B0BDE8304012F059B8E8680199036866
:101A50001B6898470349F2E70349F0E7DE8D010868
:101A6000808D01088C8B0108928B010830B52DED1B
:101A7000028B87B005AB009304461546084604ABBD
:101A80003B4903AA0AF014FD03286ED1637F039932
:101A90008BB19DED037ADFED377A67EE277A17EE8B
:101AA000900A15F0C9F902460B46206AFFF7DCFCE4
:101AB00090B9314905E0A06803689B68984740B930
:101AC0002E49284607B0BDEC028BBDE8304012F02D
:101AD00015B8637F002BDCD1237F032B02D1206A52
:101AE000FFF7F0FB01232377637FDDED037ADFED62
:101AF000218A73BBA068036817EE901A1B68984789
:101B0000606903685B68984707EE900A87EEA88AC9
:101B100018EE100A15F090F902460B466068184955
:101B200001F042FADDED047A68EE277A17EE900AAA
:101B300015F082F902460B46606AFFF7D1FC059862
:101B400015F07AF902460B46606AFFF715FD0D495C
:101B5000B7E767EEA87A17EE900A15F06DF902461E
:101B60000B46206AFFF76CFBCAE70749A9E700BFED
:101B7000D88D0108000016435E8D01083E8D0108D6
:101B8000E18D01088C8B0108928B010837B5044662
:101B90001546084601AB28496A460AF089FC022826
:101BA00047D1637F00998BB19DED007ADFED237AF9
:101BB00067EE277A17EE900A15F03EF902460B46BB
:101BC000206AFFF751FC80B91D4905E0A068036851
:101BD0009B68984730B91B49284603B0BDE83040A0
:101BE00011F08CBF637F002BDED1237F032B02D14A
:101BF000206AFFF767FB237F052B02D1206AFFF7DE
:101C000061FB9DED007ADFED0D7A67EE277A042304
:101C100017EE900A237715F00FF902460B46206A5B
:101C2000FFF70EFBE068019903681B6898470649B7
:101C3000D2E70649D0E700BFDB8D0108000016435C
:101C40005E8D01083E8D01088C8B0108928B010886
:101C500030B52DED028B89B01022012390ED068A5C
:101C6000144D0290044600210DEB0200CDE9001353
:101C7000039511F0E5FB694604A8FFF780FCDFED52
:101C80000E7A079568EE277A17EE900A15F0B2FDE6
:101C900002460B4604F1280004A901F072FB04A8D7
:101CA000FEF73BFB6846FEF738FB09B0BDEC028B44
:101CB00030BD00BFF88D010800247449034607C9F0
:101CC00083E8070070477047034607C983E80700A9
:101CD00070477047034607C983E80700704770479D
:101CE000034607C983E807007047704770B444682B
:101CF00085686610034605EB6400E40748BFAC59ED
:101D00001B6848BFE35870BC184770B444688568C6
:101D10006610034605EB6400E40748BFAC591B6836
:101D200048BFE35870BC184770B4446885686610B3
:101D3000034605EB6400E40748BFAC591B6848BF85
:101D4000E35870BC184770B4446885686610034651
:101D500005EB6400E40748BFAC591B6848BFE35873
:101D600070BC1847D0ED056A9FED0F7AC0ED066A8A
:101D700091ED006AD0ED025A80ED056AF0EE477AE7
:101D8000E6EE257A90ED036AE6EE267AD0ED046A57
:101D900090ED016AA6EE267A77EEC77AC0ED047A56
:101DA00017EE900A704700BF0000000010B5034B0B
:101DB0000360044601F02EFA204610BD048F01088E
:101DC000D0B500F10C040430A0422DED028B234667
:101DD00008EE101A25D1206815F02EF8064618EEE8
:101DE000100A0F4615F028F802460B4630463946D1
:101DF00015F07AF8064660680F4615F01DF80246A1
:101E00000B463046394614F0B9FE15F065FBBDECC3
:101E1000028BD0BDD2ED007AF4EEC87AF1EE10FA62
:101E200006D5D0ED007AF4EEC87AF1EE10FAD2DAE7
:101E300002460430984204F10804EBD1CBE70000DD
:101E400010B5044B044640F8283BFFF72BF820461A
:101E500010BD00BFF48D010810B5054B8366054B1E
:101E6000044640F8283BFFF71DF8204610BD00BF90
:101E7000708C0108208C010838B505460024AB6839
:101E8000A34200D838BD6B6853F8240003689B68F0
:101E900098470134F3E7000070B5174C174D184E02
:101EA00020464FF4964101F0CCF81649204601F047
:101EB0007BF82946204601F077F83146204601F0AC
:101EC00073F81149204601F06FF83146204601F0C1
:101ED0006BF82946204601F067F80C49204601F0CE
:101EE00063F80B48FEF7F2FF0A48FFF7B1FE0A4815
:101EF000FFF754F8002070BD68120020098E010819
:101F00001D8E0108048E0108318E0108068E01081D
:101F100010110020200E0020880E002038B5FFF799
:101F2000BBFF04460748084DFFF766F91CB9284671
:101F3000FFF7A2FFFBE705490548224601F034F808
:101F4000204638BD880E0020680A0020468E010811
:101F500068120020C36810B504460BB19B6898470F
:101F6000204610BD70B5044604B970BDE068FFF7A7
:101F7000F9FF04F1100604F12800A568FFF7EAFF55
:101F8000304607F0F3F82046382102F025FF2C46B2
:101F9000EAE710B504468068FFF7E4FF204610BD6D
:101FA00030B500240025C0E90045C0E90245C0E97C
:101FB0000445D1E90045C0E90045D1E90245C0E941
:101FC0000245D1E90445C0E9044530BDD1E9022309
:101FD000C0E90623D1E90423C0E90823D1E900239D
:101FE000C0E90A23704700002DE9F04FA7B013ABFA
:101FF000019312AB009306461746084611AB684999
:1020000010AA0AF055FA042840F0C880109814F07D
:1020100013FF80461198894614F00EFFCDE90201A6
:10202000129814F009FFCDE90401139814F004FF8D
:1020300004460D4602460B464046494614F054FFFE
:10204000DDE9042314F09AFDD6E918ABCDE90601C9
:1020500052465B462046294614F046FFDDE902233E
:1020600014F042FF5246CDE908015B46404649461E
:1020700014F03AFF2246CDE90A012B4620462946B4
:1020800014F07CFD22462B46CDE90C01DDE906016A
:1020900015F054F8DDE90A23CDE91401DDE9080162
:1020A00014F06CFDDDE90C23CDE90E0140464946F4
:1020B00014F01AFF02460B46DDE90E0114F05CFD38
:1020C000DDE90423804689461046194614F056FD82
:1020D00002460B464046494614F04EFD22462B462A
:1020E00015F02CF85246CDE916015B46504659468C
:1020F00014F0FAFEDDE9022314F0F6FEDDE9062312
:1021000014F03CFDDDE9082314F036FDDDE90A2377
:1021100014F032FD22462B4615F010F8214B002218
:10212000CDE91A23CDE918015246DDE90C015B46E1
:1021300014F022FD22462B4601F1004114F0FEFF6F
:102140005246CDE91C015B462046294614F014FD99
:1021500022462B4614F0F2FF0836CDE91E0114A9E1
:1021600020A8FFF71DFF20AC324626AD234603CB47
:10217000AB42106051601C4602F10802F6D11AA968
:1021800020A8FFF70DFF20A93046FFF71FFF0649E3
:10219000384627B0BDE8F04F11F0B0BC0349F7E76F
:1021A0005D8E01080000F03F8C8B0108928B0108C6
:1021B0002DE9F04F2DED028B054699466A4B45F807
:1021C000083B9DB0DDE92C679FED658B044690468A
:1021D000002118222846DDE92EAB11F031F900224A
:1021E0000023C4E90823C4E90A23C4E90E23C4E98F
:1021F0001023C4E91223C4E91423C4E9162330468A
:1022000042464B46394684ED0C8B14F06DFEDDE9F9
:102210002A2314F0B3FC5246CDE900015B46304658
:10222000394614F061FEDDE9282314F05DFE5246C4
:10223000CDE902015B464046494614F055FE324660
:10224000CDE904013B463046394614F097FC32464E
:102250003B46CDE90601DDE9000114F06FFFDDE941
:102260000423CDE90A01DDE9020114F087FC4246AE
:102270004B46CDE90801DDE9060114F035FE0246C2
:102280000B46DDE9080114F077FCDDE92A238046DE
:1022900089461046194614F071FC02460B4640462A
:1022A000494614F069FC32463B4614F047FF52465B
:1022B000CDE90C015B465046594614F015FEDDE9A8
:1022C000282314F011FEDDE9002314F057FCDDE9AA
:1022D000022314F051FCDDE9042314F04DFC3246D6
:1022E0003B4614F02BFF5246CDE90E015B468DEDC7
:1022F000108BDDE9060114F03FFC32463B4601F14C
:10230000004114F01BFF5246CDE912015B463046F6
:10231000394614F031FC32463B4614F00FFFCDE94C
:1023200014010AA916A8FFF73BFE16AE2A461CAFF9
:10233000334603CBBB42106051601E4602F10802D7
:10234000F6D110A916A8FFF72BFE284616A9FFF70D
:102350003DFE20461DB0BDEC028BBDE8F08F00BFF6
:10236000000000000000F03F9C8E010813B50DF145
:10237000080C0CE90C00019B0260C0E90131024B22
:10238000C36002B010BD00BFC88E010838B50D464D
:1023900010220021044611F053F8EB681BB15B6872
:1023A000294620469847EB68E360204638BD00F197
:1023B0000803F7B50360044608460D46164613F0B9
:1023C0003FFC0F2805EB0007019007D9002201A967
:1023D000204606F0A3FE019B2060A36020683A46D9
:1023E000294606F0D5FE2046019B50F8182B636065
:1023F0000021D1543146FFF7C9FF204603B0F0BD9C
:10240000F7B50546382002F0C1FC044604F1180374
:102410002361D5E900630F2B00F1100006EB0307E1
:10242000019306D9002201A906F078FE019B2061E4
:10243000A36120693A46314606F0A0FE019B22695D
:1024400063610021D15404F1280005F11801FFF760
:102450009DFF204603B0F0BD2DE9F0410546103048
:102460000E46FFF7CDFF2B7803700023C0E902333F
:1024700046600446E86818B12146FFF7EDFFE060CA
:10248000AE6827464FF0000816B92046BDE8F08137
:1024900006F11000FFF7B4FF33780370C0E902883B
:1024A000B86047600546F06818B12946FFF7D4FFC9
:1024B000E860B6682F46E7E708B506F073FEC00F80
:1024C00008BD2DE9F0418D6804460F4690460E1D6B
:1024D000012045B908B3FB68B34211D1256066609D
:1024E0002046BDE8F08105F110014046FFF7E4FF0A
:1024F000D5E9022300282E4614BF15461D46E8E7FD
:10250000304606F007FD0546414605F11000FFF78D
:10251000D3FF20B100232360E1E73546F4E7C4E9A7
:102520000050DDE7000000002DE9F04F2DED048B99
:102530004FF41653ADF51F7D03220221B6489FEDDF
:10254000B78ADFF8A8A3DFF8A8B300F0BBFCB44A51
:10255000B449B14802F068FAB34B00930A2215233C
:102560001321B2488DED018AFEF71AFBAC4AB0493F
:10257000AE4802F059FAAF4BAF4A27215046FEF75A
:10258000A7FA3AACA64AAD49504602F04DFA1C22D1
:102590000021204610F054FF3CAE0521204601F0FA
:1025A00086FA0FCE6D460FC533682B6094E80C0099
:1025B00041F28831A248A34DA34EFEF7ABF9984AE9
:1025C000A2499F4802F030FAA14B2B60A14B6B60EF
:1025D000A14BAB60EB60002337682B616B61AB6193
:1025E000FEF770FB4FF400630246394600959B4F9F
:1025F0009B489C4DFEF748FC894A9B49984802F04D
:1026000013FA854B964A64213846FEF7CBF9844A83
:102610009649384602F008FA0FCD0DF1D00CACE81F
:102620000F0095E803000DF1D00E8CE80300BEE822
:102630000F0025460FC59CE803008D4BCBF80030FA
:1026400085E803008B4BCBF80430A6468A4BCBF8C9
:102650000830BEE80F000BF10C0CACE80F0095E859
:1026600003008CE803003068844D14F0E5FB62A39E
:10267000D3E900239FED629BCDE9022362A3D3E956
:10268000002389468046CDE906892846CDE9002306
:102690008DED049B5EA3D3E90023FFF789FD0022A3
:1026A0000023CDE90689CDE90223CDE900238DED94
:1026B000049B734B7348DFF83C82DFF83C920022A6
:1026C000FFF776FD704B0393704B0293704B0193B1
:1026D000704B00935B46DFF824B261492A464046BE
:1026E000FEF78CFD6C4B6D4A66495846FEF7EAFED4
:1026F0004FF07E534849019314221A238DED008A2E
:102700004846FEF783FC464A6549484602F08CF984
:10271000CDE9038BCDE901A9624B00933168434BAE
:102720003D4A6148DFF8D8A1FFF746F83C4A5F49C7
:102730005D484FF0000802F077F95D4BC4F8048063
:10274000236094E80C00584930A8FFF70FFE594960
:1027500030AA2046FFF72BFE574B53490DF1A00B33
:10276000CBE900382CA89BE80C00FFF7FFFD53498C
:102770002CAA44A8FFF71BFE514B4B49CDE9243846
:1027800024AB0CCB5846FFF7F1FD4E495A464EA8F4
:10279000FFF70DFE4C4B444920AEC6E9003824A893
:1027A00096E80C00FFF7E2FD484924AA58A8FFF775
:1027B000FEFD474B4749B760C6E90038464BF3601A
:1027C000324662A8FFF7F3FD444B45491E951CAA0B
:1027D0006CA8CDE91CA81F93FFF7E9FD414B3249D6
:1027E00014AFC7E9003818A897E80C00FFF7BEFD42
:1027F0003D4918AA86E000BF0188BB7A15192D3F14
:102800007B14AE47E17AA43FEC51B81E85EBE93F5B
:10281000713D0AD7A370BD3F681200209A99993E76
:1028200098010020AD1D00089A9999BE0812002059
:10283000010C00080000F0410000F0C10D0B000881
:10284000AC11002090110020A8010020ED08000824
:10285000848E0108721C47BF398EE33DF4100020BE
:1028600010110020D48E0108591E000851090008DB
:10287000908E0108D7FA62BED7FA623E6810002037
:102880000000F03F0010002000006143000061C321
:1028900060839748608397C8BF82D43DBF82D4BD10
:1028A0000D2C000878110020200E0020411E000889
:1028B000FD1700086A8E01081D1A00086C8E0108B9
:1028C000B91800086E8E01088D1B0008AD91010833
:1028D000C5090008708E0108BC8E0108B08E010881
:1028E000728E010821190008748E0108D811002089
:1028F000D0100020B00F0020880E0020780F00209C
:10290000E91F000876A8FFF752FD694B6949CDE938
:10291000103810AD95E80C003846FFF727FD6649E2
:102920003A4680A8FFF743FD644B654AAA60C5E9B3
:1029300000A8EB602A466349634D8AA8FFF737FD7C
:10294000624B6349CDF83890CDE90C380CAA614B45
:102950000F9394A805F1040AFFF729FDC5E903AA1E
:102960000B2385F80480C5F80880C5F81480099306
:10297000A046099B013B099366D19EAD283D05F118
:102980001800FFF7E7FA284606F0F0FBA542F5D15C
:102990000CA8FFF7DFFA10A8FFF7DCFA3846FFF7BC
:1029A000D9FA18A8FFF7D6FA1CA8FFF7D3FA3046D1
:1029B000FFF7D0FA24A8FFF7CDFA5846FFF7CAFA76
:1029C000414D2CA8FFF7C6FA30A8FFF7C3FA4249D9
:1029D000424A284602F028F8A86800233BA9C4E927
:1029E00003112371A360636180B1FFF735FD0346D6
:1029F0001A469B68002BFBD1E26003461A46DB684F
:102A0000002BFBD16B6922616361A06022463449CF
:102A10003448FDF7F1FEA068FFF7A4FA2F4A3249C7
:102A2000304802F001F8314B314932480322FDF7BA
:102A3000B3FC2A4A30492F480DF51F7DBDEC048BAD
:102A4000BDE8F04F01F0F0BF6B696BB1D5F81090A5
:102A5000414609F11000FFF72FFD28B1B9F1000F31
:102A60000DD108F1280884E7424629460AA8FFF755
:102A700028FDDDE90A39B9F1000FF2D0A3B9D1453B
:102A800012D009F110014046FFF716FD08904046AC
:102A9000FFF7B6FC534601464A46089806F054FA3A
:102AA0006B6901336B61DCE701230893EFE700BF3B
:102AB0006D1A0008200E0020768E0108B08E0108E5
:102AC00000100020788E0108080E0020A90F0008D1
:102AD0006E960108A48E0108931F0008980100203B
:102AE00068120020B80A00208D04000817B7D138FA
:102AF0009C010020680A00205103000810B504461C
:102B0000FFF754F92046B42102F066F9204610BDC3
:102B1000D0E90E232DE9F047C0E91023D0E90C23BA
:102B2000C0E90E23D1E90023C0E90C238246064602
:102B300000F11807002400253146D1E90023D1E92E
:102B40000C0114F0D1F902460B462046294614F038
:102B500015F80836B74204460D46EDD1DAE90823E8
:102B6000DAE9140114F0C0F9DAE91289DAE9062386
:102B700006460F464046494614F0B6F900220023A7
:102B800013F0FCFF02460B463046394613F0F6FFC1
:102B900002460B462046294613F0EEFFDAE90A23E7
:102BA00014F0CCFA02460B46CAE91489CAE912238A
:102BB000BDE8F08708B50830FFF7AAFF08BDF0B5FB
:102BC000002487B00025CDE90045CDE90245CDE9D7
:102BD000044503466F4600F130060DF1180C3A46E5
:102BE00003CA624530607160174606F10806F6D1E7
:102BF000C3E91245C3E9144507B0F0BD08B5083074
:102C0000FFF7DDFF08BDFFF78FBC000010B5084BD4
:102C1000044640F8903FFDF789FB04F1700000F096
:102C200029FC04F1200000F05FF8204610BD00BF31
:102C3000488F0108C36810B52BB90549054840F213
:102C40003B2201F0F7FBBDE810401B68184700BFAE
:102C5000F48A0108138B0108C36810B504460BB150
:102C60009B689847204610BD0346024A203005F075
:102C7000F5B800BFEB2D0008F8B50546134B45F835
:102C8000043B04460E4610271C220021284610F063
:102C9000D7FB3A46002104F1200010F0D1FB3A4660
:102CA000002104F1300010F0CBFB3A46002104F182
:102CB000400010F0C5FB31462046FFF7D5FF2846FF
:102CC000314600F0EDFE2046F8BD00BFF48E01084D
:102CD00010B5044601F058FC04F1200005F082F81C
:102CE000BDE8104001F066BC10B5084B044640F842
:102CF000203B05F089F904F14000FDF70EFB04F1DB
:102D00003000FDF70AFB204610BD00BFF48E01081D
:102D100010B50446FFF7E8FF2046502102F05CF8AA
:102D2000204610BD884238B504460D460ED0FDF74A
:102D3000F4FA10220021204610F082FBEB681BB150
:102D40005B68294620469847EB68E36038BDF0B5DC
:102D50000D4685B0044601F017FCEE6804F130071B
:102D600020346EB129463846FFF7DCFF01220121ED
:102D7000204605F005F805B0BDE8F04001F01ABCAA
:102D800010223146684610F05BFB69463846FFF773
:102D9000C9FF6846FDF7C1FA3246E8E7F0B50D46CF
:102DA00085B0044601F0F0FBEE6804F140072034E2
:102DB0006EB129463846FFF7B5FF012202212046B1
:102DC00004F0DEFF05B0BDE8F04001F0F3BB1022D7
:102DD0003146684610F034FB69463846FFF7A2FFDB
:102DE0006846FDF79AFA3246E8E7012908B502D0AD
:102DF000022907D008BDC36B002BFBD03030FFF792
:102E000019FFF7E7C36C002BF4D04030F7E738B573
:102E10000023037604460D4601F0B6FB2046294602
:102E200005F09AFB01F0C6FB204638BD38B50446D4
:102E30000D4601F0A9FB2946204605F051FCBDE8EE
:102E4000384001F0B7BB38B504460D4601F09CFB95
:102E50002946204605F0F0FABDE8384001F0AABB4B
:102E6000037E10B504461BB901F0FAFC012323765A
:102E700010BD38B504460D4601F086FB2046FFF72D
:102E8000EFFF2946204605F053FABDE8384001F02F
:102E900091BB037E10B504461BB101F0F7FC002383
:102EA000237610BD10B5044601F06EFB204605F0F8
:102EB00039FA2046FFF7EDFF01F07CFB204610BDFC
:102EC0007047000010B5044600F000F9014B236084
:102ED000204610BD048F010838B5036804461B68FE
:102EE0009847204600F0D2F8236805465B682046E4
:102EF0009847284638BD38B5036804461B680D4618
:102F000098472946204600F0C4F8236805465B68C8
:102F100020469847284638BD036870B51B680D46A3
:102F200004469847013D15F8016F2EB923682046E5
:102F30005B689847304670BD31462046FFF7DBFF9F
:102F4000F1E72DE9F0410368A0B00E4617461B6873
:102F5000044698473B463246012101A80FF05CFE2B
:102F60007728054610DC31463A4602A80FF08CFE61
:102F700002A92046FFF7D0FF236820465B689847E8
:102F8000284620B0BDE8F081013001F011FF3A463B
:102F9000804631460FF078FE41462046FFF7BCFFE1
:102FA000404601F01BFFE7E70EB403B503AA52F851
:102FB000041B0192FFF7C5FF02B05DF804EB03B0FC
:102FC00070476FF01500704703681B691847036866
:102FD0009B69184703689B6A184700290CBF6FF06C
:102FE000180000207047012070476FF015007047EF
:102FF0006FF015007047704770470246406830B464
:1030000090B1D2E9034101F001052CB965B100EBA3
:10301000610003681C5903E000EB6100002DF8D14A
:103020002346916830BC184730BC704700EB011351
:10303000D3F89C3023B109311B6800EB011018470D
:10304000704770B50646044656F8443B0D461B686B
:1030500098473046294605F013FD2368C4F8B05060
:1030600020465B68BDE87040184738B50546044601
:1030700055F8443B1B689847284605F0B3FC236885
:1030800005465B6820469847284638BD443004F022
:1030900029BD10B544300C4604F036FD204610BD65
:1030A000884238B504460D460ED0FDF736F9102299
:1030B0000021204610F0C4F9EB681BB15B6829467B
:1030C00020469847EB68E36038BD00002DE9F04FDB
:1030D0009A4687B02E4B036000252E4B4360102686
:1030E0000446C0E90355C0E9055501919146858321
:1030F000324629468060203010F0A2F904F14407DE
:103100003246294604F1300010F09AF904F1900893
:103110002946A4F840504C22384610F091F904F1A9
:10312000A00B32462946404610F08AF9324629461D
:10313000584610F085F932462946C4F8B0A002A8D6
:1031400010F07EF902A94046FFF7AAFF02A8FDF79A
:10315000E4F83246294602A810F072F902A958464E
:10316000FFF79EFF02A8FDF7D8F84A4601993846B6
:1031700005F0ACFCD4F8B010384605F081FC3846B8
:103180000549224604F052FC204607B0BDE8F08F06
:103190001C8F0108FB2F00082D3000082DE9FF418E
:1031A0000646154656F8443B0F461B6804469847AA
:1031B00001F0EAF92B012344FA68D3F89C3005F1B9
:1031C0000908AAB10BB901F04BFB394604EB081012
:1031D000FFF766FF01223046294604F033FC01F078
:1031E000E9F923685B68204604B0BDE8F041184760
:1031F0000BB101F04BFB10220021684610F020F9C2
:10320000694604EB0810FFF74BFF6846FDF785F8A9
:103210000022E0E71FB51A4B03600446102200218C
:10322000684610F00DF9002269462046FFF7B6FF08
:103230006846FDF772F810220021684610F000F988
:10324000012269462046FFF7A9FF6846FDF765F8A9
:1032500004F1A000FDF761F804F19000FDF75DF8BE
:1032600004F13000FFF7F8FC04F12000FFF7F4FC54
:10327000A06908B100F0A6FF204604B010BD00BF51
:103280001C8F010810B50446FFF7C4FF2046B42187
:1032900001F0A2FD204610BD70B5D0E90813D0E9B9
:1032A00002250446521845EB030300F099F9636BBD
:1032B0002BB104F128001B68BDE87040184770BDB1
:1032C00010B5044600F05EF9084B2360002200238D
:1032D000C4E908230021102204F1280010F0B0F8FE
:1032E000012384F83830204610BD00BF348F010818
:1032F00038B504460D4600F05DF90A4B2360002204
:103300000023C4E908230021102204F1280010F052
:1033100097F82B6893F8203083F0010384F8383055
:10332000204638BD348F010870B5044615461E4648
:1033300001F02AF9204600F05DF9C4E90856A069B9
:1033400000F0D1FE421946EB0103204600F048F997
:10335000BDE8704001F02EB9884238B504460D46EC
:103360000ED0FCF7DAFF10220021204610F068F89A
:10337000EB681BB15B68294620469847EB68E36021
:1033800038BDF8B504461D460F46164601F0FCF858
:10339000636B23B994F838300BB101F061FA394608
:1033A00004F12800FFF7D8FF32462B462046FFF7EE
:1033B000BBFFBDE8F84001F0FDB81FB5044601F0C1
:1033C000E3F8204600F016F9636B23B194F8383027
:1033D0000BB101F05BFA10220021684610F030F8C2
:1033E000694604F12800FFF7B7FF6846FCF795FF30
:1033F00004B0BDE8104001F0DDB8000010B5034B8B
:1034000003600446FCF792FF204610BD488F010878
:1034100010B50446FFF7F2FF2046402101F0DCFC26
:10342000204610BD1FB5044610220021684610F04A
:1034300007F8636B23B15B6804F12801684698477D
:10344000636B03932046FFF7B8FF039B2BB9074933
:10345000074840F23B2200F0EDFF1B6868469847A2
:103460006846FCF75AFF04B010BD00BFF48A01089B
:10347000138B010810B5044601F086F823681BB1D0
:10348000237F0BB101F002FA0023236001F092F8D0
:10349000204610BD10B5044601F076F8236853B9F4
:1034A000237F0BB101F0DCF9A06900F01CFEC4E938
:1034B000020101232360BDE8104001F07BB838B55C
:1034C000054601F061F82C6864B1A86900F00BFEB4
:1034D000D5E90245041B61EB050501F06BF82046B8
:1034E000294638BD2546F8E770B5054601F04CF889
:1034F0002846D5E90446FFF7E2FF241846EB01060B
:1035000001F058F82046314670BD08B5FFF7ECFFD2
:1035100008BD000008B5FFF7E7FF14F0F5F8DFED90
:10352000047A07EE100AC7EE277A17EE900A08BD54
:103530000024744910B5044601F026F8A06900F093
:10354000D2FD00220023C4E90201C4E90423BDE83E
:10355000104001F02FB8002310B5002203600023B3
:10356000C0E90223C0E90423044600F0CFFD012393
:10357000A06123772046FFF7DDFF204610BD0368DA
:103580009B681847094B10B5002203600023C0E96F
:1035900002230023C0E90433044600F0B7FD0449C8
:1035A000A06100F015FD204610BD00BF5C8F010832
:1035B0007F35000810B50446074B23600022002326
:1035C000C4E9022300230846A161C4E90433034986
:1035D00000F0FEFC204610BD5C8F01087F3500081E
:1035E00007B5009000F10801806900F02FFD03B0DD
:1035F0005DF804FB00F10801806900F059BD00008E
:1036000010B5034B03600446FFF7F4FF204610BDDE
:103610005C8F0108036801221B69002118470368B9
:1036200000221B6911461847034607C983E80700B3
:103630007047704710B4426881685410034601EB2C
:103640006200D20748BF0A591B685DF8044B48BFA7
:10365000D358184738B504460D4600F095FF94F846
:1036600057302BB994F8563013B994F854307BB1D5
:1036700004F10800FFF7A1FE002384F85530A4F8F8
:1036800056300DB12046A847BDE8384000F092BF43
:10369000A36CDB689847F7E710B5044600F074FFA9
:1036A000A36C9B689847BDE8104000F083BF10B53D
:1036B000044600F069FFA36CDB689847BDE8104042
:1036C00000F078BF10B5044600F05EFF012384F8D7
:1036D0005730A36C5B699847BDE8104000F06ABFA3
:1036E00010B5044600F050FFA36CDB699847044610
:1036F00000F060FF204610BD38B5044600F041FFE1
:1037000020B914491448C22200F094FE04F10800C4
:10371000FFF753FE0023C4E9173384F85530A4F8AB
:1037200056306366A36C012584F85850DB699847CE
:10373000436802681F2B9ABF9D4005F1FF354FF08B
:10374000FF3502F5742303F23F23A566B3FBF2F3C2
:10375000E36638BD688F0108918F0108F8B504460B
:103760000E46083017461D46FFF7AAFD0B4BA36017
:103770003368A364069B013323650135002384F875
:103780005430E56400F000FF7368636020462760F2
:10379000FFF7B2FF00F00EFF2046F8BD488F01088A
:1037A00010B5044600F0F0FE2046FFF7A5FFA36C1D
:1037B0001B689847BDE8104000F0FCBE10B50446F9
:1037C00000F0E2FE2046FFF797FFA36C9B69984745
:1037D000BDE8104000F0EEBE38B504460D4600F0DE
:1037E000D0FE20B909490A48F02200F023FE94F8DF
:1037F00056304BB1D4E91720904205D0294600F04D
:10380000C7FA031E18BF0123184638BD688F010888
:10381000918F010838B5044600F0B6FEA36C5B68D2
:10382000984794F8543005463BB901462046FFF7C7
:10383000D3FF10B1A36C5B69984700F0BBFE28462C
:1038400038BD000038B505460C4600F09AFE20B998
:1038500004490548FC2200F0EDFDE86E60430430A9
:1038600038BD00BF688F0108918F01087FB50446FD
:103870000D4600F086FE28B9334934484FF4827271
:1038800000F0D8FD94F85830A26E43B9636EE16C35
:10389000EB1A13408B4224BF012384F85830E06DAB
:1038A000236D451B154094F85820F2B994F85560E3
:1038B000CEB9274A02949D42CDE900262946254AE1
:1038C000039228BF19462046FFF7BCFF3346024645
:1038D000694604F10800FFF754FD6846FCF71DFD3A
:1038E000012384F8553004B070BD9D422AD3A36CE7
:1038F0001B699847A36C5B6898470023E16D84F8C7
:103900005830A36E6066091A19408D4205D2A36C27
:103910005B6904B0BDE870401847236D8B42E2D963
:10392000236D0B4A009299420A4A03924FF0000518
:1039300028BF19462046CDE90154FFF783FF2B46E7
:103940000246C5E72946EBE7688F0108918F010819
:103950009D390008B48F010838B504460D4600F0C3
:1039600013FEA36C5B689847012384F8563094F8E3
:103970005430C4E91750014633B92046FFF776FFAB
:10398000BDE8384000F016BEA36C28461B69984776
:10399000236E6366002384F85830F1E738B5044697
:1039A00000F0F2FD002384F85530A36C5B68984763
:1039B0000546D4E91720904206D1A36C5B6998476D
:1039C000BDE8384000F0F6BD294600F0E1F90028D6
:1039D000F3D129462046FFF749FFF1E7EFF31083C3
:1039E00072B6054A117831B90449DB4303F001038B
:1039F0000B700123137070471C1300201D1300204F
:103A000008B5EFF31083DB4313F0010304D006493C
:103A10000648362200F00EFD054A1370054B1B7850
:103A200003B162B608BD00BFC08F0108EB8F01086B
:103A30001C1300201D130020014B1878704700BF95
:103A40001C13002070B50E460446154604F002F91A
:103A5000013609D02046002104F020F929462046ED
:103A6000BDE8704004F016B970BDF8B50F460446C5
:103A700015461E4604F0EEF8013710D020685EB1FE
:103A8000A36818600121204604F008F92946204661
:103A9000BDE8F84004F0FEB8E3680004F1E7F8BDC3
:103AA0000022FFF7CFBF13460022FFF7DEBF002240
:103AB000FFF7F9BF014800F051B800BF08900108B6
:103AC000014B186800F034B8AC010020014B1868B5
:103AD000FFF706BED8130020014B1868FFF76EBE33
:103AE000D8130020014B1868FFF7ECBDD813002055
:103AF000024B01461868FFF72FBF00BFD813002004
:103B0000014B1868FFF7D3BDD8130020014B18688C
:103B1000FFF7C2BDD8130020014B1868FFF77ABE2B
:103B2000D8130020014B1868FFF73ABED8130020C5
:103B300010B5044600F028FD064B1B780BB9FFF7C3
:103B4000B9FF054B21461868FFF784FDBDE810401A
:103B500000F030BD60130020D81300202DE9F341A0
:103B60000C4F0D4E054600F00FFD3B7863B9DFF8B2
:103B700030800A4A01240094234629464046FFF734
:103B8000EDFDC6F800803C7000F014FD306802B016
:103B9000BDE8F08160130020D813002034900108A4
:103BA0006813002013B50446601C0FD102B010BD8D
:103BB000A3420AD12046896804F0C0FA00212046B9
:103BC00002B0BDE8104004F04DBB0C31B1F900303B
:103BD0005A1CEDD10023034903480093224600F00C
:103BE00025FE00BF589001083001018007B502464C
:103BF0008A4208460AD0531C08D0013005D0002361
:103C000004490548009300F011FE104603B05DF82A
:103C100004FB00BF6990010830010180B1F9003058
:103C20005A1C01D118467047834201D14868704739
:103C30000C31F3E7421C13B504460AD0FFF7EEFF40
:103C4000431C06D10023044904480093224600F097
:103C5000EDFD02B010BD00BF7A9001083001018077
:103C6000B1F900305A1C01D118467047834201D186
:103C7000886870470C31F3E7421C13B504460AD03C
:103C8000FFF7EEFF431C06D10023044904480093CC
:103C9000224600F0CBFD02B010BD00BF9A90010893
:103CA000300101802DE9F843456895F83A600446F3
:103CB000002E49D103685B68984763681B6A83429A
:103CC00042D02C6AAF682862041B3048EB688742F8
:103CD00004EA030431D095F83B30D5E90A98A4FBF7
:103CE0000001D3B3C3F1200620FA03F401FA06F66B
:103CF000A3F1200221FA02F23443144321FA03F61D
:103D0000A3F1200EC3F1200C06FA03F204FA0EFE12
:103D100019EB000004FA03F342EA0E0224FA0CFC49
:103D200048EB010142EA0C02C01A61EB0201B84201
:103D300071F100030AD2C5E90A01D5E90C321B1959
:103D400046EB0206C5E90C36BDE8F883013446F1BE
:103D50000006C01B61F10001EDE733463A4613F05F
:103D600019FD12EB090248EB0303BA42044673F152
:103D700000000E4602D2C5E90A23DEE7013441F114
:103D80000006D21B63F10003F5E700BF40420F00BD
:103D9000824206D98A420BD9884294BF0020012072
:103DA0007047884206D98A428CBF002001207047A4
:103DB00001207047002070472DE9F041466896F8D1
:103DC0003A300546002B67D196F83930002B63D185
:103DD000FFF768FF6F687A68002A5FD0D7E90C1098
:103DE000D2E90032994270EB020404D32B68BDE89B
:103DF000F0415B6918475B1A62EB0002D7E90601E4
:103E0000984291413C6906D3B968294881420FD153
:103E10009C4228BF1C463B6A1C44FB681C40336A1A
:103E2000A3422BD12349244840F21B1200F002FB8D
:103E300097F83B00D8B1A0F1200EC0F1200C02FA97
:103E400000F103FA0EFE23FA0CFC03FA00F01B4B00
:103E500041EA0E0141EA0C01C01841F10001144A87
:103E6000002313F097FC844228BF0446D3E7A1FB4C
:103E7000033001FB020111481818EEE72B682046B9
:103E80001B6998472B685B68984722460146306A51
:103E9000FFF77EFF0028A9D1BDE8F0813369306AC1
:103EA000F26818442B681040BDE8F0411B691847C0
:103EB00040420F00B8900108D99001083F420F001E
:103EC0002DE9F04F436893F8382085B00446002A66
:103ED00070D193F83A30002B6CD103681B68984777
:103EE0002368DB699847D0F800A0BAF1000F1CD016
:103EF000BAF1004F23D04FF01E080122B8F1000F95
:103F000007D002FA08F5AA4508F1FF3115D15FFA8A
:103F100088F847683B1F1C2B4FF0000612D9274931
:103F2000274800963346324605E026492648CDF814
:103F300000A05346524600F079FC8846DEE74FF079
:103F40001F08E6E71AF1FF30204D4FF0070946F150
:103F5000FF3109FA03F952463346C9FB050113F054
:103F600019FC656822680390C5E9006652688B46B3
:103F700090470122039B286202FA07F76568002137
:103F80000020013FC5E90A01C5E90C01C5E9037933
:103F90002046C5E9063BC5F808A085F83B802A877E
:103FA00085F83A60FFF77EFE204605B0BDE8F04F89
:103FB000FFF702BF05B0BDE8F08F00BF1691010802
:103FC00005010480FD9001080E01048040420F00AD
:103FD00038B505460C46FFF773FF00F0D5FA6B685D
:103FE0001C60BDE8384000F0E5BA70B5044600F04A
:103FF000CBFA2368DB689847636893F83A201AB1D4
:10400000BDE8704000F0D6BA012283F83920636819
:104010005B689BB12046FFF745FE63685A68D3E9A9
:104020000C61D2E90050AE42814107D3D16859609A
:104030001B68002BEBD090689847E8E76368002284
:1040400083F839202046FFF7B7FED9E72DE9F34181
:1040500005460C461E461746DDF8208000F094FA0F
:104060002846FFF71FFE6B68C4F80880C4E9007695
:104070005968002031B9E16078B95C602846FFF7E3
:104080009BFE10E04A6801920A689742019A76EB1B
:104090000202F0D30846C968ECE7D3E90C23BA4220
:1040A000B341C460EAD202B0BDE8F04100F082BA88
:1040B00038B505460C4600F067FA6A685368A342B3
:1040C00009D1DB6853602846FFF776FEBDE838402B
:1040D00000F070BA1346002BF8D0DA68A242F9D18A
:1040E000E268DA60F2E738B50446FFF7E9FE00F06F
:1040F0004BFA2046FFF7D6FD6368D3E90C4500F084
:1041000059FA2046294638BD7047000000487047DC
:1041100054910108024B1B680BB1024818477047C5
:10412000B00100205491010808B5BFF35F8F1D4B0B
:10413000D3F89010080A10F0FC0FC1F3072104D146
:1041400019491A483A2200F075F90022C3F8942060
:1041500010468A421FD11022C3F89C20144AC3F88B
:10416000A0201322C3F89C20124AC3F8A0201122D9
:10417000C3F89C20104AC3F8A020104AC3F89C2022
:104180000F4AC3F8A0200722C3F89420BFF34F8F33
:10419000BFF36F8F08BDC3F89820C3F8A0000132A9
:1041A000D7E700BF00ED00E080910108A29101086F
:1041B00039F00206390702133FF50B131200008095
:1041C00039000213024B1B6803B11847704700BF48
:1041D00020140020002070474FF0100300F00CB8AE
:1041E0004FF0200300F008B84FF0300300F004B89F
:1041F0004FF0400300F000B8EFF308804FF00401E7
:1042000072460A4201D0EFF309809C46254B19689B
:1042100002680A60043142680A60043182680A60F8
:104220000431C2680A600431F0C147460F600431AE
:104230004F460F60043157460F6004315F460F60F0
:10424000043102690A60083142690A6004318269F6
:104250000A600431C2690A600431034620334FF416
:104260000076324200D0043375464FF010063542D6
:1042700000D148330C46103C2360EFF309820A60FA
:104280000431EFF308820A60043172460A60043197
:10429000EFF314820A606046024B196800F07AF866
:1042A000FEE700006C930108F0B52C4E2C4F85B052
:1042B00000243546214656F8042B3846013400F0D8
:1042C00047F90D2CF6D1AB6C02936B6C01932B6C00
:1042D000244C0093D5E90E23696B234800F038F98C
:1042E0002168224800F034F9E16AA26AA36AA06A50
:1042F000266BE76B000CCDE901670090C3F3072341
:104300001B48D2B200F024F9A36A1E0603D5616BE4
:10431000184800F01DF9A36A180403D5A16B1648CC
:1043200000F016F9EB6C190712D5144800F010F9DB
:104330002B6DDA070FD5124800F00AF9EB6C5B071A
:104340004CBF1048104805B0BDE8F04000F000B97F
:104350000E4800F0FDF80E48EEE700BF24140020E0
:10436000AF91010800ED00E0BD9101080C92010839
:104370001A92010869920108779201088592010852
:1043800094920108C4920108D0920108B4920108E5
:10439000A192010813B50446154800F0D9F8302C55
:1043A00017D0402C1AD0202C1DD11248124C00F0EE
:1043B000CFF8124800F0CCF8FFF776FF104800F075
:1043C000C7F8104A104900230093D26B204600F032
:1043D0002DFA0E480E4C00F0BBF8EAE70D480E4CE3
:1043E00000F0B6F8E5E70D480D4C00F0B1F8E0E755
:1043F000DC920108059301083E01FF803293010819
:104400003D930108241400205C93010814930108D3
:104410003F01FF801D9301084001FF8028930108A0
:104420003D01FF800EF05CBC05F05EBF07F060B997
:1044300010F0E6B807B50B4600920146002201488D
:1044400000F0F4F94401FF8003460122D3E84F0F46
:10445000C3E8412FC0B20029F8D17047D0E85F3FD0
:104460005B18C0E8523F002AF8D198B27047D0E8F4
:104470005F3F5B1AC0E8523F002AF8D198B27047FC
:10448000D0E84F3FC0E8421FD8B2704700B589B0AE
:1044900000F07AF8052101A8FFF709FB114E124D33
:1044A0000424039B019A1A60304600F099FC019B9A
:1044B000049A1B041360304600F092FC013CF0D1DA
:1044C0000424039B019A1A60284600F089FC019B92
:1044D000049A1B041360284600F082FC013CF0D1D2
:1044E000DEE700BFF0490200801A060010B5014661
:1044F00004460022022000F03DFB00F045F8204673
:1045000011F09EFB21460246022000F033FBBDE87D
:10451000104000F04FB8000000B5A3B002460B46B3
:1045200001A884210EF078FB832806D9074B1A686E
:104530001B79CDF883208DF88730002802DD01A893
:10454000FFF7D4FF23B05DF804FB00BF70930108B0
:104550000FB407B504A951F8040B0191FFF7DCFF74
:1045600003B05DF804EB04B07047EFF31080C04374
:1045700000F001007047EFF30580003818BF0120FC
:104580007047FFF759BA000008B5FFF727FA064A47
:104590001368591C04D1054905483F22FFF74AFF1B
:1045A0000133136008BD00BF781400207593010823
:1045B000A0930108044A136823B1013B13600BB9AF
:1045C000FFF71EBA704700BF7814002008B50B48EB
:1045D000FFF73AFF28B1FFF7D7FFBFF34F8F20BF98
:1045E000FDE7FFF7C8FF08B1FFF750FFFFF7BDFF7A
:1045F0000028F9D0012000F0A5FB00BFEC1400203A
:10460000F0B5214B8FB016461C2210EA200738BFA8
:104610001F460D460DEB020000210EF011FF1B4B53
:1046200003955B690493DA6B05925A6B1B6B0692D8
:1046300001ACCDE90734CDE90176FFF7A5FF144AB7
:1046400013680133012B136009D126460FCE114D9B
:104650000FC50FCE0FC50FCE0FC533682B600FCC23
:104660000D4D0FC50FCC0FC50FCC0FC523682B60A8
:104670000A4B1B6813B1A5F130009847FFF79AFF6A
:1046800000200FB0F0BD00BF0101FF80BC02002080
:10469000E8140020B4140020801400207C140020B2
:1046A0002DE9FF41374C0E462168C1F34173032BBE
:1046B0000CBF4D428DB2C1F30743804617463248C6
:1046C0002A46FFF745FF6FF498731D44132D0FD84A
:1046D000DFE805F00A3E4144474D4A500E0E0E0EEB
:1046E0000E0E0E0E0E0E0E53A1682848FFF730FF77
:1046F0004046FFF7FBFE61682548FFF729FF4EB1F2
:104700002448FFF7F3FE3046FFF7F0FE2248394613
:10471000FFF71EFFA1682148FFF71AFFE268E3696F
:1047200051680293A369019363691D4800930029AE
:1047300008BF014623691B48FFF70AFF21681A4892
:10474000FFF706FF194804B0BDE8F041FFF700BFCE
:10475000A1681748CAE7A1681648C7E7A1681648C4
:10476000C4E7A1681548C1E7A1681548BEE7A1687C
:104770001448BBE7A1681448B8E71448FFF7E8FEFF
:10478000B6E700BF80140020DB9301082C940108D9
:10479000D4940108E5940108ED940108F19401080E
:1047A000D1930108059501085D950108AC950108B4
:1047B000429401085294010861940108749401081C
:1047C000889401089C940108AB940108C1940108E5
:1047D0000FB407B50D4801217546FFF751FE044699
:1047E00088B901462A460A48FFF70AFF09482246C7
:1047F0002146FFF755FF049805A90191FFF78CFEAC
:104800000548FFF773FEFFF7E1FE00BFED1400203F
:104810000001FF80C69501085A93010800207047E7
:10482000014B1878C0B27047ED14002080B50646E1
:104830000C460A480121F04617461D46FFF720FEA8
:1048400048B9424639463046FFF7DAFE029A294611
:104850002046FFF725FFFFF7B9FE00BFED1400204B
:1048600013B5074C01212046FFF7F8FD034628B990
:104870000090228803490448FFF7D8FF02B010BD1A
:10488000EE140020DB9501082301048013B5094CC8
:1048900001212046FFF7EBFD4FF6FF73984206D14A
:1048A00000230093228804490448FFF7BFFF02B0A9
:1048B00010BD00BFEE140020FD9501082401048006
:1048C000034B188880B2B0FA80F04009704700BFEF
:1048D000EE14002008B5FFF757FEFFF7F1FF28B1EF
:1048E00004F0CEF9BDE80840FFF764BE04F0BCF95F
:1048F000F8E76FF01C0070476FF01500704701205B
:104900007047002070477047034B186818B14FF08C
:10491000FF3101F023BA704794150020024B18684C
:1049200008B101F033BA704794150020F8B5074F6D
:1049300015460C468E18B44201D12846F8BD14F82D
:10494000011B384603F0E0F8F5E700BFB82F002060
:1049500038B511F001040D4605D0084804F042F8BE
:10496000041E18BF0124EB0605D5044804F050F8D6
:1049700008B144F01004204638BD00BFB82F002015
:1049800010B504460EF0A4F9204610BD10B510462F
:104990000C4622B1024803F0A5F82070012010BD9A
:1049A000B82F002038B51D46074B0360074B1B6826
:1049B000044633B9064804F089F80548294604F04E
:1049C0005FF8204638BD00BF64970108043000201E
:1049D000B82F0020002070470020704707B5002343
:1049E0000249034800931A46FFF720FF1B9601086F
:1049F0002901018008B5012000F0A4F9074A0849FF
:104A000013681844884289BF064B10600C224FF08F
:104A1000FF308CBF1A601846704700BFB4010020F9
:104A2000007C0120B4300020012070470120704735
:104A300008B500F033FA08BD08B500F037FA08BD34
:104A400010B50446037803F00303012B08D0FFF7E9
:104A50005BFF237803F00302012A03D1FFF75EFF17
:104A6000002010BD2AB10549054840F2E652FFF783
:104A7000E1FC43F0020323700120F2E725960108D0
:104A80005296010808B5037803F00302022A05D004
:104A90000749084840F2EF52FFF7CCFC23F003032C
:104AA00043F001030370BDE80840FFF737BF00BFC4
:104AB00025960108709601083F2870B504462DDC44
:104AC000174E56F820305A1C26D1022824DCFFF756
:104AD00083FF0346F0B92046FFF77CFF0346C8B9C1
:104AE000104D2B68BFF35B8FDB0712D42846FFF70E
:104AF000A7FF70B14FF41653032202210A48FFF7B3
:104B000051FF0A4A0A490848FFF78EFF2846FFF777
:104B1000B9FF054B46F82430184670BD0023FBE76B
:104B2000B8010020F0140020F414002098010020A7
:104B30000749000838B50446FFF7BEFF0B4B0025B8
:104B400043F8245030B907F0C1FE092303604FF049
:104B5000FF3038BD03685B699847041E04DA07F02C
:104B6000B5FE64420460F2E72846F2E7B80100208F
:104B7000FFF7E0BF38B50C461546FFF79DFF38B983
:104B800007F0A4FE092303604FF0FF34204638BD30
:104B900003682146DB682A469847041EF6DA07F0C8
:104BA00095FE64420460EFE773B505460E46144671
:104BB000FFF7E1FC30B100230E490F4800932A466D
:104BC000FFF734FEFFF7D1FC0028F4D0201E07DAEF
:104BD00007F07CFE162303604FF0FF3002B070BD7B
:104BE000FCD0024631462846FFF7C4FF40EAE07099
:104BF000F4E700BFA79601082F01018038B50C46E5
:104C00001546FFF759FF38B907F060FE0923036026
:104C10004FF0FF34204638BD036821469B682A4682
:104C20009847041EF6DA07F051FE64420460EFE78D
:104C300073B504460E461546FFF79DFC30B10023C0
:104C40000D490E4800932246FFF7F0FDFFF78DFC5B
:104C50000028F4D0002D07DB2A463146204602B05A
:104C6000BDE87040FFF7CABF07F030FE16230360AF
:104C70004FF0FF3002B070BDE19601082F010180B6
:104C800010B5FFF719FF30B907F020FE09230360C4
:104C90000024204610BD0368DB699847041EF8DA3B
:104CA00007F014FE64420460F2E7FFF7E9BF38B58D
:104CB0000C461546FFF700FF38B907F007FE092339
:104CC00003604FF0FF34204638BD036821461B695E
:104CD0002A469847041EF6DA07F0F8FD644204609D
:104CE000EFE7FFF7E4BF10B5FFF7E6FE30B907F0D6
:104CF000EDFD092303604FF0FF3010BD03689B6991
:104D00009847041E04DA07F0E1FD64420460F2E70C
:104D10000020F2E70A4D08B52B680446986810F0A9
:104D20008FFD2B68D86810F08BFD0120FFF7DBFFAB
:104D30000220FFF7D8FF0CB1FFF7A8FBFEE700BF8A
:104D4000EC08002008B5FFF7E5FF38B50D46FFF782
:104D5000B3FE044630B907F0B9FD092303604FF0F4
:104D6000FF3038BD0368DB69984700280CBF4FF45B
:104D700000434FF400536B60236820469B6A9847BA
:104D800028610020EDE7FFF7E0BF000013B50446FF
:104D90000DF096FF034628B90090034903482246C8
:104DA000FFF744FD02B010BD1D9701081F010180EF
:104DB00013B504460DF084FF034628B9009003495B
:104DC00003482246FFF732FD02B010BD3A970108B2
:104DD0001F0101800DF07CBF0DF07ABF0DF078BF90
:104DE000034A516A536A5B1A8342FBD3704700BF80
:104DF000000C004008B5094B094A1A60094B9B1A80
:104E0000094A1360094B0A4A1A600A4B9B1A0A4A5C
:104E1000136000F051F800F07DF800BF6415002029
:104E2000007C01200080012060150020FC1400207F
:104E3000F8310020007C0120F81400200E4838B51D
:104E40000E4B03600B250E4B45601C24C460836031
:104E500000F06CFF0B4B18600B480C4BC460C0E9B2
:104E600000350B4B836000F061FF0A4B1860BDE812
:104E700038400EF05DBB00BF30150020B897010828
:104E8000401500205C15002000150020C597010882
:104E9000101500202C150020FDF740B8024B4FF0F4
:104EA000FF31186800F05ABF5C150020014B1868EC
:104EB00000F06CBF5C15002008B5FFF735F90C4B0E
:104EC0000C4998684FF00053C21802F16042126812
:104ED00043F8042B8B42F7D1054B4FF000529A60F8
:104EE00003F0F2F803F0A4FFBDE8084000F010B8AA
:104EF00000ED00E094010020704708B5FFF79EFF29
:104F0000FFF7FAFFFFF78AFCBDE80840FFF7C4BFD0
:104F100000F040BA07B51748174B03600B234360F6
:104F20001C23164CC360164B8360164B23614FF451
:104F3000805363614423E360134BA3601823A36190
:104F4000124B236000F0F2FE114B22461860002144
:104F5000104801F0FDFA034628B90F490090224697
:104F60000E48FFF763FC00F02DFA00230C49009374
:104F70001A46F5E768150020CF970108E0250020C4
:104F800078150020E015002098150020DF97010813
:104F900094150020FB4E0008E49701081D010180D4
:104FA0000098010873B506460C461546FFF738FC15
:104FB00058B906342ABF064B064953F8241000237B
:104FC000009332462846FFF731FC02B070BD00BFA7
:104FD000C89901081D99010808B500F071F8000092
:104FE00007B50023411E009302460023042919D867
:104FF000DFE801F003080C1014000C490C480122F2
:10500000FFF714FC0B490C480222F9E70B490C4846
:105010000322F5E70B490C480422F1E70B490C4841
:105020000522EDE70B490C48EAE700BF1598010897
:105030002501028036980108260102805B9801084C
:10504000270102809098010828010280CB9801086E
:105050002A0102800B99010800010280014A0146E1
:10506000FFF7A0BF31010180014AFFF79BBF00BFDE
:1050700032010180014AFFF795BF00BF3301018073
:10508000014AFFF78FBF00BF3801018010B501F062
:1050900077FA034B1B6813B1BDE81040184710BDE9
:1050A0000426002008B5FFF76FFAFFF7D9FBFFF7DA
:1050B00011FCFFF7EBFBBDE80840FFF77BBA0000EF
:1050C00008B5024C23689847FCE700BFB8020020EF
:1050D0001EF0040F0CBFEFF30880EFF30980816925
:1050E00011F8021C91BB01B590E80F10E047BDE834
:1050F00000508CE80300244B93E80600914208BF5F
:10510000704741B91EF0100F10D12049086820F0F7
:10511000010008600AE02CE9F00F1EF0100F08BF34
:105120002CED108AC1F838C081F822E01A6092F89C
:105130002210906B61F0FF0E1EF0100F08BFB0EC54
:10514000108AB0E8F00F80F309887047104A13689E
:105150009942FAD801B552F821C00FC8E047BDE81E
:105160000050CCF80000704701B500F06DFEBDE8BE
:105170000140EFF3098CBEE701B500F02DFEBDE85C
:105180000140EFF3098CB6E7D002002034EF00E0D5
:105190008C9A0108EFF310832BB9EFF311800038DC
:1051A00018BF0120704701207047000070B5484CBF
:1051B000217A012900F08A8031B14FF0FF30FFF7EA
:1051C0004DFF4FF0FF3070BD424D9C2204F10800AE
:1051D0000EF036F9D5E90B61EB68E3652B8AA4F88C
:1051E00054303046AB68236400F002F908B1C4F8CB
:1051F0008060D5E90561304600F0FAF808B9D4F8C6
:1052000080606667D5E90761304600F0F1F808B9BB
:10521000D4F88060A667D5E90961304600F0E8F867
:1052200008B9D4F88060E6676E6B3EB1D6E9022318
:105230003168304600F046F9C4F88460AE6B3EB188
:10524000D6E902233168304600F03CF9C4F88860A2
:10525000EE6B3EB1D6E902233168304600F032F9F8
:10526000C4F88C602E6C3EB1D6E90223316830461A
:1052700000F028F9C4F890606E6C3EB1D6E90223C4
:105280003168304600F01EF9C4F89460AE6C3EB14F
:10529000D6E902233168304600F014F9C4F898606A
:1052A000EE6C3EB1D6E902233168304600F00AF9CF
:1052B000C4F89C602D6D3DB1D5E9022329682846CC
:1052C00000F000F9C4F8A0500123237200207AE70F
:1052D000BC020020249A010870B5284C237A012BC7
:1052E00007D06FF00600FFF7B9FE4FF0FF352846F4
:1052F00070BD01F00DF910B94FF0FF30F3E7204A0F
:10530000FF2382F8223092F8223063F0FF03DB4360
:1053100004D1D268C2F30222531C08E0D268B3FA67
:1053200083F3C3F12003C2F302229342F4D9FE2295
:1053300002FA03F3134E124A13497068DBB2D377B3
:1053400001F096F905460028D6D101F0C9F920618F
:1053500001F0AEF90D4800F0B7FE00F017FF33681A
:1053600013F0010F4FF0020303D083F3148823726C
:10537000BDE7032282F31488F9E700BFBC020020D6
:1053800000ED00E0249A010879510008D8020020BD
:105390007047000008B5FFF7FBFFEFF3058333B15B
:1053A0006FF00500FFF75AFE6FF0050008BDFFF72C
:1053B000F1FE0028F4D1DFF808C000DFF6E700BFF7
:1053C000AD51000808B5EFF3058333B16FF0050068
:1053D000FFF744FE6FF0050008BDFFF7DBFE002875
:1053E000F4D1DFF808C000DFF6E700BFD9520008AB
:1053F00010B5034688B1084310F007000DD11729F6
:105400000AD9196008391022CC189C605A6058508B
:1054100099684A60D860012010BD0020FCE770B593
:10542000034668B361B3032A2AD80F3121F0070677
:1054300000F10804214624684D68601A25F0030530
:10544000401B864203D920680028F3D170BD5D68F7
:10545000186835445D600344083B5868854288BF3E
:105460005D604B6832431BB94A6001F10800EDE70B
:1054700023F00303C818CC50426008600830E5E709
:105480000020E3E710B5034680B1C9B1A1F10804DB
:1054900000F108020021A24209D1506820F0030463
:1054A0005868001B586041B95160012010BD106858
:1054B00011460028FAD00246EDE713680B60F4E7C6
:1054C0000846F3E730B5C0B189B1C2B1CBB1002411
:1054D000C0E9014202FB01F41D190160C360436190
:1054E00005611846013904D1A41A19510121084651
:1054F00030BD851805602846F4E70146F7E71146F8
:10550000F5E71946F3E710B5034608B9002010BDCA
:1055100000F1140252E8000F10B9BFF32F8F04E01E
:10552000016842E8001404B1F4E70028EED0043327
:1055300053E8002F511C43E8001404B1F8E7E6E7F4
:1055400030B5F0B1C3688B421BD803698B4218D9C0
:1055500000F114031A680A60BFF35F8F53E8002F4D
:105560000C689442F6D143E8001505B1F2E7043027
:1055700050E8003F5A1E40E8002101B1F8E7002042
:1055800030BD6FF00300FBE7EFF310832BB9EFF3AF
:105590001180003818BF0120704701207047D1E901
:1055A000013223B19A608A681AB153607047C262AF
:1055B000F9E70363704700002DE9F84F8846074676
:1055C00000B141B96FF003010020FFF759FD00243D
:1055D0002046BDE8F88FCE1C26F003060C36B0FA44
:1055E00080F104D0B6FA86F30B441F2BEADD06FBEC
:1055F00007F9002A5DD09468D2F800A0D2E90453DC
:1056000014B3A1071DD1D268332A1AD9002D34D181
:10561000FBB99B46324B0022D86F4946FFF7FFFE8D
:105620000546002854D1BBF1000F07D02C4BD3F80E
:10563000A0002146002846D0FFF782FF6FF004014A
:10564000C2E76FF00801BFE7D268002AF9D11DB99F
:1056500033B16FF00901B7E7AA07FAD19945F8D835
:105660001F4BD3F8A00038B3FFF74DFF04460028C6
:10567000E4D04FF0010B2DB9CCE715F0030BE8D1C6
:105680009945E6D8FA2323700023C4E90983C4E9C5
:105690000B33A36032462B4684F802B0C4F804A052
:1056A000394604F10C00FFF70DFF0D4B0D4A1A6748
:1056B0008EE792461546D3E7D3F8800001223421C5
:1056C000FFF7ADFED2E7D3F88000FFF7DBFEB5E7CA
:1056D0004A4600210DF0B4FE4BF0020BD2E700BFAA
:1056E000BC0200207557000810B500F1280353E8EC
:1056F000002F12B9BFF32F8F04E0511E43E80014AE
:1057000004B1F4E70AB9002010BDC06A01220028E4
:10571000F9D0811CD1E84F3FC1E8442F04B1F9E72B
:10572000DBB2002BF0D08068F1E7036B30B5E3B15A
:10573000CD780024DA78AA420FD31A46C1E90124B1
:105740008AB19160A4B16160283050E8003F5A1CD2
:1057500040E8002101B1F8E730BD5A681C46002A34
:10576000ECD01346E6E7C162ECE7C1E90133C16260
:105770000163E9E7F8B5877804468FB3C568014649
:1057800000272846FFF70BFF277005F10C04204681
:10579000FFF7D6FEAB68002B48D02046FFF7B3FEDC
:1057A0000446002842D0284600F08EFC3A460646C1
:1057B000394600F021FD304600F0CAFC6A6A816873
:1057C000064604F10C0010F093F9F9232370A7703A
:1057D000F368E37021462846BDE8F840FFF7A5BF0F
:1057E0008568AB68002BF5D05B78832BF2D1284617
:1057F00000F06AFC3A460646394600F0FDFC3046A9
:1058000000F0A6FC06466A6A806804F10C0110F0FC
:105810006FF9F3680BB1E2781A7000232370214608
:1058200005F10C00BDE8F840FFF78ABEF8BD0000A6
:105830002DE9F0410E4617469846044618B1037804
:10584000FA2B00D141B920466FF00301FFF718FC95
:105850006FF00300BDE8F0818368BBB15B78832BF8
:1058600014D100F031FC01220546002100F0C4FCF7
:10587000284600F06DFC0546626A8068314610F0EB
:1058800037F9EB6803B11F700020E3E704F10C0067
:10589000FFF739FE054670B13146626A0C3010F0F0
:1058A00027F9F9232B700023AB70EF7029462046AF
:1058B000FFF73BFFE8E7B8F1000F11D04146932016
:1058C00000F0B4FD10B96FF00100C3E7064B2046AD
:1058D000596900F0E7FBEFF30983C3E90267F2E7D8
:1058E0006FF00200B6E700BFBC0200202DE9F041D6
:1058F0000F4616469846044618B10378FA2B00D195
:1059000041B920466FF00301FFF7BAFB6FF00300C7
:10591000BDE8F081FFF7E8FE054600283AD00146D1
:105920002046FFF73CFE626A05F10C01384610F094
:10593000DFF80EB1EB783370002704F10C062F70FE
:1059400029463046FFF7FCFDA3680BB90020DFE7CE
:105950003046FFF7D8FD05460028F7D0204600F076
:10596000B3FB39460646012200F046FC304600F003
:10597000EFFB626A8168064605F10C0010F0B8F88A
:10598000F9232B70AF70F368EB7029462046FFF7C0
:10599000CCFEDBE7B8F1000F11D04146832000F0C8
:1059A00045FD10B96FF00100B2E7064B204659697A
:1059B00000F078FBEFF30983C3E90276F2E76FF0BA
:1059C0000200A5E7BC02002010B50446EFF30583F2
:1059D00033B100206FF00501FFF752FB002010BD2E
:1059E000FFF7D2FD0028F4D1DFF808C0204600DF21
:1059F000F5E700BFB95500082DE9F04106460F460E
:105A000090461C46EFF305834BB196B930466FF0D4
:105A10000301FFF735FB6FF00300BDE8F081FFF7EE
:105A2000B3FD0028F1D1DFF84CC03046234600DF3B
:105A3000F3E73378FA2BE9D1002FE7D0002CE5D13A
:105A400006F10C00FFF75FFD054680B1726A39462A
:105A50000C3010F04DF8F9232846C5E901762B707B
:105A6000AC7085F8038000F037FA2046D5E76FF078
:105A70000200D2E731580008F8B504460F46164632
:105A80001D46EFF3058343B18CB920466FF0030147
:105A9000FFF7F6FA6FF00300F8BDFFF775FD002879
:105AA000F2D1DFF848C020462B4600DFF4E7237828
:105AB000FA2BEAD1002FE8D0002DE6D12046FFF7DF
:105AC00013FE054670B100F10C01626A384610F011
:105AD0000FF80EB1EB7833702846EC6000F0FCF95B
