:020000040800F2
:1000000000800120E965000835660008453F0008CA
:100010004D3F0008553F00085D3F0008000000000C
:100020000000000000000000000000003D4E00083D
:100030003566000800000000D54E0008E54E0008B7
:100040003566000835660008356600083566000824
:100050003566000835660008356600083566000814
:100060003566000835660008356600083566000804
:1000700035660008356600083566000835660008F4
:100080003566000835660008356600080000000087
:1000900000000000000000000000000035660008BD
:1000A00035660008356600083566000835660008C4
:1000B00035660008356600083566000835660008B4
:1000C00035660008356600083566000835660008A4
:1000D0003566000835660008356600080000000037
:1000E0003566000835660008356600080000000027
:1000F000000000000000000000000000356600085D
:100100000000000035660008356600083566000806
:1001100000000000000000000000000000000000DF
:100120003566000835660008356600083566000843
:10013000356600080000000000000000000000001C
:10014000000000000000000000000000356600080C
:100150003566000835660008356600083566000813
:100160003566000835660008000000000000000049
:10017000000000000000000000000000000000007F
:1001800000000000356600080000000000000000CC
:10019000356600080348044B834202D0034B03B189
:1001A00018477047400A0020400A00200000000065
:1001B0000548064B1B1AD90F01EBA301491002D0C9
:1001C000034B03B118477047400A0020400A002043
:1001D0000000000010B5064C237843B9FFF7DAFFA2
:1001E000044B13B10448AFF300800123237010BD0A
:1001F000400A002000000000CC11020808B5054BA1
:100200001BB105490548AFF30080BDE80840FFF782
:10021000CFBF00BF00000000440A0020CC1102083C
:10022000A3F5803A704700BF174B002B08BF134B54
:100230009D46FFF7F5FF00218B460F461348144AF1
:10024000121A12F0B1FF0E4B002B00D098470D4B45
:10025000002B00D098470020002104000D000D481D
:10026000002802D00C4804F097FA13F015F820008B
:10027000290004F0C7FC04F01BFC00BF00000800CC
:1002800000000000614B000800800120400A0020AF
:10029000F83100209947000800000000F0B5002365
:1002A00084681D4601269C4200D1F0BD426852F888
:1002B0002320916857680131B942916024BF1673B9
:1002C00095600133EFE7034607C983E807007047ED
:1002D000704710B4426881685410034601EB620015
:1002E000D20748BF0A591B685DF8044B48BFD35872
:1002F0001847027B22B103680022DB6802731847AB
:1003000070470000034AC0E90021002282600273A6
:10031000704700BF0C8801087047C36810B50446D9
:100320000BB19B689847204610BD000038B50546C4
:10033000064B45F8283B044602F00BFF2846FFF722
:10034000ECFF204603F012F8204638BDD48C01089B
:1003500038B50546054B45F8103B0446284602F0E3
:10036000F8FE2846FFF7E2FF204638BD2488010842
:1003700010B50446FFF7ECFF2046502104F0E2FBE5
:10038000204610BD10B50446FFF7D0FF204640219F
:1003900004F0D8FB204610BD70B52DED028B08EEA1
:1003A000103A1A4B826000F1100588B0C0E90031A4
:1003B0000446284602F050FE1022154B154E0093BD
:1003C0000DEB02000021CDE90114039612F0ECFEC2
:1003D000694604A8FFF777FFDFED0F7A079668EE0E
:1003E000277A17EE900A17F0C5F802460B46284602
:1003F00004A902F092FE04A8FFF78FFF6846FFF7FA
:100400008CFF204608B0BDEC028B70BD248801082B
:100410009D0200082C880108002474497047034697
:1004200007C983E807007047704710B442688168C5
:100430005410034601EB6200D20748BF0A591B68FB
:100440005DF8044B48BFD358184710B54FF4887176
:10045000044604F077FB204610BD70B5044604B98D
:1004600070BDE068FFF7F9FF636BA56804F1100643
:1004700004F128000BB19B689847304608F02CFD2A
:100480002046382104F05EFB2C46E8E710B5064B09
:1004900003600446D0F84003FFF7DFFF2046FFF774
:1004A0003BFF204610BD00BFCC88010810B50446B4
:1004B000FFF7ECFF20464FF4547104F043FB204655
:1004C00010BD000000F1080373B5044603600D463B
:1004D00011B90F4808F0A8FC084615F071FA0F286A
:1004E00005EB0006019007D9002201A9204608F07B
:1004F000CBFC019B2060A36032462946206808F0AF
:10050000FDFC019B226863600021D15402B070BDE4
:100510003888010838B5044672B6FF25206902F014
:1005200070FC78B3D4F81831D4F81C110133B3FB44
:10053000F5F2C2EB02229B1A8B4223D0206902F013
:1005400097FBD4F81831D4F81C110133B3FBF5F242
:10055000C2EB02229B1A8B42E0D0D4F8183123441C
:10056000C0B21876D4F818310133B3FBF5F2C2EB00
:1005700002229B1AC4F81831D4F820310133C4F890
:100580002031CBE762B638BDD0F8081110B5013183
:10059000D0F804410346FF22B1FBF2F0C0EB00208B
:1005A000091AA14214D0D3F808110131B1FBF2F2BB
:1005B000C2EB0222891AC3F80811D3F808211A44A1
:1005C0001079D3F80C21013AC0B2C3F80C2110BD48
:1005D0000020FCE72DE9F043D0F81C31D0F81811C9
:1005E0000133FF22B3FBF2F2C2EB02229B1A8B42D1
:1005F000ADF5097D04460BD01430FFF7C5FF232865
:10060000064609D184F8340204F23523C4F83433A1
:100610000DF5097DBDE8F083D4F8343304F54D724F
:100620009342F5D00A286DD113F8032C3B2A69D1E7
:1006300013F8022C3B2A65D113F8013C0D2B61D134
:1006400004F50D78334908AB01AA40460BF0E4FDF0
:10065000022855D101A948A8FFF734FF04F54F79C6
:10066000D4F840734D468FBBA94508D005F1100161
:1006700048A808F04DFC35EA200528BF4D4648A89B
:1006800008F02AFCA9453BD0234B48AA03F1100CE3
:1006900018685968174603C7083363453A46F7D1C7
:1006A0001B883B80EE2200210DF5997012F07CFD35
:1006B00002A848A9FFF706FF6B6B05F1280093B964
:1006C0001649174840F23B2203F06AFD07F110007B
:1006D00048A908F01DFCD7E902230028AABF3D461F
:1006E0001F461746BFE71B6848AA08A998470D4947
:1006F000206948AB01AA02F023FB02A808F0ECFB3A
:10070000C4F83483D4F834331E70D4F8343301334E
:100710007CE700BF6A880108A18801087488010885
:10072000938801089888010800F10803F7B5036071
:10073000D1E900630F2B04460D4606EB0307019336
:1007400006D9002201A908F09FFB019B2060A3604D
:1007500020683A46314608F0C7FB2346019A53F811
:10076000180B6260002181541022184612F01CFD03
:100770006A6A1AB1526805F1180190476B6A6362A0
:10078000204603B0F0BD2DE9F041054638200E4665
:1007900004F0B2F905F1100104461030FFF7C4FF70
:1007A0002B78E86823700023C4E90233666018B12F
:1007B0002146FFF7E8FFE060AE6827464FF00008EB
:1007C00016B92046BDE8F081382004F095F906F10D
:1007D000100105461030FFF7A7FF33782B70C5E9ED
:1007E0000288BD606F60F06818B12946FFF7CBFF43
:1007F000E860B6682F46E3E72DE9FF4104460D4661
:1008000000211646DFF8CC80FFF77CFD2E4B2360DD
:100810002561FF2200250021FE27C4F8148004F181
:10082000180012F0C1FCC4F81851FF22C4F81C7162
:100830002946C4F82051C4F8248104F5947012F0BC
:10084000B3FC04F50D73C4F828522946C4F82C7281
:100850004FF48072C4F83052184612F0A5FC04F52B
:100860004F71C4E9D051C4F83403B06884F83C53E4
:10087000C4E9D215A0B1FFF786FF03461A469B686C
:10088000002BFBD1C4F8442303461A46DB68002B37
:10089000FBD17369C4F84823C4F84C33C4F840034F
:1008A0000A4B009300220A4B206903936946CDE965
:1008B000012402F03FFB039B13B19B6868469847F5
:1008C000204604B0BDE8F081CC8801081505000879
:1008D000DC880108BC88010843691A6803691A4268
:1008E00016BFC26982691B041360704710B5034BC1
:1008F00003600446FFF710FD204610BDF088010894
:1009000010B50446FFF7F2FF20462C2104F01AF937
:10091000204610BD82B070B5064604AC84E80C00D9
:100920003446FFF7EFFC04AD084B44F8103B0FCD05
:100930000FC495E8070084E807003046B3693269C0
:100940001A60BDE8704002B0704700BFF08801082F
:1009500010B5034B03600446FFF7DEFC204610BDD4
:100960002C89010810B50446FFF7F2FF2046182134
:1009700004F0E8F8204610BD437B10B504466BB187
:10098000006903685B68984716F016F902460B4643
:1009900060690349BDE8104002F0D2B910BD00BF44
:1009A0000089010870B504461D461646FFF7AAFCEB
:1009B000034B23600023C4E904656373204670BDC4
:1009C0002C89010837B5002305461446084601AABC
:1009D0000A4901930BF020FC01280CD1019B084926
:1009E000002BD4BF002301236B73204603B0BDE866
:1009F000304012F043BF0349F7E700BF8E92010871
:100A00000C890108128901088068704707EE901A66
:100A100090ED0A7AB4EEE77AF1EE10FA09D890ED8B
:100A20000B7AB4EEE77AF1EE10FAACBF01200020A9
:100A300070470020704710B519460446104616F05E
:100A40000BFC014604F10C00BDE8104002F0DDB8DB
:100A500090ED027A07EE901AB4EE677AF1EE10FA92
:100A600010B518BFC0ED027A0446084616F0A4F887
:100A700009A3D3E9002316F0F7F809A3D3E900236B
:100A800015F03CFF16F0E8FB014604F10C00BDE850
:100A9000104002F0BAB800BF40BD19355F254F3F86
:100AA000DD2406819543B33FF8B5044600F10C05FB
:100AB00017461E46094A02600023436083602846A9
:100AC00002F071F82846A762E662142102F07AF873
:100AD0002846034902F099F82046F8BD44890108E8
:100AE000AC1C9A3D10B5044B044640F80C3B02F098
:100AF000A5F8204610BD00BF4489010807EE901AF2
:100B000090ED167AB4EEE77AF1EE10FA09D890ED8E
:100B1000177AB4EEE77AF1EE10FAACBF01200020AC
:100B200070470020704707EE901AF5EEC07AF1EE9C
:100B300010FA036A0CD5C26A1B041360436CC26BC3
:100B40001A60F0EEE77A17EE901A043002F05DB802
:100B5000826A1360C36B826C1B041360F1E7036A43
:100B6000C26A1B041360C36B826C1B0413600021F8
:100B7000043002F04AB800002DE9F04105461E4657
:100B8000144B45F8043B0446284617464FF01C0812
:100B900002F009F804F1200342461846002112F041
:100BA00003FB394602F039FE04F13C034246184685
:100BB000002112F0F9FA314602F02FFE069BA365E0
:100BC000079BE3652846C82102F009F82046BDE8E6
:100BD000F08100BF5C89010810B5044B044640F861
:100BE000043B02F02BF8204610BD00BF5C890108D1
:100BF000704710B50446006810B10368DB68984779
:100C0000204610BD014B586A00B2704700080040F2
:100C1000014B00225A6270470008004010B50421C1
:100C2000044603F08FFF204610BD0000184A136BE6
:100C300043F002031363174B196841F42041196014
:100C4000596841F0C0015960996841F47041996058
:100C5000D96841F42041D960196A41F008511962FC
:100C6000596A5962136C43F0040313640A4B01225E
:100C70001A6003229A604FF2F1129A611121002248
:100C8000DA6119624FF6FF719A62D9625A6270474F
:100C900000380240000402400008004038B5074D0B
:100CA0002B684BB9042003F027FF054B0360286035
:100CB000FFF7BCFF034B1860286838BD600A0020AE
:100CC000708901085C0A0020024A0349034803F0C6
:100CD00061BD00BF98010020F30B00085C0A0020F2
:100CE0000020704710B50446406803681B689847A9
:100CF000237E20814BB115F04DFF02460B46D4E90F
:100D0000040115F0FBFDC4E9040160680368BDE857
:100D100010405B681847B0F908007047B0F9083018
:100D200007EE103A038C07EE903AB8EEC77AF8EE69
:100D3000E77AC7EE276AD0ED077AC6EEA77A17EEF4
:100D4000900A704708B5D0E9040116F085FA08BD8D
:100D500000230022C0E90423012303767047002307
:100D60000022C0E9042300230376704713B504462C
:100D7000FFF7B8FFB4F90830A06F07EE903A0368A8
:100D8000F8EEE77A01A9CDED017A1B68984707EEE6
:100D9000900AFDEEE77A17EE903A18B215F0FAFED7
:100DA000C4E91C0102B010BD08B5D0E91C0116F061
:100DB0000BFA00B208BDA0F16800FFF7F5BFD0B58F
:100DC0000446008C15F0E6FE02460B46D4E91C01F1
:100DD00016F074F80646E0690F4615F0EDFE02467F
:100DE0000B463046394616F069F816F035FAD0BD94
:100DF000A0F16800FFF7E3BF034607C983E80700D7
:100E00007047704710B4426881685410034601EB84
:100E10006200D20748BF0A591B685DF8044B48BFFF
:100E2000D3581847D0B504460B482384C4E90002C0
:100E300000260022002722812276E161C4E90467AE
:100E400002F0EEFC014604F1280002F01DF9034B0C
:100E5000A3622046D0BD00BF9C8901088889010893
:100E600010B50446FFF7DEFF034B23602C33A36667
:100E7000029BA367204610BDC089010810B5034B33
:100E800003600446FFF752FA204610BD8889010826
:100E900010B50446FFF7F2FF2046402103F052FE52
:100EA000204610BD30B52DED028B012389B01822EC
:100EB000CDE90023102290ED078A134D02900446DD
:100EC00000210DEB0200039512F06EF9694604A8AB
:100ED000FFF792FFDFED0D7A079568EE277A17EEA0
:100EE000900A16F047FB02460B4604F1280004A9BD
:100EF00002F013F904A8FFF710FA6846FFF70DFA9D
:100F000009B0BDEC028B30BDF4890108002474499E
:100F1000034607C983E807007047704710B442686A
:100F200081685410034601EB6200D20748BF0A599A
:100F30001B685DF8044B48BFD358184738B500F11B
:100F400070050446284602F09BF9DFED097A07EEAA
:100F5000100AB4EEE77AF1EE10FA02DD284602F04C
:100F60009FF9284602F088F9C4F8D80038BD00BFC0
:100F70000000164413B50DF1080C0CE90C00019BA0
:100F80000260C0E90131024BC36002B010BD00BF76
:100F9000008A0108F0B5044687B00D4617460021C7
:100FA0001C221E4612F000F92946204604F11C05B9
:100FB00002F033FC3946284601F02AFD04F17000A6
:100FC00002F07FF904F1900002F046F81B4BC4F8E0
:100FD00090300C9BC4F8D460C4F8E83003F08AF970
:100FE0000027174B009301976E4696E80C002146A8
:100FF00002A8FFF7BFFF02A9284601F074FD02A86E
:10100000FFF78BF903F08CF903F074F90D4BCDE980
:101010000037214696E80C0002A8FFF7ABFF02A9B3
:10102000284601F087FD02A8FFF777F903F078F969
:10103000284601F019FD204607B0F0BDE88C0108F4
:101040003D0F0008B910000830B58BB006AC84E83D
:101050000C000546684680E80C0094E80C0002A8E5
:10106000FFF788FF10220021204612F09DF8059B13
:101070001BB15B6802A9204698479DED0E7ADFED13
:101080000C7A059B099367EE277A17EE900A16F003
:1010900071FA02460B462846214602F03EF82046E9
:1010A000FFF73BF902A8FFF738F90BB030BD00BFDE
:1010B000002474490000000030B5044685B070304B
:1010C00002F0DAF80123C4F8E030D4F8D830C4F8DC
:1010D000DC00C01A15F05EFD13A3D3E9002315F060
:1010E000C3FD0F4B002215F0BFFD16F0B5F804F15B
:1010F0009005C4F8D000284602F02BF8094B029363
:1011000000230393D4F8D430009304AB13E90C000C
:1011100021462846FFF798FF05B030BDAFF30080A9
:101120000000E03F3111000837FDD98F1491A13F35
:1011300030B5044600F1900585B0284602F009F864
:10114000A36822681A600A2003F000FD2368E268A1
:101150001B041360074B029300230393D4F8E83079
:10116000009304AB13E90C0021462846FFF76CFFFF
:1011700005B030BD3111000803624FF42063838451
:101180004FF07C5383624FF03F43C362084B0363CD
:10119000084B436310B5084B8363029BC363039BF7
:1011A0000364049B4364059B8364C0E9001210BD83
:1011B000000020410000F04100009643C0E90223F6
:1011C0007047C0E9042300680368DB681847D0E96A
:1011D00006017047406803685B681847F8B5044625
:1011E000006803689B68984715F0E6FCD4E904455D
:1011F00006460F46002200232046294615F0C4FF6C
:1012000030B132463B462046294615F0B3FF90B92F
:10121000002200232046294615F098FF68B1324687
:101220003B462046294615F09BFF002814BF0120AD
:101230004FF0FF30F8BD0120FCE74FF0FF30F9E739
:10124000006803681B6918472DE9F041066A80466B
:1012500014461D4666B11046194615F0FDFF336869
:1012600001461B683046984715F0A6FC04460D461B
:10127000D8F82C0015F0A0FC22462B4606460F4657
:1012800015F082FF58B198F824300133DBB23446B0
:101290003D4688F8243020462946BDE8F081D8F83C
:1012A000280015F089FC22462B4606460F4615F00D
:1012B0004DFF0028E7D10023EBE72DE9F04304467A
:1012C00000682DED028B036883B05B68984708EED9
:1012D000100A206803685B699847D4ED0E7AF0EE37
:1012E000C88AF4EEE87AF1EE10FA05460CD5002231
:1012F0000023C4E90223C4E906234FF0FF3003B002
:10130000BDEC028BBDE8F083D4E90289206B29F0A3
:10131000004715F051FC42463B46464615F034FF67
:1013200060B1D4ED0D7AF4EEE87AF1EE10FA05DD55
:1013300000220023C4E906230120E0E7002D39D074
:101340003046394615F088FF07EE900A666877EE5A
:10135000C87A336817EE900A1F6815F02DFCCDE9A6
:10136000000169463046B84715F076FF15F024FCB9
:1013700002460B462046FFF767FF15F06DFF94F815
:10138000242094F825309A4217D9B5EE408AF1EE20
:1013900010FA12D1606803685B6898470023002246
:1013A000C4E90223C4E90623002384F824306FF043
:1013B0000100A4E740464946C4E715F0FDFB064698
:1013C0000F46C4E90667D4E902010022002315F0A4
:1013D000BDFE0028B0D0002DAED007F10043A661BD
:1013E000E361A9E770B514461D460646406C15F04A
:1013F000E3FB22462B4615F0B3FE48B1B06C15F066
:10140000DBFB22462B4615F0B5FE003818BF012045
:1014100070BD70B514461D460646C06B15F0CCFB7A
:1014200022462B4615F09CFE48B1306C15F0C4FBEB
:1014300022462B4615F09EFE003818BF012070BDD5
:1014400010B501600349416203498162C2620363CE
:1014500010BD00BF0000F0410000F0C1C0E9022350
:10146000704708B5006A15F0A7FB08BD0000000032
:1014700073B505682B6804461E68D0E90623D0E9D9
:10148000020115F039FA15F0E7FE15F095FBCDE9EC
:10149000000169462846B04715F0DEFE15F08CFBCA
:1014A00011A3D3E9002315F0DFFB11A3D3E9002337
:1014B00015F024FA15F0D0FED4ED0B7A07EE100AE1
:1014C000F4EEC77AF1EE10FA08DCD4ED0C7AF4EE03
:1014D000C77AF1EE10FA58BFF0EE477A0120C4ED5A
:1014E000087A02B070BD00BF40BD19355F254F3F7F
:1014F000DD2406819543B33FC0E9062370470346C8
:1015000007C983E807007047704710B442688168D4
:101510005410034601EB6200D20748BF0A591B680A
:101520005DF8044B48BFD3581847000070B5037EE0
:10153000022B04463BD0032B40D0012B1AD1437E13
:10154000C3B1C069B0B1236AA3B1FFF7B6FE0546C7
:10155000206AFFF78DFF6A1C0DD12E49606801F0EB
:10156000EFFBA06803685B689847E069FFF732FE0D
:101570000223237670BD023501D12749EEE7A56825
:10158000E0692B681E68FFF722FE15F065FE014634
:101590002846B047E568206A2B689E68FFF761FF20
:1015A00002460B4628463146BDE870400847C069F0
:1015B0000028DFD0BDE87040FFF70CBEC0690028EE
:1015C000D8D0FFF77AFE431C01D11449C6E7023098
:1015D00001D11349C2E7E069FFF700FE01300BD1EA
:1015E0001049606801F0ACFBA06803685B6898472D
:1015F000E069FFF725FEB8E7A568E0692B681E687B
:10160000FFF7E5FD15F028FE334601462846BDE804
:10161000704018470C8A01083A8A01084F8A01086D
:101620007D8A0108928A010810B504460C48A3601F
:10163000039BE360029B236101236376049BE361C8
:10164000059B2362C4E90002616102F0E9F80146EA
:1016500004F1280001F018FD024BA362204610BDE2
:10166000A08B01088889010837B50446154608464D
:1016700001AA26490AF0D0FD012845D1637E0199CF
:101680008BB19DED017ADFED227A67EE277A17EEB6
:10169000900A15F091FA02460B46E069FFF7A2FEA8
:1016A00080B91C4905E0A06803689B68984730B979
:1016B0001949284603B0BDE8304012F0DFB8637E18
:1016C000002BDED1237E032B02D1E069FFF7B8FDAA
:1016D00001232376637EDDED017A3BB9A0680368C0
:1016E00017EE901A1B6898470C49E2E79FED087ABD
:1016F00067EE877A17EE900A15F05EFA02460B46FF
:10170000E069FFF75BFDEFE70549D2E74E8B010883
:1017100000001643CE8A0108AE8A01080C89010830
:101720001289010837B504461546084601AA13492F
:101730000AF072FD01281FD1E068019903685B6817
:10174000984730B90E49284603B0BDE8304012F042
:1017500095B8E068019903681B689847237E032BBE
:1017600002D1E069FFF76CFDA068022323760368CD
:101770005B6898470349E6E70349E4E74E8B0108B5
:10178000F08A01080C8901081289010830B52DED95
:10179000028B83B004461546084601AB32496A46BF
:1017A0000AF03AFD02285CD1637E43B92F492846EE
:1017B00003B0BDEC028BBDE8304012F05FB8DFED46
:1017C0002C8ADDED017A67EEA87A17EE900A15F003
:1017D000F3F902460B46E069FFF704FE08B9254914
:1017E000E5E79FED258ADDED007A67EE887A17EE52
:1017F000900A15F0E1F902460B46E069FFF709FE91
:1018000008B91E49D3E79DED017AB5EEC07AF1EE35
:1018100010FA0AD5DDED007AF5EEC07AF1EE10FA95
:10182000C4BFF1EE677ACDED007A67EE287A032324
:1018300017EE900A237615F0BFF902460B46E069D1
:10184000FFF7BCFCDDED007A67EE887A17EE900AB0
:1018500015F0B2F902460B46E069FFF7B2FC084901
:10186000A5E70849A3E700BF4B8B0108198B0108C6
:1018700000001643CE8A0108608397482D8B01082B
:101880000C8901081289010837B505461446084637
:1018900001AA0D490AF0C0FC012813D1E86801999A
:1018A00003685B68984730B90849204603B0BDE833
:1018B000304011F0E3BFE868019903681B6898475E
:1018C0000349F2E70349F0E74E8B0108F08A01086B
:1018D0000C8901081289010830B52DED028B87B003
:1018E00005AB009304461546084604AB364903AAE7
:1018F0000AF092FC032864D1637E03998BB19DEDBD
:10190000037ADFED327A67EE277A17EE900A15F048
:1019100053F902460B46E069FFF764FD90B92C4984
:1019200005E0A06803689B68984740B929492846A4
:1019300007B0BDEC028BBDE8304011F09FBF637E65
:10194000002BDCD1237E032B02D1E069FFF778FC6A
:1019500001232376637EDDED037A9FED1C8A23BB92
:10196000A068036817EE901A1B68984720690368FF
:101970005B68984707EE900A87EE887ADDED047A77
:1019800067EE277A17EE900A15F016F902460B4615
:10199000206AFFF763FD059815F00EF902460B4625
:1019A000206AFFF7A9FD0C49C1E767EE887A17EEB8
:1019B000900A15F001F902460B46E069FFF7FEFBBD
:1019C000D4E70649B3E700BF488B0108000016437F
:1019D000CE8A0108AE8A01080C8901081289010823
:1019E00037B5002304461546084601AA0F4901935E
:1019F0000AF012FC012816D1E36933B90C492846D4
:101A000003B0BDE8304011F039BF019BA068002B46
:101A1000D4BF0023012363760223237603685B6827
:101A200098470449EBE70449E9E700BF8E920108B3
:101A3000518B01080C8901081289010830B52DED80
:101A4000028B89B01022012390ED058A144D02907B
:101A5000044600210DEB0200CDE90013039511F0BF
:101A6000A3FB694604A8FFF74AFDDFED0E7A079550
:101A700068EE277A17EE900A15F07CFD02460B46B9
:101A800004F1280004A901F048FB04A8FEF745FC76
:101A90006846FEF742FC09B0BDEC028B30BD00BFCA
:101AA000A48B010800247449034607C983E8070092
:101AB00070477047034607C983E8070070477047BF
:101AC000034607C983E807007047704770B444684D
:101AD00085686610034605EB6400E40748BFAC590F
:101AE0001B6848BFE35870BC184770B444688568E9
:101AF0006610034605EB6400E40748BFAC591B6859
:101B000048BFE35870BC184770B4446885686610D5
:101B1000034605EB6400E40748BFAC591B6848BFA7
:101B2000E35870BC18470000D0ED056A9FED0F7AAE
:101B3000C0ED066A91ED006AD0ED025A80ED056AAB
:101B4000F0EE477AE6EE257A90ED036AE6EE267A25
:101B5000D0ED046A90ED016AA6EE267A77EEC77A98
:101B6000C0ED047A17EE900A704700BF0000000035
:101B700010B5034B0360044601F018FA204610BD6F
:101B8000A48C0108D0B500F10C040430A0422DED66
:101B9000028B234608EE101A25D1206815F00CF8A8
:101BA000064618EE100A0F4615F006F802460B46D8
:101BB0003046394615F058F8064660680F4614F06E
:101BC000FBFF02460B463046394614F097FE15F0EF
:101BD00043FBBDEC028BD0BDD2ED007AF4EEC87AA7
:101BE000F1EE10FA06D5D0ED007AF4EEC87AF1EEF7
:101BF00010FAD2DA02460430984204F10804EBD11C
:101C0000CBE7000010B5044B044640F8283BFFF733
:101C100035F9204610BD00BFA08B010810B5054B5B
:101C20008366054B044640F8283BFFF727F920461A
:101C300010BD00BFEC8901089C89010838B5054634
:101C40000024AB68A34200D838BD6B6853F8240069
:101C500003689B6898470134F3E7000070B5184C9F
:101C6000184D194E20464FF4964101F0B6F8174929
:101C7000204601F065F82946204601F061F831461A
:101C8000204601F05DF81249204601F059F831462E
:101C9000204601F055F82946204601F051F80D493B
:101CA000204601F04DF80C48FFF7FCF80B48FFF711
:101CB000C5FE0B4A136B43F002031363002070BD93
:101CC00068120020B58B0108C98B0108B08B010890
:101CD000DD8B0108B28B010810110020200E0020BE
:101CE0000038024038B5FFF7B9FF074D044618B970
:101CF0002846FFF7A3FFFBE702460449044801F02A
:101D00001FF8204638BD00BF680A0020F28B01088A
:101D100068120020C36810B504460BB19B68984751
:101D2000204610BD70B5044604B970BDE068FFF7E9
:101D3000F9FF04F1100604F12800A568FFF7EAFF97
:101D4000304607F0C9F82046382102F0FBFE2C4649
:101D5000EAE710B504468068FFF7E4FF204610BDAF
:101D600030B500240025C0E90045C0E90245C0E9BE
:101D70000445D1E90045C0E90045D1E90245C0E983
:101D80000245D1E90445C0E9044530BDD1E902234B
:101D9000C0E90623D1E90423C0E90823D1E90023DF
:101DA000C0E90A23704700002DE9F04FA7B013AB3C
:101DB000019312AB009306461746084611AB6849DB
:101DC00010AA0AF029FA042840F0C880109814F0EC
:101DD000F3FE80461198894614F0EEFECDE902012B
:101DE000129814F0E9FECDE90401139814F0E4FE12
:101DF00004460D4602460B464046494614F034FF61
:101E0000DDE9042314F07AFDD6E918ABCDE906012B
:101E100052465B462046294614F026FFDDE90223A0
:101E200014F022FF5246CDE908015B464046494680
:101E300014F01AFF2246CDE90A012B462046294616
:101E400014F05CFD22462B46CDE90C01DDE90601CC
:101E500015F034F8DDE90A23CDE91401DDE90801C4
:101E600014F04CFDDDE90C23CDE90E014046494656
:101E700014F0FAFE02460B46DDE90E0114F03CFDBB
:101E8000DDE90423804689461046194614F036FDE4
:101E900002460B464046494614F02EFD22462B468C
:101EA00015F00CF85246CDE916015B4650465946EE
:101EB00014F0DAFEDDE9022314F0D6FEDDE9062394
:101EC00014F01CFDDDE9082314F016FDDDE90A23FA
:101ED00014F012FD22462B4614F0F0FF214B002295
:101EE000CDE91A23CDE918015246DDE90C015B4624
:101EF00014F002FD22462B4601F1004114F0DEFFF2
:101F00005246CDE91C015B462046294614F0F4FCFC
:101F100022462B4614F0D2FF0836CDE91E0114A943
:101F200020A8FFF71DFF20AC324626AD234603CB89
:101F3000AB42106051601C4602F10802F6D11AA9AA
:101F400020A8FFF70DFF20A93046FFF71FFF064925
:101F5000384627B0BDE8F04F11F090BC0349F7E7D1
:101F6000098C01080000F03F0C8901081289010862
:101F70002DE9F04F2DED028B054699466A4B45F849
:101F8000083B9DB0DDE92C679FED658B04469046CC
:101F9000002118222846DDE92EAB11F005F90022B8
:101FA0000023C4E90823C4E90A23C4E90E23C4E9D1
:101FB0001023C4E91223C4E91423C4E916233046CC
:101FC00042464B46394684ED0C8B14F04DFEDDE95C
:101FD0002A2314F093FC5246CDE900015B463046BB
:101FE000394614F041FEDDE9282314F03DFE524647
:101FF000CDE902015B464046494614F035FE3246C3
:10200000CDE904013B463046394614F077FC3246B0
:102010003B46CDE90601DDE9000114F04FFFDDE9A3
:102020000423CDE90A01DDE9020114F067FC424610
:102030004B46CDE90801DDE9060114F015FE024624
:102040000B46DDE9080114F057FCDDE92A23804640
:1020500089461046194614F051FC02460B4640468C
:10206000494614F049FC32463B4614F027FF5246DD
:10207000CDE90C015B465046594614F0F5FDDDE90B
:10208000282314F0F1FDDDE9002314F037FCDDE92D
:10209000022314F031FCDDE9042314F02DFC324658
:1020A0003B4614F00BFF5246CDE90E015B468DED29
:1020B000108BDDE9060114F01FFC32463B4601F1AE
:1020C000004114F0FBFE5246CDE912015B4630465A
:1020D000394614F011FC32463B4614F0EFFECDE9D0
:1020E00014010AA916A8FFF73BFE16AE2A461CAF3C
:1020F000334603CBBB42106051601E4602F108021A
:10210000F6D110A916A8FFF72BFE284616A9FFF74F
:102110003DFE20461DB0BDEC028BBDE8F08F00BF38
:10212000000000000000F03F488C010813B50DF1DD
:10213000080C0CE90C00019B0260C0E90131024B64
:10214000C36002B010BD00BF688C010838B50D46F1
:1021500010220021044611F027F8EB681BB15B68E0
:10216000294620469847EB68E360204638BD00F1D9
:102170000803F7B50360044608460D46164613F0FB
:102180001FFC0F2805EB0007019007D9002201A9C9
:10219000204606F079FE019B2060A36020683A4645
:1021A000294606F0ABFE2046019B50F8182B6360D1
:1021B0000021D1543146FFF7C9FF204603B0F0BDDE
:1021C000F7B50546382002F097FC044604F11803E1
:1021D0002361D5E900630F2B00F1100006EB030724
:1021E000019306D9002201A906F04EFE019B206151
:1021F000A36120693A46314606F076FE019B2269CA
:1022000063610021D15404F1280005F11801FFF7A2
:102210009DFF204603B0F0BD2DE9F041054610308A
:102220000E46FFF7CDFF2B7803700023C0E9023381
:1022300046600446E86818B12146FFF7EDFFE0600C
:10224000AE6827464FF0000816B92046BDE8F08179
:1022500006F11000FFF7B4FF33780370C0E902887D
:10226000B86047600546F06818B12946FFF7D4FF0B
:10227000E860B6682F46E7E708B506F049FEC00FEC
:1022800008BD2DE9F0418D6804460F4690460E1DAD
:10229000012045B908B3FB68B34211D125606660DF
:1022A0002046BDE8F08105F110014046FFF7E4FF4C
:1022B000D5E9022300282E4614BF15461D46E8E73F
:1022C000304606F0DDFC0546414605F11000FFF7FB
:1022D000D3FF20B100232360E1E73546F4E7C4E9EA
:1022E0000050DDE7000000002DE9F04F2DED028BDE
:1022F0004FF41653ADF5137D03220221B848DFF8E1
:10230000B0B3DFF8B093DFF8B08300F0A7FCB54AB4
:10231000B549B34802F03EFAB44BCDF804B000938F
:102320000A2215231321B248FEF726FCAD4AB14913
:10233000AF4802F02FFAB04BB04A27214846FEF7CB
:10234000B3FB38ACA74AAE49484602F023FA1C2238
:102350000021204610F028FF3AAE0521204601F06A
:102360005CFA0FCE6D460FC533682B6094E80C0005
:1023700041F28831A348A44EA44DFEF7CBFA994A06
:10238000A349A04802F006FAA24B3360A24B736047
:10239000A24BB360F3600023D8F80070336173611F
:1023A000B361FEF77BFC4FF40063024639460096AA
:1023B0009B4F2846FEF754FD8A4A9A49284602F068
:1023C000E9F9874B2A4664213846FEF7EBFA854A3D
:1023D0009549384602F0DEF9DFF8E0C2BCE80F00AC
:1023E00032AE0FC69CE803000DF1C80E86E803006C
:1023F000BEE80F00A446ACE80F0096E803008B4E41
:102400008B4B33608CE803008A4B7360A2468A4B87
:10241000B360BAE80F0006F10C0EAEE80F009CE8BE
:1024200003008EE80300D8F80000DFF894A214F04F
:10243000C3FB63A3D3E900239FED638BCDE90223A4
:1024400063A3D3E90023CDE90801CDE90601CDE975
:102450000023504660A3D3E900238DED048BFFF7E2
:1024600087FD9DED087B002200238DED067BCDE9E5
:102470000223CDE900238DED048B704B70480022C0
:10248000FFF776FD6F4B03936F4B02936F4B0193F6
:102490006F4B009333466F4E6F4852462946FEF706
:1024A0006BFE30466D4B6E4A6549FEF7C9FF4FF033
:1024B0007E5300931A225B4614216A48FEF76AFD98
:1024C000484A6949674802F065F9634B0396CDE9CC
:1024D00001930095464BD8F80010414A6348FFF736
:1024E000A3F8404A624961484FF0000802F052F9EF
:1024F000604BC4F80480236094E80C005B492EA86C
:10250000FFF714FE5C492EAA2046FFF730FE5B4B16
:1025100056490DF1980BCBE900382AA89BE80C002E
:10252000FFF704FE56492AAA42A8FFF720FE554BA2
:102530004E490DF18809C9E90038584699E80C0060
:10254000FFF7F4FD50495A464CA8FFF710FE4F4BD9
:1025500046491EAEC6E90038484696E80C00FFF72B
:10256000E5FD4B494A4656A8FFF701FE494B4A494B
:10257000B760C6E90038494BF360324660A8FFF700
:10258000F6FD474B4749CDF870A01AAADFF834A1F1
:10259000CDF874A06AA8CDE91A38FFF7E8FD424BE0
:1025A000324912AFC7E9003816A897E80C00FFF7C8
:1025B000BDFD3E4916AA74A8FFF7D9FD84E000BF0F
:1025C0000188BB7A15192D3F7B14AE47E17AA43FF1
:1025D000EC51B81E85EBE93F713D0AD7A370BD3FB2
:1025E0006812002098010020711B00089A9999BE7A
:1025F00008120020D90B00080000F0410000F0C1D3
:10260000E50A0008AC1100209011002010110020F4
:10261000ED080008308C0108721C47BF398EE33D7D
:10262000F41000201D1C000851090008D0100020E3
:102630003C8C0108D7FA62BED7FA623E0000F03F38
:102640000010002000006143000061C360839748D0
:10265000608397C8780F0020B00F0020BF82D43D60
:10266000BF82D4BD880E0020A5290008200E0020BE
:10267000051C000869160008168C01088918000856
:10268000188C0108251700081A8C0108E1190008A8
:102690004D8F0108C50900081C8C01085C8C0108DD
:1026A000A91D00081E8C01088D170008208C010848
:1026B0009A99993ED8110020A8010020748C010835
:1026C00068100020508C0108614B6249CDE90E383A
:1026D0000EAD95E80C003846FFF728FD5E493A46F6
:1026E0007EA8FFF744FD5D4B5D49C5E900385D4BB1
:1026F0002A46C5E9023A5C4D88A8FFF738FD2B1D34
:10270000C5E903330A2385F80480C5F80880C5F8B5
:1027100014800B93A0460B9B013B0B9363D192ADAE
:10272000283D05F11800FFF7F5FA284606F0D4FB1E
:10273000A542F5D10EA8FFF7EDFA3846FFF7EAFA01
:1027400016A8FFF7E7FA1AA8FFF7E4FA3046FFF7F2
:10275000E1FA4846FFF7DEFA5846FFF7DBFA424D4A
:102760002AA8FFF7D7FA2EA8FFF7D4FA3F49404A24
:10277000284602F00FF8A868002339A9C4E903111C
:102780002371A360636180B1FFF746FD03461A46DB
:102790009B68002BFBD1E26003461A46DB68002BE6
:1027A000FBD16B6922616361A060224631493248E6
:1027B000FEF722F8A068FFF7B5FA2D4A2F492E48F8
:1027C00001F0E8FF2E4B2F492F480322FDF7E4FDCF
:1027D000274A2E492C480DF5137DBDEC028BBDE830
:1027E000F04F01F0D7BF6B696BB1D5F810A041462F
:1027F0000AF11000FFF740FD28B1BAF1000F0DD12A
:1028000008F1280887E7424629460CA8FFF739FD5A
:10281000DDE90C3ABAF1000FF2D0ABB91C4B9A4586
:1028200012D00AF110014046FFF726FD08904046FD
:10283000FFF7C6FC164B01465246089806F03AFAD6
:102840006B6901336B61DBE701230893EFE700BF9E
:10285000D9180008200E0020228C0108A91D0008AC
:10286000248C010800100020080E0020531D0008D1
:102870009801002068120020B80A00208D0400088A
:1028800017B7D1389C010020680A002051030008C6
:102890000C0E002010B50446FFF76AF92046B4215B
:1028A00002F050F9204610BDD0E90E232DE9F04783
:1028B000C0E91023D0E90C23C0E90E23D1E900239D
:1028C000C0E90C238246064600F1180700240025C3
:1028D0003146D1E90023D1E90C0114F0C5F90246D3
:1028E0000B462046294614F009F80836B74204463C
:1028F0000D46EDD1DAE90823DAE9140114F0B4F950
:10290000DAE91289DAE9062306460F4640464946C7
:1029100014F0AAF90022002313F0F0FF02460B4640
:102920003046394613F0EAFF02460B462046294658
:1029300013F0E2FFDAE90A2314F0C0FA02460B466C
:10294000CAE91489CAE91223BDE8F08708B508303E
:10295000FFF7AAFF08BDF0B5002487B00025CDE938
:102960000045CDE90245CDE9044503466F4600F137
:1029700030060DF1180C3A4603CA624530607160AA
:10298000174606F10806F6D1C3E91245C3E9144516
:1029900007B0F0BD08B50830FFF7DDFF08BDFFF751
:1029A000A3BC000010B5084B044640F8903FFDF76B
:1029B000BDFC04F1700000F029FC04F11C0000F0E3
:1029C0005FF8204610BD00BFE88C0108C36810B551
:1029D0002BB90549054840F23B2201F0E1FBBDE877
:1029E00010401B68184700BF7488010893880108CD
:1029F000C36810B504460BB19B689847204610BDCC
:102A00000346024A203005F0DFB800BF832B0008E0
:102A1000F8B50546134B45F8043B04460E4610270F
:102A20001C220021284610F0BFFB3A46002104F189
:102A3000200010F0B9FB3A46002104F1300010F0FC
:102A4000B3FB3A46002104F1400010F0ADFB3146E3
:102A50002046FFF7D5FF2846314600F0D7FE204636
:102A6000F8BD00BF948C010810B5044601F042FC8B
:102A700004F1200005F06CF8BDE8104001F050BCF6
:102A800010B5084B044640F8203B05F073F904F1FB
:102A90004000FDF742FC04F13000FDF73EFC20460B
:102AA00010BD00BF948C010810B50446FFF7E8FF85
:102AB0002046502102F046F8204610BD884238B525
:102AC00004460D460ED0FDF728FC102200212046BA
:102AD00010F06AFBEB681BB15B68294620469847FB
:102AE000EB68E36038BDF0B50D4685B0044601F0F3
:102AF00001FCEE6804F1300720346EB129463846F7
:102B0000FFF7DCFF01220121204604F0EFFF05B0B2
:102B1000BDE8F04001F004BC10223146684610F0D8
:102B200043FB69463846FFF7C9FF6846FDF7F5FBEA
:102B30003246E8E7F0B50D4685B0044601F0DAFB11
:102B4000EE6804F1400720346EB129463846FFF79D
:102B5000B5FF01220221204604F0C8FF05B0BDE800
:102B6000F04001F0DDBB10223146684610F01CFB3E
:102B700069463846FFF7A2FF6846FDF7CEFB3246AE
:102B8000E8E7012908B502D0022907D008BDC36BC8
:102B9000002BFBD03030FFF719FFF7E7C36C002B99
:102BA000F4D04030F7E738B50023037604460D46ED
:102BB00001F0A0FB2046294605F084FB01F0B0FBA4
:102BC000204638BD38B504460D4601F093FB294632
:102BD000204605F03BFCBDE8384001F0A1BB38B50C
:102BE00004460D4601F086FB2946204605F0DAFA38
:102BF000BDE8384001F094BB037E10B504461BB914
:102C000001F0E4FC0123237610BD38B504460D46DF
:102C100001F070FB2046FFF7EFFF2946204605F044
:102C20003DFABDE8384001F07BBB037E10B5044699
:102C30001BB101F0E1FC0023237610BD10B5044662
:102C400001F058FB204605F023FA2046FFF7EDFF80
:102C500001F066FB204610BD7047000010B5044629
:102C600000F000F9014B2360204610BDA48C010840
:102C700038B5036804461B689847204600F0D2F830
:102C8000236805465B6820469847284638BD38B516
:102C9000036804461B680D4698472946204600F005
:102CA000C4F8236805465B6820469847284638BD27
:102CB000036870B51B680D4604469847013D15F83A
:102CC000016F2EB9236820465B689847304670BD77
:102CD00031462046FFF7DBFFF1E72DE9F0410368BD
:102CE000A0B00E4617461B68044698473B4632463E
:102CF000012101A80FF044FE7728054610DC31467B
:102D00003A4602A80FF074FE02A92046FFF7D0FF52
:102D1000236820465B689847284620B0BDE8F081CC
:102D2000013001F0FBFE3A46804631460FF060FE6E
:102D300041462046FFF7BCFF404601F005FFE7E7AC
:102D40000EB403B503AA52F8041B0192FFF7C5FFA6
:102D500002B05DF804EB03B070476FF015007047E8
:102D600003681B69184703689B69184703689B6AD7
:102D7000184700290CBF6FF0180000207047012091
:102D800070476FF0150070476FF01500704770477F
:102D900070470246406830B490B1D2E9034101F077
:102DA00001052CB965B100EB610003681C5903E013
:102DB00000EB6100002DF8D12346916830BC184724
:102DC00030BC704700EB0113D3F89C3023B10931BC
:102DD0001B6800EB01101847704770B506460446A3
:102DE00056F8443B0D461B6898473046294605F087
:102DF000FDFC2368C4F8B05020465B68BDE8704015
:102E0000184738B50546044655F8443B1B689847B3
:102E1000284605F09DFC236805465B6820469847D8
:102E2000284638BD443004F013BD10B544300C467C
:102E300004F020FD204610BD884238B504460D46FA
:102E40000ED0FDF76AFA10220021204610F0ACF9EE
:102E5000EB681BB15B68294620469847EB68E36046
:102E600038BD00002DE9F04F9A4687B02E4B036025
:102E700000252E4B436010260446C0E90355C0E9E7
:102E80000555019191468583324629468060203060
:102E900010F08AF904F144073246294604F1300063
:102EA00010F082F904F190082946A4F840504C2211
:102EB000384610F079F904F1A00B32462946404615
:102EC00010F072F932462946584610F06DF9324634
:102ED0002946C4F8B0A002A810F066F902A940463D
:102EE000FFF7AAFF02A8FDF718FA3246294602A802
:102EF00010F05AF902A95846FFF79EFF02A8FDF705
:102F00000CFA4A460199384605F096FCD4F8B01000
:102F1000384605F06BFC38460549224604F03CFC77
:102F2000204607B0BDE8F08FBC8C0108932D000847
:102F3000C52D00082DE9FF410646154656F8443BCD
:102F40000F461B680446984701F0D4F92B0123442F
:102F5000FA68D3F89C3005F10908AAB10BB901F061
:102F600035FB394604EB0810FFF766FF01223046B7
:102F7000294604F01DFC01F0D3F923685B68204664
:102F800004B0BDE8F04118470BB101F035FB102249
:102F90000021684610F008F9694604EB0810FFF7B5
:102FA0004BFF6846FDF7B9F90022E0E71FB51A4B61
:102FB0000360044610220021684610F0F5F8002254
:102FC00069462046FFF7B6FF6846FDF7A6F91022CE
:102FD0000021684610F0E8F8012269462046FFF714
:102FE000A9FF6846FDF799F904F1A000FDF795F9EE
:102FF00004F19000FDF791F904F13000FFF7F8FCBF
:1030000004F12000FFF7F4FCA06908B100F090FF84
:10301000204604B010BD00BFBC8C010810B50446AA
:10302000FFF7C4FF2046B42101F08CFD204610BDFF
:1030300070B5D0E90813D0E902250446521845EBD3
:10304000030300F083F9636B2BB104F128001B68C4
:10305000BDE87040184770BD10B5044600F048F94F
:10306000084B236000220023C4E90823002110221A
:1030700004F1280010F098F8012384F83830204635
:1030800010BD00BFD48C010838B504460D4600F0D1
:1030900047F90A4B236000220023C4E908230021DA
:1030A000102204F1280010F07FF82B6893F82030EC
:1030B00083F0010384F83830204638BDD48C0108F1
:1030C00070B5044615461E4601F014F9204600F07E
:1030D00047F9C4E90856A06900F0BBFE421946EB67
:1030E0000103204600F032F9BDE8704001F018B944
:1030F000884238B504460D460ED0FDF70EF9102271
:103100000021204610F050F8EB681BB15B6829469F
:1031100020469847EB68E36038BDF8B504461D4685
:103120000F46164601F0E6F8636B23B994F8383081
:103130000BB101F04BFA394604F12800FFF7D8FF34
:1031400032462B462046FFF7BBFFBDE8F84001F0B2
:10315000E7B81FB5044601F0CDF8204600F000F9AD
:10316000636B23B194F838300BB101F045FA1022AB
:103170000021684610F018F8694604F12800FFF7AE
:10318000B7FF6846FDF7C9F804B0BDE8104001F08C
:10319000C7B8000010B5034B03600446FDF7C6F83E
:1031A000204610BDE88C010810B50446FFF7F2FF79
:1031B0002046402101F0C6FC204610BD1FB5044644
:1031C0001022002168460FF0EFFF636B23B15B68AC
:1031D00004F1280168469847636B03932046FFF784
:1031E000B8FF039B2BB90749074840F23B2200F088
:1031F000D7FF1B68684698476846FDF78EF804B00D
:1032000010BD00BF748801089388010810B50446FA
:1032100001F070F823681BB1237F0BB101F0ECF9CA
:103220000023236001F07CF8204610BD38B5054628
:1032300001F060F82C6864B1A86900F00AFED5E9D5
:103240000245041B61EB050501F06AF8204629469A
:1032500038BD2546F8E770B5054601F04BF828461D
:10326000D5E90446FFF7E2FF241846EB010601F01A
:1032700057F82046314670BD08B5FFF7ECFF08BD92
:1032800008B5FFF7E8FF14F0FFF8DFED047A07EE6A
:10329000100AC7EE277A17EE900A08BD0024744979
:1032A00010B5044601F026F8A06900F0D2FD002216
:1032B0000023C4E90201C4E90423BDE8104001F081
:1032C0002FB8002310B5002203600023C0E90223B9
:1032D000C0E90423044600F0CFFD0123A061237759
:1032E0002046FFF7DDFF204610BD03689B681847A6
:1032F000094B10B5002203600023C0E9022300231C
:10330000C0E90433044600F0B7FD0449A06100F0B1
:1033100015FD204610BD00BFFC8C0108EB320008F3
:1033200010B50446074B236000220023C4E90223A2
:1033300000230846A161C4E90433034900F0FEFC00
:10334000204610BDFC8C0108EB32000807B5009048
:1033500000F10801806900F02FFD03B05DF804FB67
:1033600000F10801806900F059BD000010B5034B61
:1033700003600446FFF7F4FF204610BDFC8C0108F3
:10338000036801221B6900211847036800221B699A
:1033900011461847034607C983E80700704770477E
:1033A00010B4426881685410034601EB6200D207F2
:1033B00048BF0A591B685DF8044B48BFD3581847EB
:1033C00038B504460D4600F095FF94F857302BB9F8
:1033D00094F8563013B994F854307BB104F10800D6
:1033E000FFF7B7FE002384F85530A4F856300DB12E
:1033F0002046A847BDE8384000F092BFA36CDB68C8
:103400009847F7E710B5044600F074FFA36C9B687B
:103410009847BDE8104000F083BF10B5044600F0A7
:1034200069FFA36CDB689847BDE8104000F078BFE7
:1034300010B5044600F05EFF012384F85730A36CFA
:103440005B699847BDE8104000F06ABF10B50446BC
:1034500000F050FFA36CDB699847044600F060FF62
:10346000204610BD38B5044600F041FF20B914498C
:103470001448C22200F094FE04F10800FFF769FE30
:103480000023C4E9173384F85530A4F85630636636
:10349000A36C012584F85850DB699847436802689B
:1034A0001F2B9ABF9D4005F1FF354FF0FF3502F508
:1034B000742303F23F23A566B3FBF2F3E36638BD42
:1034C000088D0108318D0108F8B504460E46083014
:1034D00017461D46FFF7C0FD0B4BA3603368A3647E
:1034E000069B013323650135002384F85430E564DD
:1034F00000F000FF7368636020462760FFF7B2FFAB
:1035000000F00EFF2046F8BDE88C010810B5044617
:1035100000F0F0FE2046FFF7A5FFA36C1B6898475C
:10352000BDE8104000F0FCBE10B5044600F0E2FE1D
:103530002046FFF797FFA36C9B699847BDE81040B2
:1035400000F0EEBE38B504460D4600F0D0FE20B9BE
:1035500009490A48F02200F023FE94F856304BB196
:10356000D4E91720904205D0294600F0C7FA031E7F
:1035700018BF0123184638BD088D0108318D010898
:1035800038B5044600F0B6FEA36C5B68984794F823
:10359000543005463BB901462046FFF7D3FF10B132
:1035A000A36C5B69984700F0BBFE284638BD00005D
:1035B00038B505460C4600F09AFE20B90449054886
:1035C000FC2200F0EDFDE86E6043043038BD00BF22
:1035D000088D0108318D01087FB504460D4600F0C5
:1035E00086FE28B9334934484FF4827200F0D8FD82
:1035F00094F85830A26E43B9636EE16CEB1A134035
:103600008B4224BF012384F85830E06D236D451BA5
:10361000154094F85820F2B994F85560CEB9274A6D
:1036200002949D42CDE900262946254A039228BFEF
:1036300019462046FFF7BCFF33460246694604F1AF
:103640000800FFF76AFD6846FCF767FE012384F86F
:10365000553004B070BD9D422AD3A36C1B699847B6
:10366000A36C5B6898470023E16D84F85830A36E23
:103670006066091A19408D4205D2A36C5B6904B0DB
:10368000BDE870401847236D8B42E2D9236D0B4A89
:10369000009299420A4A03924FF0000528BF19464A
:1036A0002046CDE90154FFF783FF2B460246C5E7CC
:1036B0002946EBE7088D0108318D0108093700081C
:1036C000548D010838B504460D4600F013FEA36C76
:1036D0005B689847012384F8563094F85430C4E965
:1036E0001750014633B92046FFF776FFBDE8384052
:1036F00000F016BEA36C28461B699847236E6366CC
:10370000002384F85830F1E738B5044600F0F2FDA4
:10371000002384F85530A36C5B6898470546D4E9CC
:103720001720904206D1A36C5B699847BDE83840EA
:1037300000F0F6BD294600F0E1F90028F3D1294652
:103740002046FFF749FFF1E7EFF3108372B6054A11
:10375000117831B90449DB4303F001030B700123F5
:10376000137070471C1300201D13002008B5EFF3E1
:103770001083DB4313F0010304D0064906483622C8
:1037800000F00EFD054A1370054B1B7803B162B6BD
:1037900008BD00BF608D01088B8D01081C1300203F
:1037A0001D130020014B1878704700BF1C13002028
:1037B00070B50E460446154604F002F9013609D0EC
:1037C0002046002104F020F929462046BDE870403B
:1037D00004F016B970BDF8B50F46044615461E46EE
:1037E00004F0EEF8013710D020685EB1A3681860CD
:1037F0000121204604F008F929462046BDE8F8409A
:1038000004F0FEB8E3680004F1E7F8BD0022FFF71A
:10381000CFBF13460022FFF7DEBF0022FFF7F9BF3C
:10382000014800F051B800BFA88D0108014B18688D
:1038300000F034B8AC010020014B1868FFF706BE59
:10384000D8130020014B1868FFF76EBED813002074
:10385000014B1868FFF7ECBDD8130020024B01465E
:103860001868FFF72FBF00BFD8130020014B18685E
:10387000FFF7D3BDD8130020014B1868FFF7C2BD76
:10388000D8130020014B1868FFF77ABED813002028
:10389000014B1868FFF73ABED813002010B5044654
:1038A00000F028FD064B1B780BB9FFF7B9FF054B5D
:1038B00021461868FFF784FDBDE8104000F030BDD8
:1038C00060130020D81300202DE9F3410C4F0D4E5A
:1038D000054600F00FFD3B7863B9DFF830800A4AF7
:1038E00001240094234629464046FFF7EDFDC6F823
:1038F00000803C7000F014FD306802B0BDE8F0813B
:1039000060130020D8130020D48D01086813002014
:1039100013B50446601C0FD102B010BDA3420AD1FA
:103920002046896804F0C0FA0021204602B0BDE8B4
:10393000104004F04DBB0C31B1F900305A1CEDD1F0
:103940000023034903480093224600F025FE00BFF0
:10395000F88D01083001018007B502468A42084609
:103960000AD0531C08D0013005D000230449054873
:10397000009300F011FE104603B05DF804FB00BF99
:10398000098E010830010180B1F900305A1C01D1C3
:1039900018467047834201D1486870470C31F3E7FD
:1039A000421C13B504460AD0FFF7EEFF431C06D1B4
:1039B0000023044904480093224600F0EDFD02B0C4
:1039C00010BD00BF1A8E010830010180B1F900302E
:1039D0005A1C01D118467047834201D1886870474C
:1039E0000C31F3E7421C13B504460AD0FFF7EEFF93
:1039F000431C06D10023044904480093224600F0EA
:103A0000CBFD02B010BD00BF3A8E0108300101802D
:103A10002DE9F843456895F83A600446002E49D1EF
:103A200003685B68984763681B6A834242D02C6ACC
:103A3000AF682862041B3048EB68874204EA03043D
:103A400031D095F83B30D5E90A98A4FB0001D3B3F7
:103A5000C3F1200620FA03F401FA06F6A3F12002CE
:103A600021FA02F23443144321FA03F6A3F1200EA3
:103A7000C3F1200C06FA03F204FA0EFE19EB000063
:103A800004FA03F342EA0E0224FA0CFC48EB0101AB
:103A900042EA0C02C01A61EB0201B84271F1000364
:103AA0000AD2C5E90A01D5E90C321B1946EB020618
:103AB000C5E90C36BDE8F883013446F10006C01BA9
:103AC00061F10001EDE733463A4613F023FD12EBB6
:103AD000090248EB0303BA42044673F100000E46A4
:103AE00002D2C5E90A23DEE7013441F10006D21B08
:103AF00063F10003F5E700BF40420F00824206D9A0
:103B00008A420BD9884294BF002001207047884226
:103B100006D98A428CBF00200120704701207047DF
:103B2000002070472DE9F041466896F83A30054686
:103B3000002B67D196F83930002B63D1FFF768FF6F
:103B40006F687A68002A5FD0D7E90C10D2E900329A
:103B5000994270EB020404D32B68BDE8F0415B6925
:103B600018475B1A62EB0002D7E9060198429141BF
:103B70003C6906D3B968294881420FD19C4228BFCD
:103B80001C463B6A1C44FB681C40336AA3422BD191
:103B90002349244840F21B1200F002FB97F83B0037
:103BA000D8B1A0F1200EC0F1200C02FA00F103FA06
:103BB0000EFE23FA0CFC03FA00F01B4B41EA0E0147
:103BC00041EA0C01C01841F10001144A002313F02E
:103BD000A1FC844228BF0446D3E7A1FB033001FBCC
:103BE000020111481818EEE72B6820461B69984718
:103BF0002B685B68984722460146306AFFF77EFFD4
:103C00000028A9D1BDE8F0813369306AF268184410
:103C10002B681040BDE8F0411B69184740420F0077
:103C2000588E0108798E01083F420F002DE9F04FB0
:103C3000436893F8382085B00446002A70D193F881
:103C40003A30002B6CD103681B6898472368DB6906
:103C50009847D0F800A0BAF1000F1CD0BAF1004F7D
:103C600023D04FF01E080122B8F1000F07D002FA4E
:103C700008F5AA4508F1FF3115D15FFA88F84768C1
:103C80003B1F1C2B4FF0000612D9274927480096EE
:103C90003346324605E026492648CDF800A0534673
:103CA000524600F079FC8846DEE74FF01F08E6E751
:103CB0001AF1FF30204D4FF0070946F1FF3109FAA4
:103CC00003F952463346C9FB050113F023FC65682E
:103CD00022680390C5E9006652688B46904701222E
:103CE000039B286202FA07F7656800210020013F64
:103CF000C5E90A01C5E90C01C5E903792046C5E912
:103D0000063BC5F808A085F83B802A8785F83A600D
:103D1000FFF77EFE204605B0BDE8F04FFFF702BF7B
:103D200005B0BDE8F08F00BFB68E01080501048024
:103D30009D8E01080E01048040420F0038B50546F3
:103D40000C46FFF773FF00F0D5FA6B681C60BDE806
:103D5000384000F0E5BA70B5044600F0CBFA2368AD
:103D6000DB689847636893F83A201AB1BDE8704061
:103D700000F0D6BA012283F8392063685B689BB1F2
:103D80002046FFF745FE63685A68D3E90C61D2E923
:103D90000050AE42814107D3D16859601B68002BA7
:103DA000EBD090689847E8E76368002283F83920F1
:103DB0002046FFF7B7FED9E72DE9F34105460C464B
:103DC0001E461746DDF8208000F094FA2846FFF7DB
:103DD0001FFE6B68C4F80880C4E9007659680020AB
:103DE00031B9E16078B95C602846FFF79BFE10E0CE
:103DF0004A6801920A689742019A76EB0202F0D370
:103E00000846C968ECE7D3E90C23BA42B341C46061
:103E1000EAD202B0BDE8F04100F082BA38B50546FA
:103E20000C4600F067FA6A685368A34209D1DB6860
:103E300053602846FFF776FEBDE8384000F070BAC0
:103E40001346002BF8D0DA68A242F9D1E268DA60B2
:103E5000F2E738B50446FFF7E9FE00F04BFA2046DA
:103E6000FFF7D6FD6368D3E90C4500F059FA204608
:103E7000294638BD7047000000487047F48E01089D
:103E8000024B1B680BB1024818477047B001002075
:103E9000F48E010808B5BFF35F8F1D4BD3F8901067
:103EA000080A10F0FC0FC1F3072104D119491A4880
:103EB0003A2200F075F90022C3F8942010468A4295
:103EC0001FD11022C3F89C20144AC3F8A02013224B
:103ED000C3F89C20124AC3F8A0201122C3F89C20EA
:103EE000104AC3F8A020104AC3F89C200F4AC3F818
:103EF000A0200722C3F89420BFF34F8FBFF36F8F2A
:103F000008BDC3F89820C3F8A0000132D7E700BF6E
:103F100000ED00E0208F0108428F010839F0020611
:103F2000390702133FF50B1312000080390002130A
:103F3000024B1B6803B11847704700BF20140020D4
:103F4000002070474FF0100300F00CB84FF0200332
:103F500000F008B84FF0300300F004B84FF0400311
:103F600000F000B8EFF308804FF0040172460A42F7
:103F700001D0EFF309809C46254B196802680A605E
:103F8000043142680A60043182680A600431C26800
:103F90000A600431F0C147460F6004314F460F609C
:103FA000043157460F6004315F460F6004310269E7
:103FB0000A60083142690A60043182690A6004318A
:103FC000C2690A600431034620334FF4007632425E
:103FD00000D0043375464FF01006354200D1483307
:103FE0000C46103C2360EFF309820A600431EFF3C2
:103FF00008820A60043172460A600431EFF31482C9
:104000000A606046024B196800F07AF8FEE700008B
:104010000C910108F0B52C4E2C4F85B0002435468C
:10402000214656F8042B3846013400F047F90D2C90
:10403000F6D1AB6C02936B6C01932B6C244C009308
:10404000D5E90E23696B234800F038F9216822482E
:1040500000F034F9E16AA26AA36AA06A266BE76BF2
:10406000000CCDE901670090C3F307231B48D2B2CF
:1040700000F024F9A36A1E0603D5616B184800F00E
:104080001DF9A36A180403D5A16B164800F016F9B0
:10409000EB6C190712D5144800F010F92B6DDA07F4
:1040A0000FD5124800F00AF9EB6C5B074CBF1048C3
:1040B000104805B0BDE8F04000F000B90E4800F02F
:1040C000FDF80E48EEE700BF241400204F8F0108D2
:1040D00000ED00E05D8F0108AC8F0108BA8F010888
:1040E00009900108179001082590010834900108F3
:1040F00064900108709001085490010841900108F3
:1041000013B50446154800F0D9F8302C17D0402CD0
:104110001AD0202C1DD11248124C00F0CFF81248B2
:1041200000F0CCF8FFF776FF104800F0C7F8104A0F
:10413000104900230093D26B204600F02DFA0E4860
:104140000E4C00F0BBF8EAE70D480E4C00F0B6F854
:10415000E5E70D480D4C00F0B1F8E0E77C90010870
:10416000A59001083E01FF80D2900108DD90010872
:1041700024140020FC900108B49001083F01FF8046
:10418000BD9001084001FF80C89001083D01FF80FB
:104190000EF05ABC05F05EBF07F05EB910F0F0B843
:1041A00007B50B46009201460022014800F0F4F9E1
:1041B0004401FF8003460122D3E84F0FC3E8412F9B
:1041C000C0B20029F8D17047D0E85F3F5B18C0E863
:1041D000523F002AF8D198B27047D0E85F3F5B1A8F
:1041E000C0E8523F002AF8D198B27047D0E84F3F5C
:1041F000C0E8421FD8B2704700B589B000F07AF825
:10420000052101A8FFF709FB114E124D0424039B61
:10421000019A1A60304600F099FC019B049A1B0435
:104220001360304600F092FC013CF0D10424039B63
:10423000019A1A60284600F089FC019B049A1B042D
:104240001360284600F082FC013CF0D1DEE700BF9D
:10425000F0490200801A060010B50146044600220B
:10426000022000F03DFB00F045F8204611F0A8FBCD
:1042700021460246022000F033FBBDE8104000F06A
:104280004FB8000000B5A3B002460B4601A8842138
:104290000EF076FB832806D9074B1A681B79CDF8F8
:1042A00083208DF88730002802DD01A8FFF7D4FFB6
:1042B00023B05DF804FB00BF109101080FB407B5EF
:1042C00004A951F8040B0191FFF7DCFF03B05DF87E
:1042D00004EB04B07047EFF31080C04300F001001E
:1042E0007047EFF30580003818BF01207047FFF7D3
:1042F00059BA000008B5FFF727FA064A1368591C97
:1043000004D1054905483F22FFF74AFF01331360F6
:1043100008BD00BF781400201591010840910108E4
:10432000044A136823B1013B13600BB9FFF71EBAAF
:10433000704700BF7814002008B50B48FFF73AFF1C
:1043400028B1FFF7D7FFBFF34F8F20BFFDE7FFF77F
:10435000C8FF08B1FFF750FFFFF7BDFF0028F9D0F5
:10436000012000F0A5FB00BFEC140020F0B5214BAC
:104370008FB016461C2210EA200738BF1F460D4694
:104380000DEB020000210EF00FFF1B4B03955B6944
:104390000493DA6B05925A6B1B6B069201ACCDE964
:1043A0000734CDE90176FFF7A5FF144A13680133FE
:1043B000012B136009D126460FCE114D0FC50FCE2C
:1043C0000FC50FCE0FC533682B600FCC0D4D0FC539
:1043D0000FCC0FC50FCC0FC523682B600A4B1B6891
:1043E00013B1A5F130009847FFF79AFF00200FB0F6
:1043F000F0BD00BF0101FF80BC020020E8140020D6
:10440000B4140020801400207C1400202DE9FF410A
:10441000374C0E462168C1F34173032B0CBF4D424C
:104420008DB2C1F307438046174632482A46FFF74C
:1044300045FF6FF498731D44132D0FD8DFE805F086
:104440000A3E4144474D4A500E0E0E0E0E0E0E0E01
:104450000E0E0E53A1682848FFF730FF4046FFF7C5
:10446000FBFE61682548FFF729FF4EB12448FFF79E
:10447000F3FE3046FFF7F0FE22483946FFF71EFFF5
:10448000A1682148FFF71AFFE268E36951680293C7
:10449000A369019363691D480093002908BF014681
:1044A00023691B48FFF70AFF21681A48FFF706FF38
:1044B000194804B0BDE8F041FFF700BFA1681748F4
:1044C000CAE7A1681648C7E7A1681648C4E7A1680B
:1044D0001548C1E7A1681548BEE7A1681448BBE7C5
:1044E000A1681448B8E71448FFF7E8FEB6E700BF34
:1044F000801400207B910108CC910108749201087E
:10450000859201088D92010891920108719101082C
:10451000A5920108FD9201084C930108E29101085F
:10452000F2910108019201081492010828920108F1
:104530003C9201084B920108619201080FB407B543
:104540000D4801217546FFF751FE044688B9014622
:104550002A460A48FFF70AFF094822462146FFF784
:1045600055FF049805A90191FFF78CFE0548FFF758
:1045700073FEFFF7E1FE00BFED1400200001FF8095
:1045800066930108FA90010800207047014B1878E3
:10459000C0B27047ED14002080B506460C460A48AC
:1045A0000121F04617461D46FFF720FE48B9424656
:1045B00039463046FFF7DAFE029A29462046FFF7D1
:1045C00025FFFFF7B9FE00BFED14002013B5074C1F
:1045D00001212046FFF7F8FD034628B90090228804
:1045E00003490448FFF7D8FF02B010BDEE140020C5
:1045F0007B9301082301048013B5094C0121204657
:10460000FFF7EBFD4FF6FF73984206D100230093AE
:10461000228804490448FFF7BFFF02B010BD00BF65
:10462000EE1400209D93010824010480034B188898
:1046300080B2B0FA80F04009704700BFEE1400204D
:1046400008B5FFF757FEFFF7F1FF28B104F0CEF9E8
:10465000BDE80840FFF764BE04F0BCF9F8E76FF06E
:104660001C0070476FF01500704701207047002054
:1046700070477047034B186818B14FF0FF3101F0D5
:1046800023BA704794150020024B186808B101F056
:1046900033BA704794150020F8B5074F15460C46FD
:1046A0008E18B44201D12846F8BD14F8011B3846D3
:1046B00003F0E0F8F5E700BFB82F002038B511F09F
:1046C00001040D4605D0084804F042F8041E18BF46
:1046D0000124EB0605D5044804F050F808B144F075
:1046E0001004204638BD00BFB82F002010B5044686
:1046F0000EF0A2F9204610BD10B510460C4622B1AE
:10470000024803F0A5F82070012010BDB82F00204A
:1047100038B51D46074B0360074B1B68044633B989
:10472000064804F089F80548294604F05FF8204659
:1047300038BD00BF0495010804300020B82F0020C8
:10474000002070470020704707B500230249034846
:1047500000931A46FFF720FFBB930108290101804F
:1047600008B5012000F0A4F9074A08491368184465
:10477000884289BF064B10600C224FF0FF308CBF7F
:104780001A601846704700BFB4010020007C012069
:10479000B4300020012070470120704708B500F0B8
:1047A00033FA08BD08B500F037FA08BD10B5044665
:1047B000037803F00303012B08D0FFF75BFF237896
:1047C00003F00302012A03D1FFF75EFF002010BDB2
:1047D0002AB10549054840F2E652FFF7E1FC43F0F3
:1047E000020323700120F2E7C5930108F293010848
:1047F00008B5037803F00302022A05D007490848E8
:1048000040F2EF52FFF7CCFC23F0030343F0010327
:104810000370BDE80840FFF737BF00BFC59301082C
:10482000109401083F2870B504462DDC174E56F849
:1048300020305A1C26D1022824DCFFF783FF0346D0
:10484000F0B92046FFF77CFF0346C8B9104D2B682E
:10485000BFF35B8FDB0712D42846FFF7A7FF70B1C9
:104860004FF41653032202210A48FFF751FF0A4A68
:104870000A490848FFF78EFF2846FFF7B9FF054BA6
:1048800046F82430184670BD0023FBE7B80100202D
:10489000F0140020F4140020980100207346000852
:1048A00038B50446FFF7BEFF0B4B002543F82450F4
:1048B00030B907F0BFFE092303604FF0FF3038BD69
:1048C00003685B699847041E04DA07F0B3FE64428C
:1048D0000460F2E72846F2E7B8010020FFF7E0BFE6
:1048E00038B50C461546FFF79DFF38B907F0A2FE14
:1048F000092303604FF0FF34204638BD036821468A
:10490000DB682A469847041EF6DA07F093FE6442F5
:104910000460EFE773B505460E461446FFF7E1FC69
:1049200030B100230E490F4800932A46FFF734FEAA
:10493000FFF7D1FC0028F4D0201E07DA07F07AFE3A
:10494000162303604FF0FF3002B070BDFCD002466A
:1049500031462846FFF7C4FF40EAE070F4E700BFA5
:10496000479401082F01018038B50C461546FFF722
:1049700059FF38B907F05EFE092303604FF0FF349A
:10498000204638BD036821469B682A469847041E86
:10499000F6DA07F04FFE64420460EFE773B50446B1
:1049A0000E461546FFF79DFC30B100230D490E4819
:1049B00000932246FFF7F0FDFFF78DFC0028F4D0AE
:1049C000002D07DB2A463146204602B0BDE8704084
:1049D000FFF7CABF07F02EFE162303604FF0FF302B
:1049E00002B070BD819401082F01018010B5FFF75E
:1049F00019FF30B907F01EFE09230360002420468A
:104A000010BD0368DB699847041EF8DA07F012FE50
:104A100064420460F2E7FFF7E9BF38B50C4615467B
:104A2000FFF700FF38B907F005FE092303604FF0D8
:104A3000FF34204638BD036821461B692A46984743
:104A4000041EF6DA07F0F6FD64420460EFE7FFF7B4
:104A5000E4BF10B5FFF7E6FE30B907F0EBFD092320
:104A600003604FF0FF3010BD03689B699847041E38
:104A700004DA07F0DFFD64420460F2E70020F2E7A9
:104A80000A4D08B52B680446986810F099FD2B680C
:104A9000D86810F095FD0120FFF7DBFF0220FFF73B
:104AA000D8FF0CB1FFF7A8FBFEE700BFEC08002021
:104AB00008B5FFF7E5FF38B50D46FFF7B3FE04462E
:104AC00030B907F0B7FD092303604FF0FF3038BD60
:104AD0000368DB69984700280CBF4FF400434FF48C
:104AE00000536B60236820469B6A9847286100202A
:104AF000EDE7FFF7E0BF000013B504460DF094FFAB
:104B0000034628B90090034903482246FFF744FDB5
:104B100002B010BDBD9401081F01018013B5044609
:104B20000DF082FF034628B900900349034822464E
:104B3000FFF732FD02B010BDDA9401081F010180B9
:104B40000DF07ABF0DF078BF0DF076BF034A516AC1
:104B5000536A5B1A8342FBD3704700BF000C0040CE
:104B600008B5094B094A1A60094B9B1A094A136098
:104B7000094B0A4A1A600A4B9B1A0A4A136000F052
:104B800051F800F07DF800BF64150020007C012082
:104B90000080012060150020FC140020F831002066
:104BA000007C0120F81400200E4838B50E4B03603D
:104BB0000B250E4B45601C24C460836000F06CFF25
:104BC0000B4B18600B480C4BC460C0E900350B4B15
:104BD000836000F061FF0A4B1860BDE838400EF0BA
:104BE0005BBB00BF30150020589501084015002020
:104BF0005C150020001500206595010810150020A7
:104C00002C150020FDF76EB8024B4FF0FF311868ED
:104C100000F05ABF5C150020014B186800F06CBF13
:104C20005C15002008B5FFF735F90C4B0C49986866
:104C30004FF00053C21802F16042126843F8042B8F
:104C40008B42F7D1054B4FF000529A6003F0F2F817
:104C500003F0A4FFBDE8084000F010B800ED00E04C
:104C600094010020704708B5FFF79EFFFFF7FAFF99
:104C7000FFF78AFCBDE80840FFF7C4BF00F040BA68
:104C800007B51748174B03600B2343601C23164CD2
:104C9000C360164B8360164B23614FF480536361EE
:104CA0004423E360134BA3601823A361124B2360DA
:104CB00000F0F2FE114B224618600021104801F06E
:104CC000FDFA034628B90F49009022460E48FFF727
:104CD00063FC00F02DFA00230C4900931A46F5E717
:104CE000681500206F950108E02500207815002048
:104CF000E0150020981500207F95010894150020EC
:104D0000674C0008849501081D010180A0950108E9
:104D100073B506460C461546FFF738FC58B90634FD
:104D20002ABF064B064953F824100023009332464D
:104D30002846FFF731FC02B070BD00BF689701083C
:104D4000BD96010808B500F071F8000007B5002312
:104D5000411E009302460023042919D8DFE801F020
:104D600003080C1014000C490C480122FFF714FC36
:104D70000B490C480222F9E70B490C480322F5E7DE
:104D80000B490C480422F1E70B490C480522EDE7DA
:104D90000B490C48EAE700BFB595010825010280E0
:104DA000D695010826010280FB95010827010280A3
:104DB00030960108280102806B9601082A010280C2
:104DC000AB96010800010280014A0146FFF7A0BF2F
:104DD00031010180014AFFF79BBF00BF3201018012
:104DE000014AFFF795BF00BF33010180014AFFF779
:104DF0008FBF00BF3801018010B501F077FA034B77
:104E00001B6813B1BDE81040184710BD04260020F0
:104E100008B5FFF76FFAFFF7D9FBFFF711FCFFF7B3
:104E2000EBFBBDE80840FFF77BBA000008B5024C79
:104E300023689847FCE700BFB80200201EF0040F6B
:104E40000CBFEFF30880EFF30980816911F8021CB1
:104E500091BB01B590E80F10E047BDE800508CE829
:104E60000300244B93E80600914208BF704741B904
:104E70001EF0100F10D12049086820F001000860D2
:104E80000AE02CE9F00F1EF0100F08BF2CED108A7D
:104E9000C1F838C081F822E01A6092F82210906BB5
:104EA00061F0FF0E1EF0100F08BFB0EC108AB0E8E2
:104EB000F00F80F309887047104A13689942FAD8B6
:104EC00001B552F821C00FC8E047BDE80050CCF84A
:104ED0000000704701B500F06DFEBDE80140EFF342
:104EE000098CBEE701B500F02DFEBDE80140EFF3EF
:104EF000098CB6E7D002002034EF00E02C980108BE
:104F0000EFF310832BB9EFF31180003818BF0120A5
:104F1000704701207047000070B5484C217A012984
:104F200000F08A8031B14FF0FF30FFF74DFF4FF0B6
:104F3000FF3070BD424D9C2204F108000EF034F9A0
:104F4000D5E90B61EB68E3652B8AA4F85430304651
:104F5000AB68236400F002F908B1C4F88060D5E9B9
:104F60000561304600F0FAF808B9D4F88060666749
:104F7000D5E90761304600F0F1F808B9D4F880604F
:104F8000A667D5E90961304600F0E8F808B9D4F819
:104F90008060E6676E6B3EB1D6E902233168304629
:104FA00000F046F9C4F88460AE6B3EB1D6E9022346
:104FB0003168304600F03CF9C4F88860EE6B3EB1D1
:104FC000D6E902233168304600F032F9C4F88C602B
:104FD0002E6C3EB1D6E902233168304600F028F944
:104FE000C4F890606E6C3EB1D6E902233168304659
:104FF00000F01EF9C4F89460AE6C3EB1D6E902230D
:105000003168304600F014F9C4F89860EE6C3EB197
:10501000D6E902233168304600F00AF9C4F89C60F2
:105020002D6D3DB1D5E902232968284600F000F92D
:10503000C4F8A0500123237200207AE7BC020020AC
:10504000C497010870B5284C237A012B07D06FF064
:105050000600FFF7B9FE4FF0FF35284670BD01F09E
:105060000DF910B94FF0FF30F3E7204AFF2382F823
:10507000223092F8223063F0FF03DB4304D1D26880
:10508000C2F30222531C08E0D268B3FA83F3C3F1DF
:105090002003C2F302229342F4D9FE2202FA03F360
:1050A000134E124A13497068DBB2D37701F096F9B8
:1050B00005460028D6D101F0C9F9206101F0AEF90A
:1050C0000D4800F0B7FE00F017FF336813F0010F32
:1050D0004FF0020303D083F314882372BDE7032249
:1050E00082F31488F9E700BFBC02002000ED00E065
:1050F000C4970108E54E0008D80200207047000060
:1051000008B5FFF7FBFFEFF3058333B16FF0050040
:10511000FFF75AFE6FF0050008BDFFF7F1FE00280B
:10512000F4D1DFF808C000DFF6E700BF194F000830
:1051300008B5EFF3058333B16FF00500FFF744FEC8
:105140006FF0050008BDFFF7DBFE0028F4D1DFF8A3
:1051500008C000DFF6E700BF4550000810B5034661
:1051600088B1084310F007000DD117290AD919603A
:1051700008391022CC189C605A60585099684A60CF
:10518000D860012010BD0020FCE770B5034668B36D
:1051900061B3032A2AD80F3121F0070600F1080471
:1051A000214624684D68601A25F00305401B86429D
:1051B00003D920680028F3D170BD5D6818683544B4
:1051C0005D600344083B5868854288BF5D604B685A
:1051D00032431BB94A6001F10800EDE723F00303F5
:1051E000C818CC50426008600830E5E70020E3E7CB
:1051F00010B5034680B1C9B1A1F1080400F108025D
:105200000021A24209D1506820F003045868001B15
:10521000586041B95160012010BD10681146002846
:10522000FAD00246EDE713680B60F4E70846F3E7AF
:1052300030B5C0B189B1C2B1CBB10024C0E90142DF
:1052400002FB01F41D190160C3604361056118464A
:10525000013904D1A41A19510121084630BD85181D
:1052600005602846F4E70146F7E71146F5E71946D9
:10527000F3E710B5034608B9002010BD00F1140291
:1052800052E8000F10B9BFF32F8F04E0016842E825
:10529000001404B1F4E70028EED0043353E8002FE3
:1052A000511C43E8001404B1F8E7E6E730B5F0B16B
:1052B000C3688B421BD803698B4218D900F11403D1
:1052C0001A680A60BFF35F8F53E8002F0C6894429E
:1052D000F6D143E8001505B1F2E7043050E8003F8D
:1052E0005A1E40E8002101B1F8E7002030BD6FF000
:1052F0000300FBE7EFF310832BB9EFF311800038C5
:1053000018BF0120704701207047D1E9013223B155
:105310009A608A681AB153607047C262F9E7036302
:10532000704700002DE9F84F8846074600B141B9A3
:105330006FF003010020FFF759FD00242046BDE86F
:10534000F88FCE1C26F003060C36B0FA80F104D09C
:10535000B6FA86F30B441F2BEADD06FB07F9002A99
:105360005DD09468D2F800A0D2E9045314B3A10729
:105370001DD1D268332A1AD9002D34D1FBB99B46EE
:10538000324B0022D86F4946FFF7FFFE0546002842
:1053900054D1BBF1000F07D02C4BD3F8A00021460D
:1053A000002846D0FFF782FF6FF00401C2E76FF0DC
:1053B0000801BFE7D268002AF9D11DB933B16FF0F7
:1053C0000901B7E7AA07FAD19945F8D81F4BD3F8D6
:1053D000A00038B3FFF74DFF04460028E4D04FF09B
:1053E000010B2DB9CCE715F0030BE8D19945E6D8B0
:1053F000FA2323700023C4E90983C4E90B33A360B3
:1054000032462B4684F802B0C4F804A0394604F1B1
:105410000C00FFF70DFF0D4B0D4A1A678EE7924601
:105420001546D3E7D3F8800001223421FFF7ADFE03
:10543000D2E7D3F88000FFF7DBFEB5E74A4600214C
:105440000DF0B2FE4BF0020BD2E700BFBC02002011
:10545000E154000810B500F1280353E8002F12B9F9
:10546000BFF32F8F04E0511E43E8001404B1F4E7AA
:105470000AB9002010BDC06A01220028F9D0811CA1
:10548000D1E84F3FC1E8442F04B1F9E7DBB2002B6C
:10549000F0D08068F1E7036B30B5E3B1CD7800243C
:1054A000DA78AA420FD31A46C1E901248AB1916081
:1054B000A4B16160283050E8003F5A1C40E8002148
:1054C00001B1F8E730BD5A681C46002AECD01346FB
:1054D000E6E7C162ECE7C1E90133C1620163E9E7D4
:1054E000F8B5877804468FB3C5680146002728467B
:1054F000FFF70BFF277005F10C042046FFF7D6FEDF
:10550000AB68002B48D02046FFF7B3FE04460028C6
:1055100042D0284600F08EFC3A460646394600F056
:1055200021FD304600F0CAFC6A6A8168064604F133
:105530000C0010F09DF9F9232370A770F368E37055
:1055400021462846BDE8F840FFF7A5BF8568AB684F
:10555000002BF5D05B78832BF2D1284600F06AFC53
:105560003A460646394600F0FDFC304600F0A6FCFF
:1055700006466A6A806804F10C0110F079F9F36854
:105580000BB1E2781A7000232370214605F10C005C
:10559000BDE8F840FFF78ABEF8BD00002DE9F041F4
:1055A0000E4617469846044618B10378FA2B00D1E8
:1055B00041B920466FF00301FFF718FC6FF00300BC
:1055C000BDE8F0818368BBB15B78832B14D100F018
:1055D00031FC01220546002100F0C4FC284600F001
:1055E0006DFC0546626A8068314610F041F9EB684F
:1055F00003B11F700020E3E704F10C00FFF739FE50
:10560000054670B13146626A0C3010F031F9F92369
:105610002B700023AB70EF7029462046FFF73BFF4D
:10562000E8E7B8F1000F11D04146932000F0B4FD37
:1056300010B96FF00100C3E7064B2046596900F02E
:10564000E7FBEFF30983C3E90267F2E76FF00200BB
:10565000B6E700BFBC0200202DE9F0410F46164618
:105660009846044618B10378FA2B00D141B9204678
:105670006FF00301FFF7BAFB6FF00300BDE8F081A4
:10568000FFF7E8FE054600283AD001462046FFF71E
:105690003CFE626A05F10C01384610F0E9F80EB1E3
:1056A000EB783370002704F10C062F702946304642
:1056B000FFF7FCFDA3680BB90020DFE73046FFF7DA
:1056C000D8FD05460028F7D0204600F0B3FB394648
:1056D0000646012200F046FC304600F0EFFB626A0D
:1056E0008168064605F10C0010F0C2F8F9232B7012
:1056F000AF70F368EB7029462046FFF7CCFEDBE77E
:10570000B8F1000F11D04146832000F045FD10B9DB
:105710006FF00100B2E7064B2046596900F078FBB4
:10572000EFF30983C3E90276F2E76FF00200A5E721
:10573000BC02002010B50446EFF3058333B100200E
:105740006FF00501FFF752FB002010BDFFF7D2FDFF
:105750000028F4D1DFF808C0204600DFF5E700BFDD
:10576000255300082DE9F04106460F4690461C4699
:10577000EFF305834BB196B930466FF00301FFF7A5
:1057800035FB6FF00300BDE8F081FFF7B3FD0028A3
:10579000F1D1DFF84CC03046234600DFF3E7337821
:1057A000FA2BE9D1002FE7D0002CE5D106F10C004F
:1057B000FFF75FFD054680B1726A39460C3010F084
:1057C00057F8F9232846C5E901762B70AC7085F8A7
:1057D000038000F037FA2046D5E76FF00200D2E7E9
:1057E0009D550008F8B504460F4616461D46EFF3D2
:1057F000058343B18CB920466FF00301FFF7F6FA39
:105800006FF00300F8BDFFF775FD0028F2D1DFF857
:1058100048C020462B4600DFF4E72378FA2BEAD174
:10582000002FE8D0002DE6D12046FFF713FE0546F5
:1058300070B100F10C01626A384610F019F80EB12F
:10584000EB7833702846EC6000F0FCF90020D9E7D3
:105850006FF00200D6E700BF59560008EFF310833F
:105860002BB9EFF31180003818BF012070470120D9
:105870007047000038B5044640B3D0E90025806881
:1058800060B110F0030302D1E1681B2927D86FF043
:1058900008010020FFF7A4FA002016E0E368002BBF
:1058A000F5D11446104BD3F8940088B1FFF7E1FC12
:1058B000B8B1012383700023C0E90233C0E9043387
:1058C000F5220270C5704460037638BD0546E9E7ED
:1058D000D3F8800001221C21FFF757FCE8E71446AB
:1058E000E8E76FF00401D5E7BC020020294B70B552
:1058F0005D6904460E4635B96FF00701FFF770FA8F
:105900004FF0FF3070BD10B10378F52B07D0204663
:105910006FF00301FFF764FA6FF00300F2E7037E14
:1059200053B9EA6AC560C0E9043202B11061EC62A1
:10593000012323760020E5E7C278D1070ED5C168A0
:10594000A9420BD1FF2B06D16FF00F01FFF748FAE8
:105950006FF00200D6E70133DBB2EAE7002EF7D0A2
:1059600093070AD5E06895F9203090F920209A42F3
:1059700003DA80F8203000F06FFA3146532000F04F
:105980000BFC10B96FF00100BCE72946204600F07F
:105990003FFAF7E7BC02002038B52E4B5A6904469F
:1059A00032B96FF00701FFF71BFA4FF0FF3038BD37
:1059B00010B10378F52B07D020466FF00301FFF7F5
:1059C0000FFA6FF00300F2E7037E33B96FF00E01B8
:1059D000FFF706FA6FF00200E9E7C168914202D0D2
:1059E0006FF00D01F4E7013BDBB203760BB1002051
:1059F000DDE743690BB1016919612169F9B14B61B7
:105A0000E3789B0705D592F92110D36ACBB982F8C8
:105A10002010A3687BB1204600F00CFA0022054656
:105A2000114600F09FFAEB6A6361002323610123B2
:105A3000E560EC622376002000F068FAD7E7D362D5
:105A4000DEE7986820B190F920008142B8BF014696
:105A50005B69DBE7BC0200202DE9F041044600262B
:105A600001270CB9BDE8F081E378D4F814801B0756
:105A700010D5A36826766BB1204600F0DBF9002232
:105A80000546114600F06EFAEB6AE560C4E904636E
:105A9000EC6227764446E4E708B50246EFF3058357
:105AA00033B100206FF00501FFF79AF9002008BD1F
:105AB000FFF7D4FE0028F4D1DFF808C0104600DF5D
:105AC000F5E700BF7558000808B50246EFF30583F7
:105AD0003BB110466FF00501FFF782F96FF005004A
