:020000040800F2
:1000000000800120D16600081D6700089D3F0008A0
:10001000A53F0008AD3F0008B53F00080000000004
:10002000000000000000000000000000C94E0008B1
:100030001D67000800000000614F0008714F0008B4
:100040001D6700081D6700081D6700081D67000880
:100050001D6700081D6700081D6700081D67000870
:100060001D6700081D6700081D6700081D67000860
:100070001D6700081D6700081D6700081D67000850
:100080001D6700081D6700081D67000800000000CC
:100090000000000000000000000000001D670008D4
:1000A0001D6700081D6700081D6700081D67000820
:1000B0001D6700081D6700081D6700081D67000810
:1000C0001D6700081D6700081D6700081D67000800
:1000D0001D6700081D6700081D670008000000007C
:1000E0001D6700081D6700081D670008000000006C
:1000F0000000000000000000000000001D67000874
:10010000000000001D6700081D6700081D6700084B
:1001100000000000000000000000000000000000DF
:100120001D6700081D6700081D6700081D6700089F
:100130001D67000800000000000000000000000033
:100140000000000000000000000000001D67000823
:100150001D6700081D6700081D6700081D6700086F
:100160001D6700081D670008000000000000000077
:10017000000000000000000000000000000000007F
:10018000000000001D6700080000000000000000E3
:100190001D6700080348044B834202D0034B03B1A0
:1001A00018477047400A0020400A00200000000065
:1001B0000548064B1B1AD90F01EBA301491002D0C9
:1001C000034B03B118477047400A0020400A002043
:1001D0000000000010B5064C237843B9FFF7DAFFA2
:1001E000044B13B10448AFF300800123237010BD0A
:1001F000400A002000000000CC13020808B5054B9F
:100200001BB105490548AFF30080BDE80840FFF782
:10021000CFBF00BF00000000440A0020CC1302083A
:10022000A3F5803A704700BF174B002B08BF134B54
:100230009D46FFF7F5FF00218B460F461348144AF1
:10024000121A13F025F80E4B002B00D098470D4BD7
:10025000002B00D098470020002104000D000D481D
:10026000002802D00C4804F0C3FA13F089F82000EB
:10027000290004F00DFD04F047FC00BF0000080059
:1002800000000000ED4B000800800120400A002023
:10029000F0310020F147000800000000F0B5002315
:1002A00084681D4601269C4200D1F0BD426852F888
:1002B0002320916857680131B942916024BF1673B9
:1002C00095600133EFE7034607C983E807007047ED
:1002D000704710B4426881685410034601EB620015
:1002E000D20748BF0A591B685DF8044B48BFD35872
:1002F0001847027B22B103680022DB6802731847AB
:1003000070470000034AC0E90021002282600273A6
:10031000704700BF0C8901087047C36810B50446D8
:100320000BB19B689847204610BD000038B50546C4
:10033000064B45F8283B044602F021FF2846FFF70C
:10034000ECFF204603F03EF8204638BDE88D01085A
:1003500038B50546054B45F8103B0446284602F0E3
:100360000EFF2846FFF7E2FF204638BD248901082A
:1003700010B50446FFF7ECFF2046502104F00EFCB8
:10038000204610BD10B50446FFF7D0FF204640219F
:1003900004F004FC204610BD70B52DED028B08EE74
:1003A000103A1A4B826000F1100588B0C0E90031A4
:1003B0000446284602F066FE1022154B154E0093A7
:1003C0000DEB02000021CDE90114039612F060FF4D
:1003D000694604A8FFF777FFDFED0F7A079668EE0E
:1003E000277A17EE900A17F045F902460B46284681
:1003F00004A902F0A8FE04A8FFF78FFF6846FFF7E4
:100400008CFF204608B0BDEC028B70BD248901082A
:100410009D0200082C890108002474497047034696
:1004200007C983E807007047704710B442688168C5
:100430005410034601EB6200D20748BF0A591B68FB
:100440005DF8044B48BFD358184710B54FF4887176
:10045000044604F0A3FB204610BD70B5044604B961
:1004600070BDE068FFF7F9FF636BA56804F1100643
:1004700004F128000BB19B689847304608F0A0FDB6
:100480002046382104F08AFB2C46E8E710B5064BDD
:1004900003600446D0F84003FFF7DFFF2046FFF774
:1004A0003BFF204610BD00BFCC89010810B50446B3
:1004B000FFF7ECFF20464FF4547104F06FFB204629
:1004C00010BD000000F1080373B5044603600D463B
:1004D00011B90F4808F01CFD084615F0F1FA0F2875
:1004E00005EB0006019007D9002201A9204608F07B
:1004F0003FFD019B2060A36032462946206808F03A
:1005000071FD019B226863600021D15402B070BD6F
:100510003889010838B5044672B6FF25206902F013
:1005200086FC78B3D4F81831D4F81C110133B3FB2E
:10053000F5F2C2EB02229B1A8B4223D0206902F013
:10054000ADFBD4F81831D4F81C110133B3FBF5F22C
:10055000C2EB02229B1A8B42E0D0D4F8183123441C
:10056000C0B21876D4F818310133B3FBF5F2C2EB00
:1005700002229B1AC4F81831D4F820310133C4F890
:100580002031CBE762B638BDD0F8081110B5013183
:10059000D0F804410346FF22B1FBF2F0C0EB00208B
:1005A000091AA14214D0D3F808110131B1FBF2F2BB
:1005B000C2EB0222891AC3F80811D3F808211A44A1
:1005C0001079D3F80C21013AC0B2C3F80C2110BD48
:1005D0000020FCE72DE9F043D0F81C31D0F81811C9
:1005E0000133FF22B3FBF2F2C2EB02229B1A8B42D1
:1005F000ADF5097D04460BD01430FFF7C5FF232865
:10060000064609D184F8340204F23523C4F83433A1
:100610000DF5097DBDE8F083D4F8343304F54D724F
:100620009342F5D00A286DD113F8032C3B2A69D1E7
:1006300013F8022C3B2A65D113F8013C0D2B61D134
:1006400004F50D78334908AB01AA40460BF058FE7B
:10065000022855D101A948A8FFF734FF04F54F79C6
:10066000D4F840734D468FBBA94508D005F1100161
:1006700048A808F0C1FC35EA200528BF4D4648A827
:1006800008F09EFCA9453BD0234B48AA03F1100C6F
:1006900018685968174603C7083363453A46F7D1C7
:1006A0001B883B80EE2200210DF5997012F0F0FDC1
:1006B00002A848A9FFF706FF6B6B05F1280093B964
:1006C0001649174840F23B2203F096FD07F110004F
:1006D00048A908F091FCD7E902230028AABF3D46AB
:1006E0001F461746BFE71B6848AA08A998470D4947
:1006F000206948AB01AA02F039FB02A808F060FCAF
:10070000C4F83483D4F834331E70D4F8343301334E
:100710007CE700BF6A890108A18901087489010882
:10072000938901089889010800F10803F7B503606F
:10073000D1E900630F2B04460D4606EB0307019336
:1007400006D9002201A908F013FC019B2060A360D8
:1007500020683A46314608F03BFC2346019A53F89C
:10076000180B6260002181541022184612F090FD8F
:100770006A6A1AB1526805F1180190476B6A6362A0
:10078000204603B0F0BD2DE9F041054638200E4665
:1007900004F0DEF905F1100104461030FFF7C4FF44
:1007A0002B78E86823700023C4E90233666018B12F
:1007B0002146FFF7E8FFE060AE6827464FF00008EB
:1007C00016B92046BDE8F081382004F0C1F906F1E1
:1007D000100105461030FFF7A7FF33782B70C5E9ED
:1007E0000288BD606F60F06818B12946FFF7CBFF43
:1007F000E860B6682F46E3E72DE9FF4104460D4661
:1008000000211646DFF8CC80FFF77CFD2E4B2360DD
:100810002561FF2200250021FE27C4F8148004F181
:10082000180012F035FDC4F81851FF22C4F81C71ED
:100830002946C4F82051C4F8248104F5947012F0BC
:1008400027FD04F50D73C4F828522946C4F82C720C
:100850004FF48072C4F83052184612F019FD04F5B6
:100860004F71C4E9D051C4F83403B06884F83C53E4
:10087000C4E9D215A0B1FFF786FF03461A469B686C
:10088000002BFBD1C4F8442303461A46DB68002B37
:10089000FBD17369C4F84823C4F84C33C4F840034F
:1008A0000A4B009300220A4B206903936946CDE965
:1008B000012402F055FB039B13B19B6868469847DF
:1008C000204604B0BDE8F081CC8901081505000878
:1008D000DC890108BC89010843691A6803691A4266
:1008E00016BFC26982691B041360704710B5034BC1
:1008F00003600446FFF710FD204610BDF089010893
:1009000010B50446FFF7F2FF20462C2104F046F90B
:10091000204610BD82B070B5064604AC84E80C00D9
:100920003446FFF7EFFC04AD084B44F8103B0FCD05
:100930000FC495E8070084E807003046B3693269C0
:100940001A60BDE8704002B0704700BFF08901082E
:1009500010B5034B03600446FFF7DEFC204610BDD4
:100960002C8A010810B50446FFF7F2FF2046182133
:1009700004F014F9204610BD437B10B504466BB15A
:10098000006903685B68984716F096F902460B46C3
:1009900060690349BDE8104002F0E8B910BD00BF2E
:1009A000008A010870B504461D461646FFF7AAFCEA
:1009B000034B23600023C4E904656373204670BDC4
:1009C0002C8A010837B5002305461446084601AABB
:1009D0000A4901930BF094FC01280CD1019B0849B2
:1009E000002BD4BF002301236B73204603B0BDE866
:1009F000304012F0B3BF0349F7E700BFA2930108EC
:100A00000C8A0108128A01088068704707EE901A64
:100A100090ED0A7AB4EEE77AF1EE10FA09D890ED8B
:100A20000B7AB4EEE77AF1EE10FAACBF01200020A9
:100A300070470020704710B519460446104616F05E
:100A40008BFC014604F10C00BDE8104002F0F3B845
:100A500090ED027A07EE901AB4EE677AF1EE10FA92
:100A600010B518BFC0ED027A0446084616F024F906
:100A700009A3D3E9002316F077F909A3D3E90023EA
:100A800015F0BCFF16F068FC014604F10C00BDE84F
:100A9000104002F0D0B800BF40BD19355F254F3F70
:100AA000DD2406819543B33FF8B5044600F10C05FB
:100AB00017461E46094A02600023436083602846A9
:100AC00002F087F82846A762E662142102F090F847
:100AD0002846034902F0AFF82046F8BD448A0108D1
:100AE000AC1C9A3D10B5044B044640F80C3B02F098
:100AF000BBF8204610BD00BF448A010807EE901ADB
:100B000090ED167AB4EEE77AF1EE10FA09D890ED8E
:100B1000177AB4EEE77AF1EE10FAACBF01200020AC
:100B200070470020704707EE901AF5EEC07AF1EE9C
:100B300010FA036A0CD5C26A1B041360436CC26BC3
:100B40001A60F0EEE77A17EE901A043002F073B8EC
:100B5000826A1360C36B826C1B041360F1E7036A43
:100B6000C26A1B041360C36B826C1B0413600021F8
:100B7000043002F060B800002DE9F04105461E4641
:100B8000144B45F8043B0446284617464FF01C0812
:100B900002F01FF804F1200342461846002112F02B
:100BA00077FB394602F065FE04F13C0342461846E5
:100BB000002112F06DFB314602F05BFE069BA3653F
:100BC000079BE3652846C82102F01FF82046BDE8D0
:100BD000F08100BF5C8A010810B5044B044640F860
:100BE000043B02F041F8204610BD00BF5C8A0108BA
:100BF000704710B50446006810B10368DB68984779
:100C0000204610BD014B586A00B2704700080040F2
:100C1000014B00225A6270470008004010B50421C1
:100C2000044603F0BBFF204610BD0000184A136BBA
:100C300043F002031363174B196841F42041196014
:100C4000596841F0C0015960996841F47041996058
:100C5000D96841F42041D960196A41F008511962FC
:100C6000596A5962136C43F0040313640A4B01225E
:100C70001A6003229A604FF2F1129A611121002248
:100C8000DA6119624FF6FF719A62D9625A6270474F
:100C900000380240000402400008004038B5074D0B
:100CA0002B684BB9042003F053FF054B0360286009
:100CB000FFF7BCFF034B1860286838BD600A0020AE
:100CC000708A01085C0A0020024A0349034803F0C5
:100CD0008DBD00BF98010020F30B00085C0A0020C6
:100CE0000020704710B50446406803681B689847A9
:100CF000237E20814BB115F0CDFF02460B46D4E98F
:100D0000040115F07BFEC4E9040160680368BDE8D6
:100D100010405B681847B0F908007047B0F9083018
:100D200007EE103A038C07EE903AB8EEC77AF8EE69
:100D3000E77AC7EE276AD0ED077AC6EEA77A17EEF4
:100D4000900A704708B5D0E9040116F005FB08BD0C
:100D500000230022C0E90423012303767047002307
:100D60000022C0E9042300230376704713B504462C
:100D7000FFF7B8FFB4F90830A06F07EE903A0368A8
:100D8000F8EEE77A01A9CDED017A1B68984707EEE6
:100D9000900AFDEEE77A17EE903A18B215F07AFF56
:100DA000C4E91C0102B010BD08B5D0E91C0116F061
:100DB0008BFA00B208BDA0F16800FFF7F5BFD0B50F
:100DC0000446008C15F066FF02460B46D4E91C0170
:100DD00016F0F4F80646E0690F4615F06DFF02467E
:100DE0000B463046394616F0E9F816F0B5FAD0BD94
:100DF000A0F16800FFF7E3BF034607C983E80700D7
:100E00007047704710B4426881685410034601EB84
:100E10006200D20748BF0A591B685DF8044B48BFFF
:100E2000D3581847D0B504460B482384C4E90002C0
:100E300000260022002722812276E161C4E90467AE
:100E400002F01AFD014604F1280002F033F9034BC9
:100E5000A3622046D0BD00BF9C8A0108888A010891
:100E600010B50446FFF7DEFF034B23602C33A36667
:100E7000029BA367204610BDC08A010810B5034B32
:100E800003600446FFF752FA204610BD888A010825
:100E900010B50446FFF7F2FF2046402103F07EFE26
:100EA000204610BD30B52DED028B012389B01822EC
:100EB000CDE90023102290ED078A134D02900446DD
:100EC00000210DEB0200039512F0E2F9694604A837
:100ED000FFF792FFDFED0D7A079568EE277A17EEA0
:100EE000900A16F0C7FB02460B4604F1280004A93D
:100EF00002F029F904A8FFF710FA6846FFF70DFA87
:100F000009B0BDEC028B30BDF48A0108002474499D
:100F1000034607C983E807007047704710B442686A
:100F200081685410034601EB6200D20748BF0A599A
:100F30001B685DF8044B48BFD358184738B500F11B
:100F400070050446284602F0C7F9DFED097A07EE7E
:100F5000100AB4EEE77AF1EE10FA02DD284602F04C
:100F6000CBF9284602F0B3F9C4F8D80038BD00BF69
:100F700000001644703002F06FB9D0F8D00070470E
:100F800013B50DF1080C0CE90C00019B0260C0E9DF
:100F90000131024BC36002B010BD00BF008B0108DD
:100FA000F0B5044687B00D46174600211C221E46A8
:100FB00012F06EF92946204604F11C0502F059FC96
:100FC0003946284601F03AFD04F1700002F0A5F917
:100FD00004F1900002F056F81B4BC4F890300C9BC3
:100FE000C4F8D460C4F8E83003F0B0F90027174B18
:100FF000009301976E4696E80C00214602A8FFF781
:10100000BFFF02A9284601F084FD02A8FFF785F979
:1010100003F0B2F903F09AF90D4BCDE90037214600
:1010200096E80C0002A8FFF7ABFF02A9284601F0E2
:1010300097FD02A8FFF771F903F09EF9284601F029
:1010400029FD204607B0F0BDFC8D01083D0F0008CA
:10105000C110000830B58BB006AC84E80C00054622
:10106000684680E80C0094E80C0002A8FFF788FFAF
:1010700010220021204612F00BF9059B1BB15B6882
:1010800002A9204698479DED0E7ADFED0C7A059B6C
:10109000099367EE277A17EE900A16F0EBFA0246EC
:1010A0000B462846214602F04EF82046FFF735F958
:1010B00002A8FFF732F90BB030BD00BF002474491D
:1010C00030B5044685B0703002F001F90123C4F850
:1010D000E030D4F8D830C4F8DC00C01A15F0DAFDDE
:1010E00013A3D3E9002315F03FFE0F4B002215F0A8
:1010F0003BFE16F031F904F19005C4F8D000284603
:1011000002F03DF8094B029300230393D4F8D43046
:10111000009304AB13E90C0021462846FFF79AFF21
:1011200005B030BDAFF300800000E03F391100088A
:1011300037FDD98F1491A13F30B5044600F19005D9
:1011400085B0284602F01BF8A36822681A600A20BE
:1011500003F028FD2368E2681B041360074B029329
:1011600000230393D4F8E830009304AB13E90C0098
:1011700021462846FFF76EFF05B030BD3911000843
:10118000FFF7DABF03624FF4206383844FF07C5390
:1011900083624FF03F43C362084B0363084B4363D2
:1011A00010B5084B8363029BC363039B0364049BDA
:1011B0004364059B8364C0E9001210BD0000204118
:1011C0000000F04100009643C0E902237047C0E9E7
:1011D000042300680368DB681847D0E906017047FC
:1011E000406803685B681847F8B504460068036800
:1011F0009B68984715F060FDD4E9044506460F4604
:10120000002200232046294616F03EF830B132462F
:101210003B462046294616F02DF890B900220023BF
:101220002046294616F012F868B132463B46204661
:10123000294616F015F8002814BF01204FF0FF30A2
:10124000F8BD0120FCE74FF0FF30F9E700680368C4
:101250001B6918472DE9F041066A804614461D4671
:1012600066B11046194616F077F8336801461B68D8
:101270003046984715F020FD04460D46D8F82C005E
:1012800015F01AFD22462B4606460F4615F0FCFFC8
:1012900058B198F824300133DBB234463D4688F823
:1012A000243020462946BDE8F081D8F8280015F002
:1012B00003FD22462B4606460F4615F0C7FF0028C1
:1012C000E7D10023EBE72DE9F043044600682DED5C
:1012D000028B036883B05B68984708EE100A2068A9
:1012E00003685B699847D4ED0E7AF0EEC88AF4EE95
:1012F000E87AF1EE10FA05460CD500220023C4E985
:101300000223C4E906234FF0FF3003B0BDEC028B8B
:10131000BDE8F083D4E90289206B29F0004715F07D
:10132000CBFC42463B46464615F0AEFF60B1D4EDDD
:101330000D7AF4EEE87AF1EE10FA05DD00220023D2
:10134000C4E906230120E0E7002D39D030463946B4
:1013500016F002F807EE900A666877EEC87A3368EE
:1013600017EE900A1F6815F0A7FCCDE90001694649
:101370003046B84715F0F0FF15F09EFC02460B46CC
:101380002046FFF767FF15F0E7FF94F8242094F854
:1013900025309A4217D9B5EE408AF1EE10FA12D1F3
:1013A000606803685B68984700230022C4E9022351
:1013B000C4E90623002384F824306FF00100A4E779
:1013C00040464946C4E715F077FC06460F46C4E997
:1013D0000667D4E902010022002315F037FF002838
:1013E000B0D0002DAED007F10043A661E361A9E7BC
:1013F00070B514461D460646406C15F05DFC22464D
:101400002B4615F02DFF48B1B06C15F055FC224667
:101410002B4615F02FFF003818BF012070BD70B5A6
:1014200014461D460646C06B15F046FC22462B4668
:1014300015F016FF48B1306C15F03EFC22462B46E5
:1014400015F018FF003818BF012070BD10B50160FD
:101450000349416203498162C262036310BD00BF58
:101460000000F0410000F0C1C0E90223704708B558
:10147000006A15F021FC08BD73B505682B680446A9
:101480001E68D0E90623D0E9020115F0B5FA15F07F
:1014900063FF15F011FCCDE9000169462846B0470D
:1014A00015F05AFF15F008FC11A3D3E9002315F03D
:1014B0005BFC11A3D3E9002315F0A0FA15F04CFF53
:1014C000D4ED0B7A07EE100AF4EEC77AF1EE10FABB
:1014D00008DCD4ED0C7AF4EEC77AF1EE10FA58BFBE
:1014E000F0EE477A0120C4ED087A02B070BD00BF6B
:1014F00040BD19355F254F3FDD2406819543B33F3D
:10150000C0E906237047034607C983E80700704710
:10151000704710B4426881685410034601EB6200C2
:10152000D20748BF0A591B685DF8044B48BFD3581F
:101530001847000070B5037D022B04463BD0032BF7
:1015400040D0012B1AD1437DC3B18069B0B1E369AA
:10155000A3B1FFF7B8FE0546E069FFF78DFF6A1CEF
:101560000DD12E49606801F001FCA06803685B683A
:101570009847A069FFF734FE0223237570BD02353A
:1015800001D12749EEE7A568A0692B681E68FFF71F
:1015900024FE15F0E1FE01462846B047E568E06903
:1015A0002B689E68FFF763FF02460B4628463146CC
:1015B000BDE87040084780690028DFD0BDE8704072
:1015C000FFF70EBE80690028D8D0FFF77CFE431CD1
:1015D00001D11449C6E7023001D11349C2E7A0691D
:1015E000FFF702FE01300BD11049606801F0BEFB2D
:1015F000A06803685B689847A069FFF727FEB8E713
:10160000A568A0692B681E68FFF7E7FD15F0A4FE2A
:10161000334601462846BDE8704018470C8B010848
:101620003A8B01084F8B01087D8B0108928B0108D2
:1016300010B504460B48A360029BE3600123637569
:10164000039BA361049BE361C4E90002216102F0F2
:1016500013F9014604F1200001F02CFD024B236236
:10166000204610BDA48C0108888A010837B50446BD
:101670001546084601AA26490AF042FE012845D12E
:10168000637D01998BB19DED017ADFED227A67EEE2
:10169000277A17EE900A15F00FFB02460B46A06959
:1016A000FFF7A6FE80B91C4905E0A06803689B68A7
:1016B000984730B91949284603B0BDE8304012F0C8
:1016C0004DB9637D002BDED1237D032B02D1A069B0
:1016D000FFF7BCFD01232375637DDDED017A3BB986
:1016E000A068036817EE901A1B6898470C49E2E758
:1016F0009FED087A67EE877A17EE900A15F0DCFA0C
:1017000002460B46A069FFF75FFDEFE70549D2E708
:10171000518C010800001643CE8B0108AE8B0108E6
:101720000C8A0108128A010837B504461546084696
:1017300001AA13490AF0E4FD01281FD1E0680199CC
:1017400003685B68984730B90E49284603B0BDE886
:10175000304012F003B9E068019903681B689847AC
:10176000237D032B02D1A069FFF770FDA06802233F
:10177000237503685B6898470349E6E70349E4E794
:10178000518C0108F08B01080C8A0108128A0108AB
:1017900030B52DED028B83B004461546084601ABEB
:1017A00032496A460AF0ACFD02285CD1637D43B938
:1017B0002F49284603B0BDEC028BBDE8304012F043
:1017C000CDB8DFED2C8ADDED017A67EEA87A17EE51
:1017D000900A15F071FA02460B46A069FFF708FE61
:1017E00008B92549E5E79FED258ADDED007A67EE2A
:1017F000887A17EE900A15F05FFA02460B46A06948
:10180000FFF70DFE08B91E49D3E79DED017AB5EE4D
:10181000C07AF1EE10FA0AD5DDED007AF5EEC07A65
:10182000F1EE10FAC4BFF1EE677ACDED007A67EE03
:10183000287A032317EE900A237515F03DFA024625
:101840000B46A069FFF7C0FCDDED007A67EE887AF1
:1018500017EE900A15F030FA02460B46A069FFF722
:10186000B6FC0849A5E70849A3E700BF4E8C01086C
:10187000198C010800001643CE8B0108608397483D
:101880002D8C01080C8A0108128A010837B505461B
:101890001446084601AA0D490AF032FD012813D169
:1018A000E868019903685B68984730B908492046A1
:1018B00003B0BDE8304012F051B8E8680199036800
:1018C0001B6898470349F2E70349F0E7518C010888
:1018D000F08B01080C8A0108128A010830B587B024
:1018E00005AB019304AB009304461546084603ABD1
:1018F000324902AA0AF004FD04285CD1637D0299F2
:101900008BB19DED027ADFED2E7A67EE277A17EE26
:10191000900A15F0D1F902460B46A069FFF768FD61
:1019200080B9284905E0A06803689B68984730B9EA
:101930002549284607B0BDE8304012F00FB8637D56
:10194000002BDED1237D032B02D1A069FFF77EFCA3
:1019500001232375637DDDED027AF3B9A068036886
:1019600017EE901A1B6898479DED037ADDED047A17
:1019700067EE277A17EE900A15F09EF902460B469D
:10198000E069FFF771FD059815F096F902460B46E0
:10199000E069FFF7B5FD0D49CBE79FED097A67EEEA
:1019A000877A17EE900A15F087F902460B46A06970
:1019B000FFF70AFCD8E70649BBE700BF488C0108DF
:1019C00000001643CE8B0108AE8B01080C8A01087B
:1019D000128A010837B5002304461546084601AAB5
:1019E0000F4901930AF08CFC012816D1A36933B981
:1019F0000C49284603B0BDE8304011F0AFBF019B51
:101A0000A068002BD4BF0023012363750223237534
:101A100003685B6898470449EBE70449E9E700BFBE
:101A2000A2930108548C01080C8A0108128A01084B
:101A300030B52DED028B89B01022012390ED048A80
:101A4000144D0290044600210DEB0200CDE9001375
:101A5000039511F01DFC694604A8FFF754FDDFED66
:101A60000E7A079568EE277A17EE900A15F002FEB7
:101A700002460B4604F1200004A901F064FB04A80F
:101A8000FEF74BFC6846FEF748FC09B0BDEC028B44
:101A900030BD00BFA88C010800247449034607C963
:101AA00083E8070070477047034607C983E80700CB
:101AB00070477047034607C983E8070070477047BF
:101AC00070B4446885686610034605EB6400E4075B
:101AD00048BFAC591B6848BFE35870BC184770B486
:101AE000446885686610034605EB6400E40748BF58
:101AF000AC591B6848BFE35870BC184770B44468C1
:101B000085686610034605EB6400E40748BFAC59DE
:101B10001B6848BFE35870BC18470000D0ED056A49
:101B20009FED0F7AC0ED066A91ED006AD0ED025A82
:101B300080ED056AF0EE477AE6EE257A90ED036ACD
:101B4000E6EE267AD0ED046A90ED016AA6EE267ADA
:101B500077EEC77AC0ED047A17EE900A704700BF9F
:101B60000000000010B5034B0360044601F034FA96
:101B7000204610BDB88D0108D0B500F10C0404302A
:101B8000A0422DED028B234608EE101A25D12068C5
:101B900015F092F8064618EE100A0F4615F08CF86C
:101BA00002460B463046394615F0DEF806466068B8
:101BB0000F4615F081F802460B463046394614F0C0
:101BC0001DFF15F0C9FBBDEC028BD0BDD2ED007A34
:101BD000F4EEC87AF1EE10FA06D5D0ED007AF4EE04
:101BE000C87AF1EE10FAD2DA02460430984204F1D3
:101BF0000804EBD1CBE7000010B5044B044640F8D5
:101C0000203BFFF73BF9204610BD00BFA48C010824
:101C100010B5054B8366054B044640F8283BFFF79B
:101C20002DF9204610BD00BFEC8A01089C8A0108EE
:101C300038B505460024AB68A34200D838BD6B68B0
:101C400053F8240003689B6898470134F3E70000C9
:101C500070B51A4C1A4D1B4E20464FF4964101F0B8
:101C6000D2F81949204601F081F82946204601F0B2
:101C70007DF83146204601F079F81449204601F0FC
:101C800075F83146204601F071F82946204601F0EA
:101C90006DF80F49204601F069F80E48FFF702F988
:101CA0000D48FFF7C5FE0D4A0D48136B43F00203C4
:101CB0001363FFF75FF9002070BD00BF60120020C2
:101CC000B98C0108CD8C0108B48C0108E18C0108A5
:101CD000B68C010808110020200E002000380240B8
:101CE000800E0020F8B5FFF7B3FF04461148124FED
:101CF000104E124DFFF744FA1E2002F05DFF94B91A
:101D00003846FFF795FF4FF4FA7002F055FF304662
:101D1000FFF733F914F0D0FF02460B460848294676
:101D200001F024F8ECE707490548224601F01EF8C7
:101D30002046F8BD800E0020680A0020F68C0108BD
:101D400060120020058D0108C36810B504460BB170
:101D50009B689847204610BD70B5044604B970BD15
:101D6000E068FFF7F9FF04F1100604F12800A56808
:101D7000FFF7EAFF304607F023F92046382102F04A
:101D80000DFF2C46EAE710B504468068FFF7E4FF34
:101D9000204610BD30B500240025C0E90045C0E94B
:101DA0000245C0E90445D1E90045C0E90045D1E953
:101DB0000245C0E90245D1E90445C0E9044530BD0A
:101DC000D1E90223C0E90623D1E90423C0E90823AD
:101DD000D1E90023C0E90A23704700002DE9F04F44
:101DE000A7B013AB019312AB009306461746084603
:101DF00011AB684910AA0AF083FA042840F0C880A1
:101E0000109814F059FF80461198894614F054FF39
:101E1000CDE90201129814F04FFFCDE904011398A7
:101E200014F04AFF04460D4602460B46404649461A
:101E300014F09AFFDDE9042314F0E0FDD6E918ABB5
:101E4000CDE9060152465B462046294614F08CFF38
:101E5000DDE9022314F088FF5246CDE908015B4614
:101E60004046494614F080FF2246CDE90A012B4640
:101E70002046294614F0C2FD22462B46CDE90C012E
:101E8000DDE9060115F09AF8DDE90A23CDE9140130
:101E9000DDE9080114F0B2FDDDE90C23CDE90E0106
:101EA0004046494614F060FF02460B46DDE90E014C
:101EB00014F0A2FDDDE90423804689461046194648
:101EC00014F09CFD02460B464046494614F094FD32
:101ED00022462B4615F072F85246CDE916015B46B4
:101EE0005046594614F040FFDDE9022314F03CFF50
:101EF000DDE9062314F082FDDDE9082314F07CFD02
:101F0000DDE90A2314F078FD22462B4615F056F839
:101F1000214B0022CDE91A23CDE918015246DDE913
:101F20000C015B4614F068FD22462B4601F100418E
:101F300015F044F85246CDE91C015B46204629467F
:101F400014F05AFD22462B4615F038F80836CDE934
:101F50001E0114A920A8FFF71DFF20AC324626ADB4
:101F6000234603CBAB42106051601C4602F10802CD
:101F7000F6D11AA920A8FFF70DFF20A93046FFF7D8
:101F80001FFF0649384627B0BDE8F04F11F0E6BC08
:101F90000349F7E71C8D01080000F03F0C8A010897
:101FA000128A0108000000002DE9F04F2DED028B90
:101FB000054699466A4B45F8083B9DB0DDE92C671C
:101FC0009FED658B04469046002118222846DDE9E6
:101FD0002EAB11F05DF900220023C4E90823C4E907
:101FE0000A23C4E90E23C4E91023C4E91223C4E977
:101FF0001423C4E91623304642464B46394684ED45
:102000000C8B14F0B1FEDDE92A2314F0F7FC5246E4
:10201000CDE900015B463046394614F0A5FEDDE906
:10202000282314F0A1FE5246CDE902015B4640464A
:10203000494614F099FE3246CDE904013B4630464C
:10204000394614F0DBFC32463B46CDE90601DDE9BA
:10205000000114F0B3FFDDE90423CDE90A01DDE955
:10206000020114F0CBFC42464B46CDE90801DDE904
:10207000060114F079FE02460B46DDE9080114F072
:10208000BBFCDDE92A23804689461046194614F038
:10209000B5FC02460B464046494614F0ADFC3246BC
:1020A0003B4614F08BFF5246CDE90C015B4650468F
:1020B000594614F059FEDDE9282314F055FEDDE9F8
:1020C000002314F09BFCDDE9022314F095FCDDE90C
:1020D000042314F091FC32463B4614F06FFF524645
:1020E000CDE90E015B468DED108BDDE9060114F0A4
:1020F00083FC32463B4601F1004114F05FFF52463B
:10210000CDE912015B463046394614F075FC324683
:102110003B4614F053FFCDE914010AA916A8FFF7B6
:1021200039FE16AE2A461CAF334603CBBB421060C5
:1021300051601E4602F10802F6D110A916A8FFF759
:1021400029FE284616A9FFF73BFE20461DB0BDEC30
:10215000028BBDE8F08F00BF000000000000F03FE0
:102160005C8D010813B50DF1080C0CE90C00019B06
:102170000260C0E90131024BC36002B010BD00BF74
:102180007C8D010838B50D4610220021044611F05F
:102190007FF8EB681BB15B68294620469847EB68DF
:1021A000E360204638BD00F10803F7B5036004463C
:1021B00008460D46164613F083FC0F2805EB000772
:1021C000019007D9002201A9204606F0D1FE019B0B
:1021D0002060A36020683A46294606F003FF2046A7
:1021E000019B50F8182B63600021D1543146FFF752
:1021F000C9FF204603B0F0BDF7B50546382002F010
:10220000A7FC044604F118032361D5E900630F2BF2
:1022100000F1100006EB0307019306D9002201A983
:1022200006F0A6FE019B2061A36120693A46314673
:1022300006F0CEFE019B226963610021D15404F1B6
:10224000280005F11801FFF79DFF204603B0F0BDFF
:102250002DE9F041054610300E46FFF7CDFF2B78F3
:1022600003700023C0E9023346600446E86818B1F1
:102270002146FFF7EDFFE060AE6827464FF000080B
:1022800016B92046BDE8F08106F11000FFF7B4FF53
:1022900033780370C0E90288B86047600546F0688B
:1022A00018B12946FFF7D4FFE860B6682F46E7E784
:1022B00008B506F0A1FEC00F08BD2DE9F0418D68FC
:1022C00004460F4690460E1D012045B908B3FB6831
:1022D000B34211D1256066602046BDE8F08105F16A
:1022E00010014046FFF7E4FFD5E9022300282E46FF
:1022F00014BF15461D46E8E7304606F035FD054695
:10230000414605F11000FFF7D3FF20B10023236001
:10231000E1E73546F4E7C4E90050DDE700000000DE
:102320002DE9F04F2DED068B4FF41653ADF5137DCF
:1023300003220221B848DFF8B8A3DFF8B883B74E0C
:10234000B74FDFF8B49300F09FFCB64AB649B248E5
:1023500002F04CFAB54BCDF804A000930A221523E5
:102360001321B348FEF708FCAE4AB249B04802F068
:102370003DFAB14BB14A27214046FEF795FB0DF1DE
:10238000E00BA84AAE49404602F030FA1C22002178
:10239000584610F07DFF3AAD0521584601F069FA24
:1023A0000FCD6C460FC42B6823609BE80C0041F2F4
:1023B0008831A448A44CFEF7ADFA9A4AA349A14833
:1023C00002F014FAA24B2360A24B6360A24BA360FD
:1023D000E3600023356823616361A361FEF75EFC5F
:1023E0004FF400630246294600949C489C4CFEF73B
:1023F00037FD8C4A9B49994802F0F8F9864B974A79
:1024000064213846FEF7CEFA864A9749384602F0EC
:10241000EDF90FCC32AD0FC594E803000DF1C80CF7
:1024200085E80300BCE80F005C460FC495E8030094
:102430008E4D8F4B2B6084E803008E4B6B60DE4625
:102440008D4BAB60BEE80F0005F10C0CACE80F0043
:1024500094E803008CE803003068884C14F02CFCEE
:102460009FED65AB9FED669B9FED678BCDE9080106
:10247000CDE9060166A3D3E9002320468DED04AB28
:102480008DED029B8DED008BFFF78EFD9DED087BA2
:102490005FA3D3E900238DED067B8DED04AB8DEDBD
:1024A000029B8DED008B7648FFF77EFD754B039305
:1024B000754B0293754B0193754B00932B46754DED
:1024C000664922464846FEF75DFE2846724B734A2F
:1024D0006B49FEF7BBFF4FF07E5300931A22534621
:1024E00014216F48DFF814A2FEF75AFD4D4A6D49DA
:1024F0006B4802F07BF9CDE90195CDF800804C4B9B
:102500003168454A6848FFF793F8464A6749664884
:102510004FF0000802F06AF9654BCBF80480CBF865
:1025200000309BE80C0060492EA8FFF71BFE6149B4
:102530002EAA5846FFF737FE5F4B5B490DF198090D
:10254000C9E900382AA899E80C00FFF70BFE5B499F
:102550002AAA42A8FFF727FE594B534922AEC6E9E3
:102560000038484696E80C00FFF7FCFD55494A46FE
:102570004CA8FFF718FE544B4B491EADC5E9003877
:10258000304695E80C00FFF7EDFD5049324656A85D
:10259000FFF709FE4E4B4F49AF60C5E900384E4B7F
:1025A000EB602A4660A8FFF7FEFD4C4B4C491C949B
:1025B0001AAA6AA8CDE91A38CDF874A0FFF7F3FD7E
:1025C000484B394912AFC7E9003816A897E80C0004
:1025D000FFF7C8FD444916AA74A8FFF7E4FD434B72
:1025E0003149CDE90E380EAC94E80C003846FFF7BF
:1025F000B9FD85E0AFF300807B14AE47E17AA43FDC
:102600000188BB7A15192D3FEC51B81E85EBE93FC7
:10261000713D0AD7A370BD3F60120020A8010020C1
:10262000EC10002098010020651B00089A9999BEC3
:1026300000120020D90B00080000F0410000F0C19A
:10264000E50A0008A411002088110020ED08000808
:10265000448D0108721C47BF398EE33D08110020EC
:10266000888D0108111C000851090008C8100020BD
:10267000508D0108D7FA62BED7FA623E6010002082
:10268000F80F002000006143000061C36083974899
:10269000608397C8700F0020BF82D43DBF82D4BD35
:1026A000800E0020D1290008200E0020F91B000810
:1026B0006D160008298D01088D1800082B8D010862
:1026C000291700082D8D0108D5190008619001080F
:1026D000C50900082F8D0108708D0108DD1D000857
:1026E000318D010891170008338D0108DD180008AD
:1026F0009A99993ED0110020A80F0020648D0108FE
:1027000060493A467EA8FFF74EFD5F4B5F49C4E93A
:1027100000385F4B2246C4E9023A5E4C88A8FFF7B6
:1027200042FD231DC4E903330A2384F80480C4F85E
:102730000880C4F814800B93D8460B9B013B0B9385
:102740006BD192AC283C04F11800FFF7FDFA20464B
:1027500006F036FC5C45F5D10EA8FFF7F5FA3846D1
:10276000FFF7F2FA16A8FFF7EFFA1AA8FFF7ECFA4C
:102770002846FFF7E9FA3046FFF7E6FA4846FFF742
:10278000E3FA444C2AA8FFF7DFFA2EA8FFF7DCFA99
:102790004149424A204602F029F8A068002339A99D
:1027A000CBE903118BF80430CBF80830CBF81430A8
:1027B000A0B1FFF74DFD03461A469B68002BFBD1E5
:1027C000CBF80C2003461A46DB68002BFBD163696B
:1027D000CBF81020CBF81430CBF808005A4630491B
:1027E0003048FEF709F8DBF80800FFF7B5FA2B4A86
:1027F0002D492C4801F0FAFF2C4B2D492D4803227E
:10280000FDF7CAFD254A2C492A480DF5137DBDEC7C
:10281000068BBDE8F04F01F0E9BF63696BB1D4F8F6
:1028200010A041460AF11000FFF742FD28B1BAF1AD
:10283000000F0DD108F128087FE7424621460CA879
:10284000FFF73BFDDDE90C3ABAF1000FF2D0ABB96E
:102850001A4B9A4512D00AF110014046FFF728FDA5
:1028600008904046FFF7C8FC144B014652460898B2
:1028700006F094FA636901336361DBE7012308938F
:10288000EFE700BF358D0108DD1D0008378D010819
:10289000F80F0020080E0020871D00089801002076
:1028A00060120020B80A00208D04000817B7D13844
:1028B0009C010020680A0020510300080C0E002033
:1028C00010B50446FFF74EF92046B42102F066F930
:1028D000204610BDD0E90E232DE9F047C0E91023B2
:1028E000D0E90C23C0E90E23D1E90023C0E90C2371
:1028F0008246064600F11807002400253146D1E93A
:102900000023D1E90C0114F02FFA02460B462046B1
:10291000294614F073F80836B74204460D46EDD147
:10292000DAE90823DAE9140114F01EFADAE9128967
:10293000DAE9062306460F464046494614F014FAE3
:102940000022002314F05AF802460B46304639465E
:1029500014F054F802460B462046294614F04CF871
:10296000DAE90A2314F02AFB02460B46CAE9148965
:10297000CAE91223BDE8F08708B50830FFF7AAFFBF
:1029800008BDF0B5002487B00025CDE90045CDE9AC
:102990000245CDE9044503466F4600F130060DF1CE
:1029A000180C3A4603CA624530607160174606F15A
:1029B0000806F6D1C3E91245C3E9144507B0F0BDD6
:1029C00008B50830FFF7DDFF08BDFFF7A9BC000020
:1029D00010B5084B044640F8903FFDF7A7FC04F102
:1029E000700000F029FC04F11C0000F05FF82046A4
:1029F00010BD00BFFC8D0108C36810B52BB9054997
:102A0000054840F23B2201F0F7FBBDE810401B688F
:102A1000184700BF7489010893890108C36810B57D
:102A200004460BB19B689847204610BD0346024AF6
:102A3000203005F03DB900BFAF2B0008F8B50546C2
:102A4000134B45F8043B04460E4610271C22002178
:102A5000284610F01DFC3A46002104F1200010F039
:102A600017FC3A46002104F1300010F011FC3A4600
:102A7000002104F1400010F00BFC31462046FFF726
:102A8000D5FF2846314600F0EDFE2046F8BD00BFD8
:102A9000A88D010810B5044601F058FC04F120008F
:102AA00005F0CAF8BDE8104001F066BC10B5084B4F
:102AB000044640F8203B05F0D1F904F14000FDF751
:102AC0002CFC04F13000FDF728FC204610BD00BFAF
:102AD000A88D010810B50446FFF7E8FF20465021F5
:102AE00002F05CF8204610BD884238B504460D4619
:102AF0000ED0FDF712FC10220021204610F0C8FB7A
:102B0000EB681BB15B68294620469847EB68E36099
:102B100038BDF0B50D4685B0044601F017FCEE68EF
:102B200004F1300720346EB129463846FFF7DCFF48
:102B300001220121204605F04DF805B0BDE8F04026
:102B400001F01ABC10223146684610F0A1FB69461C
:102B50003846FFF7C9FF6846FDF7DFFB3246E8E776
:102B6000F0B50D4685B0044601F0F0FBEE6804F1C7
:102B7000400720346EB129463846FFF7B5FF0122E1
:102B80000221204605F026F805B0BDE8F04001F02E
:102B9000F3BB10223146684610F07AFB694638468E
:102BA000FFF7A2FF6846FDF7B8FB3246E8E70129C8
:102BB00008B502D0022907D008BDC36B002BFBD09B
:102BC0003030FFF719FFF7E7C36C002BF4D040302B
:102BD000F7E738B50023037604460D4601F0B6FB4F
:102BE0002046294605F0E2FB01F0C6FB204638BD31
:102BF00038B504460D4601F0A9FB2946204605F0EC
:102C000099FCBDE8384001F0B7BB38B504460D4625
:102C100001F09CFB2946204605F038FBBDE8384012
:102C200001F0AABB037E10B504461BB901F0FAFC03
:102C30000123237610BD38B504460D4601F086FB0E
:102C40002046FFF7EFFF2946204605F09BFABDE836
:102C5000384001F091BB037E10B504461BB101F072
:102C6000F7FC0023237610BD10B5044601F06EFB7F
:102C7000204605F081FA2046FFF7EDFF01F07CFBCE
:102C8000204610BD7047000010B5044600F000F962
:102C9000014B2360204610BDB88D010838B503688C
:102CA00004461B689847204600F0D2F82368054682
:102CB0005B6820469847284638BD38B50368044607
:102CC0001B680D4698472946204600F0C4F8236843
:102CD00005465B6820469847284638BD036870B5AE
:102CE0001B680D4604469847013D15F8016F2EB943
:102CF000236820465B689847304670BD31462046C1
:102D0000FFF7DBFFF1E72DE9F0410368A0B00E46C5
:102D100017461B68044698473B463246012101A8E6
:102D20000FF0A2FE7728054610DC31463A4602A88D
:102D30000FF0D2FE02A92046FFF7D0FF23682046FD
:102D40005B689847284620B0BDE8F081013001F06B
:102D500011FF3A46804631460FF0BEFE41462046FE
:102D6000FFF7BCFF404601F01BFFE7E70EB403B5D9
:102D700003AA52F8041B0192FFF7C5FF02B05DF8E9
:102D800004EB03B070476FF01500704703681B69D0
:102D9000184703689B69184703689B6A184700290E
:102DA0000CBF6FF0180000207047012070476FF0D3
:102DB000150070476FF01500704770477047024666
:102DC000406830B490B1D2E9034101F001052CB95B
:102DD00065B100EB610003681C5903E000EB610082
:102DE000002DF8D12346916830BC184730BC70479D
:102DF00000EB0113D3F89C3023B109311B6800EBC1
:102E000001101847704770B50646044656F8443B13
:102E10000D461B6898473046294605F05BFD236840
:102E2000C4F8B05020465B68BDE87040184738B51C
:102E30000546044655F8443B1B689847284605F06C
:102E4000FBFC236805465B6820469847284638BD4A
:102E5000443004F071BD10B544300C4604F07EFDE2
:102E6000204610BD884238B504460D460ED0FDF709
:102E700054FA10220021204610F00AFAEB681BB128
:102E80005B68294620469847EB68E36038BD000040
:102E90002DE9F04F9A4687B02E4B036000252E4B4C
:102EA000436010260446C0E90355C0E90555019169
:102EB00091468583324629468060203010F0E8F93B
:102EC00004F144073246294604F1300010F0E0F9DD
:102ED00004F190082946A4F840504C22384610F0DE
:102EE000D7F904F1A00B32462946404610F0D0F93C
:102EF00032462946584610F0CBF932462946C4F8E6
:102F0000B0A002A810F0C4F902A94046FFF7AAFF3A
:102F100002A8FDF702FA3246294602A810F0B8F9D5
:102F200002A95846FFF79EFF02A8FDF7F6F94A46A8
:102F30000199384605F0F4FCD4F8B010384605F095
:102F4000C9FC38460549224604F09AFC204607B0E1
:102F5000BDE8F08FD08D0108BF2D0008F12D0008CD
:102F60002DE9FF410646154656F8443B0F461B68BF
:102F70000446984701F0EAF92B012344FA68D3F894
:102F80009C3005F10908AAB10BB901F04BFB394699
:102F900004EB0810FFF766FF01223046294604F0D3
:102FA0007BFC01F0E9F923685B68204604B0BDE8CA
:102FB000F04118470BB101F04BFB1022002168468D
:102FC00010F066F9694604EB0810FFF74BFF6846FE
:102FD000FDF7A3F90022E0E71FB51A4B0360044692
:102FE00010220021684610F053F90022694620465D
:102FF000FFF7B6FF6846FDF790F9102200216846FA
:1030000010F046F9012269462046FFF7A9FF6846FD
:10301000FDF783F904F1A000FDF77FF904F19000BA
:10302000FDF77BF904F13000FFF7F8FC04F1200014
:10303000FFF7F4FCA06908B100F0A6FF204604B039
:1030400010BD00BFD08D010810B50446FFF7C4FFC6
:103050002046B42101F0A2FD204610BD70B5D0E994
:103060000813D0E902250446521845EB030300F08B
:1030700099F9636B2BB104F128001B68BDE870401F
:10308000184770BD10B5044600F05EF9084B236088
:1030900000220023C4E908230021102204F12800A3
:1030A00010F0F6F8012384F83830204610BD00BF38
:1030B000E88D010838B504460D4600F05DF90A4B6D
:1030C000236000220023C4E908230021102204F118
:1030D000280010F0DDF82B6893F8203083F001030E
:1030E00084F83830204638BDE88D010870B50446B4
:1030F00015461E4601F02AF9204600F05DF9C4E9A4
:103100000856A06900F0D1FE421946EB01032046A3
:1031100000F048F9BDE8704001F02EB9884238B59A
:1031200004460D460ED0FDF7F8F810220021204687
:1031300010F0AEF8EB681BB15B6829462046984753
:10314000EB68E36038BDF8B504461D460F461646E9
:1031500001F0FCF8636B23B994F838300BB101F03F
:1031600061FA394604F12800FFF7D8FF32462B46B2
:103170002046FFF7BBFFBDE8F84001F0FDB81FB5E2
:10318000044601F0E3F8204600F016F9636B23B122
:1031900094F838300BB101F05BFA10220021684638
:1031A00010F076F8694604F12800FFF7B7FF68468B
:1031B000FDF7B3F804B0BDE8104001F0DDB8000041
:1031C00010B5034B03600446FDF7B0F8204610BD70
:1031D000FC8D010810B50446FFF7F2FF20464021A0
:1031E00001F0DCFC204610BD1FB504461022002172
:1031F000684610F04DF8636B23B15B6804F1280159
:1032000068469847636B03932046FFF7B8FF039B1C
:103210002BB90749074840F23B2200F0EDFF1B683D
:10322000684698476846FDF778F804B010BD00BFBF
:10323000748901089389010810B5044601F086F8E5
:1032400023681BB1237F0BB101F002FA0023236036
:1032500001F092F8204610BD10B5044601F076F852
:10326000236853B9237F0BB101F0DCF9A06900F0AA
:103270001CFEC4E9020101232360BDE8104001F0F7
:103280007BB838B5054601F061F82C6864B1A869CF
:1032900000F00BFED5E90245041B61EB050501F0CA
:1032A0006BF82046294638BD2546F8E770B5054637
:1032B00001F04CF82846D5E90446FFF7E2FF241850
:1032C00046EB010601F058F82046314670BD08B5BE
:1032D000FFF7ECFF08BD000008B5FFF7E7FF14F0AB
:1032E00053F9DFED047A07EE100AC7EE277A17EEDE
:1032F000900A08BD0024744910B5044601F026F870
:10330000A06900F0D2FD00220023C4E90201C4E953
:103310000423BDE8104001F02FB8002310B50022AF
:1033200003600023C0E90223C0E90423044600F03F
:10333000CFFD0123A06123772046FFF7DDFF204664
:1033400010BD03689B681847094B10B50022036045
:103350000023C0E902230023C0E90433044600F03F
:10336000B7FD0449A06100F015FD204610BD00BF67
:10337000108E01084333000810B50446074B236044
:1033800000220023C4E9022300230846A161C4E906
:103390000433034900F0FEFC204610BD108E0108E6
:1033A0004333000807B5009000F10801806900F080
:1033B0002FFD03B05DF804FB00F10801806900F007
:1033C00059BD000010B5034B03600446FFF7F4FF3E
:1033D000204610BD108E0108036801221B690021E0
:1033E0001847036800221B6911461847034607C99E
:1033F00083E807007047704710B442688168541032
:10340000034601EB6200D20748BF0A591B685DF80A
:10341000044B48BFD358184738B504460D4600F052
:1034200095FF94F857302BB994F8563013B994F8A7
:1034300054307BB104F10800FFF7A1FE002384F8AB
:103440005530A4F856300DB12046A847BDE83840A5
:1034500000F092BFA36CDB689847F7E710B504460D
:1034600000F074FFA36C9B689847BDE8104000F023
:1034700083BF10B5044600F069FFA36CDB68984772
:10348000BDE8104000F078BF10B5044600F05EFFC4
:10349000012384F85730A36C5B699847BDE810405E
:1034A00000F06ABF10B5044600F050FFA36CDB6962
:1034B0009847044600F060FF204610BD38B504462A
:1034C00000F041FF20B914491448C22200F094FED4
:1034D00004F10800FFF753FE0023C4E9173384F812
:1034E0005530A4F856306366A36C012584F8585013
:1034F000DB699847436802681F2B9ABF9D4005F11E
:10350000FF354FF0FF3502F5742303F23F23A56624
:10351000B3FBF2F3E36638BD1C8E0108458E01084B
:10352000F8B504460E46083017461D46FFF7AAFDBB
:103530000B4BA3603368A364069B013323650135FD
:10354000002384F85430E56400F000FF7368636082
:1035500020462760FFF7B2FF00F00EFF2046F8BDBF
:10356000FC8D010810B5044600F0F0FE2046FFF780
:10357000A5FFA36C1B689847BDE8104000F0FCBE97
:1035800010B5044600F0E2FE2046FFF797FFA36C5B
:103590009B699847BDE8104000F0EEBE38B5044680
:1035A0000D4600F0D0FE20B909490A48F02200F08B
:1035B00023FE94F856304BB1D4E91720904205D041
:1035C000294600F0C7FA031E18BF0123184638BD6C
:1035D0001C8E0108458E010838B5044600F0B6FE81
:1035E000A36C5B68984794F8543005463BB9014694
:1035F0002046FFF7D3FF10B1A36C5B69984700F03A
:10360000BBFE284638BD000038B505460C4600F024
:103610009AFE20B904490548FC2200F0EDFDE86E51
:103620006043043038BD00BF1C8E0108458E010880
:103630007FB504460D4600F086FE28B9334934486C
:103640004FF4827200F0D8FD94F85830A26E43B95E
:10365000636EE16CEB1A13408B4224BF012384F8A4
:103660005830E06D236D451B154094F85820F2B991
:1036700094F85560CEB9274A02949D42CDE90026C0
:103680002946254A039228BF19462046FFF7BCFF6A
:1036900033460246694604F10800FFF754FD6846C8
:1036A000FCF73BFE012384F8553004B070BD9D4209
:1036B0002AD3A36C1B699847A36C5B6898470023C7
:1036C000E16D84F85830A36E6066091A19408D4286
:1036D00005D2A36C5B6904B0BDE870401847236D48
:1036E0008B42E2D9236D0B4A009299420A4A039217
:1036F0004FF0000528BF19462046CDE90154FFF7D9
:1037000083FF2B460246C5E72946EBE71C8E0108DE
:10371000458E010861370008688E010838B50446F7
:103720000D4600F013FEA36C5B689847012384F8F4
:10373000563094F85430C4E91750014633B9204646
:10374000FFF776FFBDE8384000F016BEA36C2846B0
:103750001B699847236E6366002384F85830F1E7AD
:1037600038B5044600F0F2FD002384F85530A36C10
:103770005B6898470546D4E91720904206D1A36CB0
:103780005B699847BDE8384000F0F6BD294600F077
:10379000E1F90028F3D129462046FFF749FFF1E778
:1037A000EFF3108372B6054A117831B90449DB434F
:1037B00003F001030B7001231370704714130020F2
:1037C0001513002008B5EFF31083DB4313F001035A
:1037D00004D006490648362200F00EFD054A137053
:1037E000054B1B7803B162B608BD00BF748E01089B
:1037F0009F8E01081413002015130020014B187828
:10380000704700BF1413002070B50E4604461546DD
:1038100004F04AF9013609D02046002104F068F985
:1038200029462046BDE8704004F05EB970BDF8B589
:103830000F46044615461E4604F036F9013710D0EF
:1038400020685EB1A36818600121204604F050F999
:1038500029462046BDE8F84004F046B9E368000474
:10386000F1E7F8BD0022FFF7CFBF13460022FFF7B4
:10387000DEBF0022FFF7F9BF014800F051B800BFDA
:10388000BC8E0108014B186800F034B8AC01002070
:10389000014B1868FFF706BED0130020014B1868D3
:1038A000FFF76EBED0130020014B1868FFF7ECBD88
:1038B000D0130020024B01461868FFF72FBF00BF4E
:1038C000D0130020014B1868FFF7D3BDD0130020A0
:1038D000014B1868FFF7C2BDD0130020014B1868D8
:1038E000FFF77ABED0130020014B1868FFF73ABEED
:1038F000D013002010B5044600F028FD064B1B78BD
:103900000BB9FFF7B9FF054B21461868FFF784FD97
:10391000BDE8104000F030BD58130020D013002047
:103920002DE9F3410C4F0D4E054600F00FFD3B789D
:1039300063B9DFF830800A4A0124009423462946FF
:103940004046FFF7EDFDC6F800803C7000F014FD26
:10395000306802B0BDE8F08158130020D013002079
:10396000E88E01086013002013B50446601C0FD1D7
:1039700002B010BDA3420AD12046896804F008FBBA
:103980000021204602B0BDE8104004F095BB0C3188
:10399000B1F900305A1CEDD10023034903480093CC
:1039A000224600F025FE00BF0C8F01083001018087
:1039B00007B502468A4208460AD0531C08D0013097
:1039C00005D0002304490548009300F011FE10467D
:1039D00003B05DF804FB00BF1D8F010830010180BA
:1039E000B1F900305A1C01D118467047834201D109
:1039F000486870470C31F3E7421C13B504460AD0FF
:103A0000FFF7EEFF431C06D100230449044800934E
:103A1000224600F0EDFD02B010BD00BF2E8F010860
:103A200030010180B1F900305A1C01D118467047AD
:103A3000834201D1886870470C31F3E7421C13B50B
:103A400004460AD0FFF7EEFF431C06D100230449C9
:103A500004480093224600F0CBFD02B010BD00BF29
:103A60004E8F0108300101802DE9F843456895F833
:103A70003A600446002E49D103685B689847636842
:103A80001B6A834242D02C6AAF682862041B30480C
:103A9000EB68874204EA030431D095F83B30D5E95E
:103AA0000A98A4FB0001D3B3C3F1200620FA03F463
:103AB00001FA06F6A3F1200221FA02F2344314437C
:103AC00021FA03F6A3F1200EC3F1200C06FA03F24B
:103AD00004FA0EFE19EB000004FA03F342EA0E02A8
:103AE00024FA0CFC48EB010142EA0C02C01A61EB1B
:103AF0000201B84271F100030AD2C5E90A01D5E911
:103B00000C321B1946EB0206C5E90C36BDE8F883FA
:103B1000013446F10006C01B61F10001EDE73346B8
:103B20003A4613F077FD12EB090248EB0303BA4261
:103B3000044673F100000E4602D2C5E90A23DEE70F
:103B4000013441F10006D21B63F10003F5E700BF29
:103B500040420F00824206D98A420BD9884294BF64
:103B6000002001207047884206D98A428CBF00207D
:103B70000120704701207047002070472DE9F04177
:103B8000466896F83A300546002B67D196F83930EA
:103B9000002B63D1FFF768FF6F687A68002A5FD057
:103BA000D7E90C10D2E90032994270EB020404D339
:103BB0002B68BDE8F0415B6918475B1A62EB0002B5
:103BC000D7E90601984291413C6906D3B968294872
:103BD00081420FD19C4228BF1C463B6A1C44FB68B3
:103BE0001C40336AA3422BD12349244840F21B12C4
:103BF00000F002FB97F83B00D8B1A0F1200EC0F115
:103C0000200C02FA00F103FA0EFE23FA0CFC03FA70
:103C100000F01B4B41EA0E0141EA0C01C01841F1D2
:103C20000001144A002313F0F5FC844228BF044627
:103C3000D3E7A1FB033001FB020111481818EEE79E
:103C40002B6820461B6998472B685B68984722467B
:103C50000146306AFFF77EFF0028A9D1BDE8F08158
:103C60003369306AF26818442B681040BDE8F041AF
:103C70001B69184740420F006C8F01088D8F0108A7
:103C80003F420F002DE9F04F436893F8382085B08C
:103C90000446002A70D193F83A30002B6CD10368A7
:103CA0001B6898472368DB699847D0F800A0BAF1F1
:103CB000000F1CD0BAF1004F23D04FF01E08012294
:103CC000B8F1000F07D002FA08F5AA4508F1FF3154
:103CD00015D15FFA88F847683B1F1C2B4FF0000690
:103CE00012D92749274800963346324605E026492F
:103CF0002648CDF800A05346524600F079FC88468D
:103D0000DEE74FF01F08E6E71AF1FF30204D4FF0D5
:103D1000070946F1FF3109FA03F952463346C9FB58
:103D2000050113F077FC656822680390C5E9006619
:103D300052688B4690470122039B286202FA07F7DC
:103D4000656800210020013FC5E90A01C5E90C01B1
:103D5000C5E903792046C5E9063BC5F808A085F802
:103D60003B802A8785F83A60FFF77EFE204605B043
:103D7000BDE8F04FFFF702BF05B0BDE8F08F00BF10
:103D8000CA8F010805010480B18F01080E0104806B
:103D900040420F0038B505460C46FFF773FF00F0B0
:103DA000D5FA6B681C60BDE8384000F0E5BA70B524
:103DB000044600F0CBFA2368DB689847636893F801
:103DC0003A201AB1BDE8704000F0D6BA012283F85B
:103DD000392063685B689BB12046FFF745FE636846
:103DE0005A68D3E90C61D2E90050AE42814107D351
:103DF000D16859601B68002BEBD090689847E8E7C2
:103E00006368002283F839202046FFF7B7FED9E720
:103E10002DE9F34105460C461E461746DDF8208085
:103E200000F094FA2846FFF71FFE6B68C4F808807C
:103E3000C4E900765968002031B9E16078B95C6066
:103E40002846FFF79BFE10E04A6801920A689742F5
:103E5000019A76EB0202F0D30846C968ECE7D3E991
:103E60000C23BA42B341C460EAD202B0BDE8F041CB
:103E700000F082BA38B505460C4600F067FA6A6869
:103E80005368A34209D1DB6853602846FFF776FEEA
:103E9000BDE8384000F070BA1346002BF8D0DA685D
:103EA000A242F9D1E268DA60F2E738B50446FFF7DA
:103EB000E9FE00F04BFA2046FFF7D6FD6368D3E930
:103EC0000C4500F059FA2046294638BD70470000DD
:103ED0000048704708900108024B1B680BB102486C
:103EE00018477047B00100200890010808B5BFF3DB
:103EF0005F8F1D4BD3F89010080A10F0FC0FC1F330
:103F0000072104D119491A483A2200F075F9002214
:103F1000C3F8942010468A421FD11022C3F89C2077
:103F2000144AC3F8A0201322C3F89C20124AC3F8F5
:103F3000A0201122C3F89C20104AC3F8A020104AE8
:103F4000C3F89C200F4AC3F8A0200722C3F894208E
:103F5000BFF34F8FBFF36F8F08BDC3F89820C3F82E
:103F6000A0000132D7E700BF00ED00E03490010867
:103F70005690010839F00206390702133FF50B137A
:103F80001200008039000213024B1B6803B118476E
:103F9000704700BF18140020002070474FF0100336
:103FA00000F00CB84FF0200300F008B84FF03003D9
:103FB00000F004B84FF0400300F000B8EFF30880C1
:103FC0004FF0040172460A4201D0EFF309809C468B
:103FD000254B196802680A60043142680A6004319E
:103FE00082680A600431C2680A600431F0C1474641
:103FF0000F6004314F460F60043157460F600431A3
:104000005F460F60043102690A60083142690A6044
:10401000043182690A600431C2690A6004310346CE
:1040200020334FF40076324200D0043375464FF00F
:104030001006354200D148330C46103C2360EFF3A4
:1040400009820A600431EFF308820A600431724683
:104050000A600431EFF314820A606046024B19686B
:1040600000F07AF8FEE7000020920108F0B52C4E2F
:104070002C4F85B000243546214656F8042B38468F
:10408000013400F047F90D2CF6D1AB6C02936B6C48
:1040900001932B6C244C0093D5E90E23696B2348C4
:1040A00000F038F92168224800F034F9E16AA26A88
:1040B000A36AA06A266BE76B000CCDE9016700904C
:1040C000C3F307231B48D2B200F024F9A36A1E06EB
:1040D00003D5616B184800F01DF9A36A180403D5D5
:1040E000A16B164800F016F9EB6C190712D51448AD
:1040F00000F010F92B6DDA070FD5124800F00AF91D
:10410000EB6C5B074CBF1048104805B0BDE8F040B1
:1041100000F000B90E4800F0FDF80E48EEE700BFD1
:104120001C1400206390010800ED00E0719001086C
:10413000C0900108CE9001081D9101082B91010843
:10414000399101084891010878910108849101088A
:10415000689101085591010813B50446154800F00F
:10416000D9F8302C17D0402C1AD0202C1DD1124851
:10417000124C00F0CFF8124800F0CCF8FFF776FFB1
:10418000104800F0C7F8104A104900230093D26B82
:10419000204600F02DFA0E480E4C00F0BBF8EAE77E
:1041A0000D480E4C00F0B6F8E5E70D480D4C00F058
:1041B000B1F8E0E790910108B99101083E01FF8054
:1041C000E6910108F19101081C14002010920108E9
:1041D000C89101083F01FF80D19101084001FF8093
:1041E000DC9101083D01FF800EF0A2BC05F0A6BFE6
:1041F00007F0A6B910F034B907B50B460092014696
:104200000022014800F0F4F94401FF800346012236
:10421000D3E84F0FC3E8412FC0B20029F8D170474F
:10422000D0E85F3F5B18C0E8523F002AF8D198B24F
:104230007047D0E85F3F5B1AC0E8523F002AF8D1D0
:1042400098B27047D0E84F3FC0E8421FD8B27047DD
:1042500000B589B000F07AF8052101A8FFF709FB45
:10426000114E124D0424039B019A1A60304600F04F
:1042700099FC019B049A1B041360304600F092FCE9
:10428000013CF0D10424039B019A1A60284600F0F7
:1042900089FC019B049A1B041360284600F082FCF1
:1042A000013CF0D1DEE700BFF0490200801A0600B1
:1042B00010B5014604460022022000F03DFB00F04C
:1042C00045F8204611F0FCFB21460246022000F092
:1042D00033FBBDE8104000F04FB8000000B5A3B0BC
:1042E00002460B4601A884210EF0BEFB832806D9A6
:1042F000074B1A681B79CDF883208DF8873000288A
:1043000002DD01A8FFF7D4FF23B05DF804FB00BF76
:10431000249201080FB407B504A951F8040B0191C8
:10432000FFF7DCFF03B05DF804EB04B07047EFF378
:104330001080C04300F001007047EFF305800038A3
:1043400018BF01207047FFF759BA000008B5FFF702
:1043500027FA064A1368591C04D1054905483F222B
:10436000FFF74AFF0133136008BD00BF701400203F
:104370002992010854920108044A136823B1013BB1
:1043800013600BB9FFF71EBA704700BF701400200E
:1043900008B50B48FFF73AFF28B1FFF7D7FFBFF387
:1043A0004F8F20BFFDE7FFF7C8FF08B1FFF750FFB1
:1043B000FFF7BDFF0028F9D0012000F0A5FB00BFEA
:1043C000E4140020F0B5214B8FB016461C2210EAF1
:1043D000200738BF1F460D460DEB020000210EF0EE
:1043E00057FF1B4B03955B690493DA6B05925A6B7D
:1043F0001B6B069201ACCDE90734CDE90176FFF7DE
:10440000A5FF144A13680133012B136009D1264616
:104410000FCE114D0FC50FCE0FC50FCE0FC5336890
:104420002B600FCC0D4D0FC50FCC0FC50FCC0FC59A
:1044300023682B600A4B1B6813B1A5F13000984725
:10444000FFF79AFF00200FB0F0BD00BF0101FF8011
:10445000BC020020E0140020AC14002078140020DE
:10446000741400202DE9FF41374C0E462168C1F33A
:104470004173032B0CBF4D428DB2C1F307438046FD
:10448000174632482A46FFF745FF6FF498731D44DC
:10449000132D0FD8DFE805F00A3E4144474D4A503E
:1044A0000E0E0E0E0E0E0E0E0E0E0E53A1682848A6
:1044B000FFF730FF4046FFF7FBFE61682548FFF736
:1044C00029FF4EB12448FFF7F3FE3046FFF7F0FE18
:1044D00022483946FFF71EFFA1682148FFF71AFF5F
:1044E000E268E36951680293A369019363691D4817
:1044F0000093002908BF014623691B48FFF70AFF04
:1045000021681A48FFF706FF194804B0BDE8F041DA
:10451000FFF700BFA1681748CAE7A1681648C7E7B8
:10452000A1681648C4E7A1681548C1E7A168154805
:10453000BEE7A1681448BBE7A1681448B8E714486F
:10454000FFF7E8FEB6E700BF781400208F9201085D
:10455000E09201088893010899930108A19301084A
:10456000A593010885920108B993010811940108E7
:1045700060940108F692010806930108159301085A
:10458000289301083C930108509301085F930108A8
:10459000759301080FB407B50D4801217546FFF763
:1045A00051FE044688B901462A460A48FFF70AFF29
:1045B000094822462146FFF755FF049805A90191B5
:1045C000FFF78CFE0548FFF773FEFFF7E1FE00BF23
:1045D000E51400200001FF807A9401080E92010882
:1045E00000207047014B1878C0B27047E5140020D6
:1045F00080B506460C460A480121F04617461D467E
:10460000FFF720FE48B9424639463046FFF7DAFE4A
:10461000029A29462046FFF725FFFFF7B9FE00BFA3
:10462000E514002013B5074C01212046FFF7F8FDE3
:10463000034628B90090228803490448FFF7D8FFB1
:1046400002B010BDE61400208F94010823010480FD
:1046500013B5094C01212046FFF7EBFD4FF6FF7320
:10466000984206D100230093228804490448FFF7AA
:10467000BFFF02B010BD00BFE6140020B1940108D6
:1046800024010480034B188880B2B0FA80F04009FE
:10469000704700BFE614002008B5FFF757FEFFF78C
:1046A000F1FF28B104F016FABDE80840FFF764BE38
:1046B00004F004FAF8E76FF01C0070476FF0150083
:1046C000704701207047002070477047034B1868FF
:1046D00018B14FF0FF3101F05DBA70478C15002022
:1046E000024B186808B101F06DBA70478C150020B4
:1046F000F8B5074F15460C468E18B44201D128462E
:10470000F8BD14F8011B384603F028F9F5E700BF9F
:10471000B02F002038B511F001040D4605D008482F
:1047200004F08AF8041E18BF0124EB0605D50448DE
:1047300004F098F808B144F01004204638BD00BFDA
:10474000B02F002010B504460EF0EAF9204610BD47
:1047500010B510460C4622B1024803F0EDF8207067
:10476000012010BDB02F002038B51D46074B036057
:10477000074B1B68044633B9064804F0D1F80548D6
:10478000294604F0A7F8204638BD00BF1896010856
:10479000FC2F0020B02F0020002070470020704721
:1047A00007B500230249034800931A46FFF720FF8C
:1047B000CF9401082901018008B5012000F0A4F977
:1047C000074A084913681844884289BF064B10609D
:1047D0000C224FF0FF308CBF1A601846704700BFA4
:1047E000B4010020007C0120AC3000200120704783
:1047F0000120704708B500F04DFA08BD08B500F07B
:1048000051FA08BD10B50446037803F00303012BE9
:1048100008D0FFF75BFF237803F00302012A03D1DE
:10482000FFF75EFF002010BD2AB10549054840F2A0
:10483000E652FFF7E1FC43F0020323700120F2E7A8
:10484000D99401080695010808B5037803F003021E
:10485000022A05D00749084840F2EF52FFF7CCFC86
:1048600023F0030343F001030370BDE80840FFF7A2
:1048700037BF00BFD9940108249501083F2870B5BF
:1048800004462DDC174E56F820305A1C26D102283B
:1048900024DCFFF783FF0346F0B92046FFF77CFFD7
:1048A0000346C8B9104D2B68BFF35B8FDB0712D4EA
:1048B0002846FFF7A7FF70B14FF4165303220221D9
:1048C0000A48FFF751FF0A4A0A490848FFF78EFFD6
:1048D0002846FFF7B9FF054B46F82430184670BD4F
:1048E0000023FBE7B8010020E8140020EC140020AE
:1048F00098010020CB46000838B50446FFF7BEFFFC
:104900000B4B002543F8245030B907F007FF09236B
:1049100003604FF0FF3038BD03685B699847041EA1
:1049200004DA07F0FBFE64420460F2E72846F2E78F
:10493000B8010020FFF7E0BF38B50C461546FFF779
:104940009DFF38B907F0EAFE092303604FF0FF34FA
:10495000204638BD03682146DB682A469847041E76
:10496000F6DA07F0DBFE64420460EFE773B5054654
:104970000E461446FFF7E1FC30B100230E490F4804
:1049800000932A46FFF734FEFFF7D1FC0028F4D04D
:10499000201E07DA07F0C2FE162303604FF0FF3037
:1049A00002B070BDFCD0024631462846FFF7C4FF76
:1049B00040EAE070F4E700BF5B9501082F01018039
:1049C00038B50C461546FFF759FF38B907F0A6FE73
:1049D000092303604FF0FF34204638BD03682146A9
:1049E0009B682A469847041EF6DA07F097FE644251
:1049F0000460EFE773B504460E461546FFF79DFCCD
:104A000030B100230D490E4800932246FFF7F0FD18
:104A1000FFF78DFC0028F4D0002D07DB2A46314635
:104A2000204602B0BDE87040FFF7CABF07F076FE2F
:104A3000162303604FF0FF3002B070BD959501085A
:104A40002F01018010B5FFF719FF30B907F066FE9E
:104A5000092303600024204610BD0368DB699847E2
:104A6000041EF8DA07F05AFE64420460F2E7FFF72A
:104A7000E9BF38B50C461546FFF700FF38B907F017
:104A80004DFE092303604FF0FF34204638BD036814
:104A900021461B692A469847041EF6DA07F03EFEB7
:104AA00064420460EFE7FFF7E4BF10B5FFF7E6FEEE
:104AB00030B907F033FE092303604FF0FF3010BD1B
:104AC00003689B699847041E04DA07F027FE6442D6
:104AD0000460F2E70020F2E70A4D08B52B680446AF
:104AE000986810F0DDFD2B68D86810F0D9FD012022
:104AF000FFF7DBFF0220FFF7D8FF0CB1FFF7A8FBA1
:104B0000FEE700BFEC08002008B5FFF7E5FF38B569
:104B10000D46FFF7B3FE044630B907F0FFFD092349
:104B200003604FF0FF3038BD0368DB699847002809
:104B30000CBF4FF400434FF400536B6023682046D2
:104B40009B6A984728610020EDE7FFF7E0BF00006F
:104B500013B504460DF0DCFF034628B90090034965
:104B600003482246FFF744FD02B010BDD19501086D
:104B70001F01018013B504460DF0CAFF034628B992
:104B80000090034903482246FFF732FD02B010BDF2
:104B9000EE9501081F0101800DF0C2BF0DF0C0BFEE
:104BA0000DF0BEBF034A516A536A5B1A8342FBD3BE
:104BB000704700BF000C004013B50446FFF7BDFB73
:104BC00030B100230749084800931A46FFF710FD4B
:104BD000FFF7ADFB0028F4D0204602B0BDE810403E
:104BE00001F09EBC6C9601080601018008B5094BD6
:104BF000094A1A60094B9B1A094A1360094B0A4A71
:104C00001A600A4B9B1A0A4A136000F051F800F030
:104C10007DF800BF5C150020007C01200080012091
:104C200058150020F4140020F0310020007C0120F1
:104C3000F01400200E4838B50E4B03600B250E4BC8
:104C400045601C24C460836000F08CFF0B4B18602F
:104C50000B480C4BC460C0E900350B4B836000F07F
:104C600081FF0A4B1860BDE838400EF089BB00BFD9
:104C700028150020B396010838150020541500208F
:104C8000F8140020C0960108081500202415002003
:104C9000FDF728B8024B4FF0FF31186800F07ABFDB
:104CA00054150020014B186800F08CBF54150020EB
:104CB00008B5FFF71BF90C4B0C4998684FF00053EF
:104CC000C21802F16042126843F8042B8B42F7D1FC
:104CD000054B4FF000529A6003F020F903F0D2FF29
:104CE000BDE8084000F010B800ED00E0940100209D
:104CF000704708B5FFF79EFFFFF7FAFFFFF770FC5C
:104D0000BDE80840FFF7C4BF00F060BA07B5174818
:104D1000174B03600B2343601C23164CC360164BD8
:104D20008360164B23614FF4805363614423E36037
:104D3000134BA3601823A361124B236000F012FFF2
:104D4000114B224618600021104801F01DFB03465C
:104D500028B90F49009022460E48FFF749FC00F0A1
:104D60004DFA00230C4900931A46F5E76015002020
:104D7000CA960108D825002070150020D8150020FB
:104D800090150020DA9601088C150020F34C0008DD
:104D9000DF9601081D010180FB96010873B50646E8
:104DA0000C461546FFF71EFC58B906342ABF064BC1
:104DB000064953F824100023009332462846FFF793
:104DC00017FC02B070BD00BFC49801081898010814
:104DD00008B500F071F8000007B50023411E0093EC
:104DE00002460023042919D8DFE801F003080C105B
:104DF00014000C490C480122FFF7FAFB0B490C4840
:104E00000222F9E70B490C480322F5E70B490C484D
:104E10000422F1E70B490C480522EDE70B490C4849
:104E2000EAE700BF109701082501028031970108C9
:104E30002601028056970108270102808B970108FE
:104E400028010280C69701082A01028006980108FD
:104E500000010280014A0146FFF7A0BF3101018035
:104E6000014AFFF79BBF00BF32010180014AFFF7F3
:104E700095BF00BF33010180014AFFF78FBF00BF1C
:104E80003801018010B501F097FA034B1B6813B18C
:104E9000BDE81040184710BDFC25002008B5FFF7FD
:104EA00055FAFFF7BFFBFFF7F7FBFFF7D1FBBDE8B4
:104EB0000840FFF761BA000008B5024C2368984724
:104EC000FCE700BFB80200201EF0040F0CBFEFF398
:104ED0000880EFF30980816911F8021C91BB01B5CC
:104EE00090E80F10E047BDE800508CE80300244B29
:104EF00093E80600914208BF704741B91EF0100FB9
:104F000010D12049086820F0010008600AE02CE96F
:104F1000F00F1EF0100F08BF2CED108AC1F838C03A
:104F200081F822E01A6092F82210906B61F0FF0E77
:104F30001EF0100F08BFB0EC108AB0E8F00F80F33D
:104F400009887047104A13689942FAD801B552F897
:104F500021C00FC8E047BDE80050CCF80000704702
:104F600001B500F08DFEBDE80140EFF3098CBEE70E
:104F700001B500F04DFEBDE80140EFF3098CB6E746
:104F8000D002002034EF00E08899010808B50146FE
:104F900010B1132001F066F9002008BD08B5EFF349
:104FA00005834BB9EFF3108333B9EFF311831BB9CA
:104FB000DFF814C000DF08BD6FF0050000F006F850
:104FC0006FF00500F7E700BF8D4F00087047EFF363
:104FD00010832BB9EFF31180003818BF0120704700
:104FE0000120704770B5484C217A012900F08A8071
:104FF00031B14FF0FF30FFF72DFF4FF0FF3070BDA4
:10500000424D9C2204F108000EF042F9D5E90B61F3
:10501000EB68E3652B8AA4F854303046AB68236410
:1050200000F002F908B1C4F88060D5E905613046A6
:1050300000F0FAF808B9D4F880606667D5E907612E
:10504000304600F0F1F808B9D4F88060A667D5E9D9
:105050000961304600F0E8F808B9D4F88060E667E6
:105060006E6B3EB1D6E902233168304600F046F956
:10507000C4F88460AE6B3EB1D6E902233168304695
:1050800000F03CF9C4F88860EE6B3EB1D6E902232B
:105090003168304600F032F9C4F88C602E6C3EB1B5
:1050A000D6E902233168304600F028F9C4F8906050
:1050B0006E6C3EB1D6E902233168304600F01EF92D
:1050C000C4F89460AE6C3EB1D6E902233168304634
:1050D00000F014F9C4F89860EE6C3EB1D6E90223F2
:1050E0003168304600F00AF9C4F89C602D6D3DB17E
:1050F000D5E902232968284600F000F9C4F8A05039
:105100000123237200207AE7BC02002020990108C5
:1051100070B5284C237A012B07D06FF00600FFF7FB
:1051200099FE4FF0FF35284670BD01F00DF910B91A
:105130004FF0FF30F3E7204AFF2382F8223092F845
:10514000223063F0FF03DB4304D1D268C2F30222B2
:10515000531C08E0D268B3FA83F3C3F12003C2F30F
:1051600002229342F4D9FE2202FA03F3134E124AAA
:1051700013497068DBB2D37701F096F90546002831
:10518000D6D101F0C9F9206101F0AEF90D4800F067
:10519000B7FE00F017FF336813F0010F4FF0020362
:1051A00003D083F314882372BDE7032282F31488AB
:1051B000F9E700BFBC02002000ED00E020990108E3
:1051C000714F0008D80200207047000008B5FFF7B3
:1051D000FBFFEFF3058333B16FF00500FFF73AFEF5
:1051E0006FF0050008BDFFF7F2FE0028F4D1DFF8EC
:1051F00008C000DFF6E700BFE54F000808B5EFF391
:10520000058333B16FF00500FFF724FE6FF0050052
:1052100008BDFFF7DCFE0028F4D1DFF808C000DF8E
:10522000F6E700BF1151000810B5034688B10843E6
:1052300010F007000DD117290AD91960083910227A
:10524000CC189C605A60585099684A60D860012018
:1052500010BD0020FCE770B5034668B361B3032AB4
:105260002AD80F3121F0070600F1080421462468EE
:105270004D68601A25F00305401B864203D920685B
:105280000028F3D170BD5D68186835445D60034443
:10529000083B5868854288BF5D604B6832431BB944
:1052A0004A6001F10800EDE723F00303C818CC5071
:1052B000426008600830E5E70020E3E710B50346E8
:1052C00080B1C9B1A1F1080400F108020021A24295
:1052D00009D1506820F003045868001B586041B998
:1052E0005160012010BD106811460028FAD0024616
:1052F000EDE713680B60F4E70846F3E730B5C0B19B
:1053000089B1C2B1CBB10024C0E9014202FB01F472
:105310001D190160C360436105611846013904D15C
:10532000A41A19510121084630BD85180560284688
:10533000F4E70146F7E71146F5E71946F3E710B53C
:10534000034608B9002010BD00F1140252E8000F16
:1053500010B9BFF32F8F04E0016842E8001404B1D4
:10536000F4E70028EED0043353E8002F511C43E843
:10537000001404B1F8E7E6E730B5F0B1C3688B423A
:105380001BD803698B4218D900F114031A680A600C
:10539000BFF35F8F53E8002F0C689442F6D143E8C7
:1053A000001505B1F2E7043050E8003F5A1E40E80E
:1053B000002101B1F8E7002030BD6FF00300FBE7EA
:1053C000EFF310832BB9EFF31180003818BF0120E1
:1053D000704701207047D1E9013223B19A608A6891
:1053E0001AB153607047C262F9E703637047000067
:1053F0002DE9F84F8846074600B141B96FF0030127
:105400000020FFF739FD00242046BDE8F88FCE1CB0
:1054100026F003060C36B0FA80F104D0B6FA86F313
:105420000B441F2BEADD06FB07F9002A5DD09468C8
:10543000D2F800A0D2E9045314B3A1071DD1D26859
:10544000332A1AD9002D34D1FBB99B46324B0022A6
:10545000D86F4946FFF7FFFE0546002854D1BBF13F
:10546000000F07D02C4BD3F8A0002146002846D0CF
:10547000FFF782FF6FF00401C2E76FF00801BFE79A
:10548000D268002AF9D11DB933B16FF00901B7E72D
:10549000AA07FAD19945F8D81F4BD3F8A00038B322
:1054A000FFF74DFF04460028E4D04FF0010B2DB963
:1054B000CCE715F0030BE8D19945E6D8FA23237021
:1054C0000023C4E90983C4E90B33A36032462B46A9
:1054D00084F802B0C4F804A0394604F10C00FFF7C8
:1054E0000DFF0D4B0D4A1A678EE792461546D3E71E
:1054F000D3F8800001223421FFF7ADFED2E7D3F8C4
:105500008000FFF7DBFEB5E74A4600210DF0C0FE44
:105510004BF0020BD2E700BFBC020020AD550008E3
:1055200010B500F1280353E8002F12B9BFF32F8FF5
:1055300004E0511E43E8001404B1F4E70AB9002066
:1055400010BDC06A01220028F9D0811CD1E84F3F6C
:10555000C1E8442F04B1F9E7DBB2002BF0D080683A
:10556000F1E7036B30B5E3B1CD780024DA78AA42D5
:105570000FD31A46C1E901248AB19160A4B16160D8
:10558000283050E8003F5A1C40E8002101B1F8E7FC
:1055900030BD5A681C46002AECD01346E6E7C162CB
:1055A000ECE7C1E90133C1620163E9E7F8B5877847
:1055B00004468FB3C568014600272846FFF70BFF56
:1055C000277005F10C042046FFF7D6FEAB68002BD0
:1055D00048D02046FFF7B3FE0446002842D02846B4
:1055E00000F08EFC3A460646394600F021FD304672
:1055F00000F0CAFC6A6A8168064604F10C0010F0EB
:10560000A7F9F9232370A770F368E37021462846B1
:10561000BDE8F840FFF7A5BF8568AB68002BF5D063
:105620005B78832BF2D1284600F06AFC3A460646A6
:10563000394600F0FDFC304600F0A6FC06466A6ADA
:10564000806804F10C0110F083F9F3680BB1E27883
:105650001A7000232370214605F10C00BDE8F840C4
:10566000FFF78ABEF8BD00002DE9F0410E4617464F
:105670009846044618B10378FA2B00D141B9204668
:105680006FF00301FFF7F8FB6FF00300BDE8F08156
:105690008368BBB15B78832B14D100F031FC01220D
:1056A0000546002100F0C4FC284600F06DFC0546CC
:1056B000626A8068314610F04BF9EB6803B11F70E5
:1056C0000020E3E704F10C00FFF739FE054670B156
:1056D0003146626A0C3010F03BF9F9232B7000233D
:1056E000AB70EF7029462046FFF73BFFE8E7B8F1C3
:1056F000000F11D04146932000F0B4FD10B96FF0B7
:105700000100C3E7064B2046596900F0E7FBEFF3C1
:105710000983C3E90267F2E76FF00200B6E700BF52
:10572000BC0200202DE9F0410F461646984604467B
:1057300018B10378FA2B00D141B920466FF003016C
:10574000FFF79AFB6FF00300BDE8F081FFF7E8FE7A
:10575000054600283AD001462046FFF73CFE626A23
:1057600005F10C01384610F0F3F80EB1EB78337008
:10577000002704F10C062F7029463046FFF7FCFD88
:10578000A3680BB90020DFE73046FFF7D8FD0546D8
:105790000028F7D0204600F0B3FB39460646012228
:1057A00000F046FC304600F0EFFB626A8168064676
:1057B00005F10C0010F0CCF8F9232B70AF70F368F2
:1057C000EB7029462046FFF7CCFEDBE7B8F1000F6F
:1057D00011D04146832000F045FD10B96FF0010063
:1057E000B2E7064B2046596900F078FBEFF30983D6
:1057F000C3E90276F2E76FF00200A5E7BC020020E1
:1058000010B50446EFF3058333B100206FF00501B6
:10581000FFF732FB002010BDFFF7D2FD0028F4D1C6
:10582000DFF808C0204600DFF5E700BFF1530008AD
:105830002DE9F04106460F4690461C46EFF30583DE
:105840004BB196B930466FF00301FFF715FB6FF0CF
:105850000300BDE8F081FFF7B3FD0028F1D1DFF8C8
:105860004CC03046234600DFF3E73378FA2BE9D10A
:10587000002FE7D0002CE5D106F10C00FFF75FFD0B
:10588000054680B1726A39460C3010F061F8F92390
:105890002846C5E901762B70AC7085F8038000F0CE
:1058A00037FA2046D5E76FF00200D2E769560008C4
:1058B000F8B504460F4616461D46EFF3058343B17F
:1058C0008CB920466FF00301FFF7D6FA6FF00300A2
:1058D000F8BDFFF775FD0028F2D1DFF848C020467B
:1058E0002B4600DFF4E72378FA2BEAD1002FE8D02B
:1058F000002DE6D12046FFF713FE054670B100F1FA
:105900000C01626A384610F023F80EB1EB78337060
:105910002846EC6000F0FCF90020D9E76FF00200A7
:10592000D6E700BF25570008EFF310832BB9EFF33C
:105930001180003818BF0120704701207047000017
:1059400038B5044640B3D0E90025806860B110F056
:10595000030302D1E1681B2927D86FF0080100205A
:10596000FFF784FA002016E0E368002BF5D1144617
:10597000104BD3F8940088B1FFF7E1FCB8B10123D4
:1059800083700023C0E90233C0E90433F5220270BA
:10599000C5704460037638BD0546E9E7D3F880005A
:1059A00001221C21FFF757FCE8E71446E8E76FF0F7
:1059B0000401D5E7BC020020294B70B55D6904469F
:1059C0000E4635B96FF00701FFF750FA4FF0FF3080
:1059D00070BD10B10378F52B07D020466FF003019E
:1059E000FFF744FA6FF00300F2E7037E53B9EA6A67
:1059F000C560C0E9043202B11061EC620123237674
:105A00000020E5E7C278D1070ED5C168A9420BD1C5
:105A1000FF2B06D16FF00F01FFF728FA6FF002009D
:105A2000D6E70133DBB2EAE7002EF7D093070AD5B9
:105A3000E06895F9203090F920209A4203DA80F846
:105A4000203000F06FFA3146532000F00BFC10B903
:105A50006FF00100BCE72946204600F03FFAF7E767
:105A6000BC02002038B52E4B5A69044632B96FF09B
:105A70000701FFF7FBF94FF0FF3038BD10B1037895
:105A8000F52B07D020466FF00301FFF7EFF96FF019
:105A90000300F2E7037E33B96FF00E01FFF7E6F97A
:105AA0006FF00200E9E7C168914202D06FF00D018A
:105AB000F4E7013BDBB203760BB10020DDE743697D
:105AC0000BB1016919612169F9B14B61E3789B0759
:105AD00005D592F92110D36ACBB982F82010A368BA
